{
  "contractName": "ClimateDAO",
  "abi": [
    {
      "inputs": [],
      "stateMutability": "nonpayable",
      "type": "constructor"
    },
    {
      "anonymous": false,
      "inputs": [
        {
          "indexed": false,
          "internalType": "uint256",
          "name": "proposalId",
          "type": "uint256"
        }
      ],
      "name": "ProposalCanceled",
      "type": "event"
    },
    {
      "anonymous": false,
      "inputs": [
        {
          "indexed": false,
          "internalType": "uint256",
          "name": "proposalId",
          "type": "uint256"
        },
        {
          "indexed": false,
          "internalType": "address",
          "name": "proposer",
          "type": "address"
        },
        {
          "indexed": false,
          "internalType": "address[]",
          "name": "targets",
          "type": "address[]"
        },
        {
          "indexed": false,
          "internalType": "uint256[]",
          "name": "values",
          "type": "uint256[]"
        },
        {
          "indexed": false,
          "internalType": "string[]",
          "name": "signatures",
          "type": "string[]"
        },
        {
          "indexed": false,
          "internalType": "bytes[]",
          "name": "calldatas",
          "type": "bytes[]"
        },
        {
          "indexed": false,
          "internalType": "uint256",
          "name": "startBlock",
          "type": "uint256"
        },
        {
          "indexed": false,
          "internalType": "uint256",
          "name": "endBlock",
          "type": "uint256"
        },
        {
          "indexed": false,
          "internalType": "string",
          "name": "description",
          "type": "string"
        }
      ],
      "name": "ProposalCreated",
      "type": "event"
    },
    {
      "anonymous": false,
      "inputs": [
        {
          "indexed": false,
          "internalType": "uint256",
          "name": "proposalId",
          "type": "uint256"
        }
      ],
      "name": "ProposalExecuted",
      "type": "event"
    },
    {
      "anonymous": false,
      "inputs": [
        {
          "indexed": false,
          "internalType": "uint256",
          "name": "proposalId",
          "type": "uint256"
        },
        {
          "indexed": false,
          "internalType": "uint256",
          "name": "eta",
          "type": "uint256"
        }
      ],
      "name": "ProposalQueued",
      "type": "event"
    },
    {
      "anonymous": false,
      "inputs": [
        {
          "indexed": false,
          "internalType": "uint256",
          "name": "oldProposalThreshold",
          "type": "uint256"
        },
        {
          "indexed": false,
          "internalType": "uint256",
          "name": "newProposalThreshold",
          "type": "uint256"
        }
      ],
      "name": "ProposalThresholdSet",
      "type": "event"
    },
    {
      "anonymous": false,
      "inputs": [
        {
          "indexed": false,
          "internalType": "address",
          "name": "oldTimelock",
          "type": "address"
        },
        {
          "indexed": false,
          "internalType": "address",
          "name": "newTimelock",
          "type": "address"
        }
      ],
      "name": "TimelockChange",
      "type": "event"
    },
    {
      "anonymous": false,
      "inputs": [
        {
          "indexed": true,
          "internalType": "address",
          "name": "voter",
          "type": "address"
        },
        {
          "indexed": false,
          "internalType": "uint256",
          "name": "proposalId",
          "type": "uint256"
        },
        {
          "indexed": false,
          "internalType": "uint8",
          "name": "support",
          "type": "uint8"
        },
        {
          "indexed": false,
          "internalType": "uint256",
          "name": "weight",
          "type": "uint256"
        },
        {
          "indexed": false,
          "internalType": "string",
          "name": "reason",
          "type": "string"
        }
      ],
      "name": "VoteCast",
      "type": "event"
    },
    {
      "anonymous": false,
      "inputs": [
        {
          "indexed": false,
          "internalType": "uint256",
          "name": "oldVotingDelay",
          "type": "uint256"
        },
        {
          "indexed": false,
          "internalType": "uint256",
          "name": "newVotingDelay",
          "type": "uint256"
        }
      ],
      "name": "VotingDelaySet",
      "type": "event"
    },
    {
      "anonymous": false,
      "inputs": [
        {
          "indexed": false,
          "internalType": "uint256",
          "name": "oldVotingPeriod",
          "type": "uint256"
        },
        {
          "indexed": false,
          "internalType": "uint256",
          "name": "newVotingPeriod",
          "type": "uint256"
        }
      ],
      "name": "VotingPeriodSet",
      "type": "event"
    },
    {
      "inputs": [],
      "name": "BALLOT_TYPEHASH",
      "outputs": [
        {
          "internalType": "bytes32",
          "name": "",
          "type": "bytes32"
        }
      ],
      "stateMutability": "view",
      "type": "function"
    },
    {
      "inputs": [],
      "name": "COUNTING_MODE",
      "outputs": [
        {
          "internalType": "string",
          "name": "",
          "type": "string"
        }
      ],
      "stateMutability": "pure",
      "type": "function"
    },
    {
      "inputs": [
        {
          "internalType": "uint256",
          "name": "proposalId",
          "type": "uint256"
        },
        {
          "internalType": "uint8",
          "name": "support",
          "type": "uint8"
        }
      ],
      "name": "castVote",
      "outputs": [
        {
          "internalType": "uint256",
          "name": "",
          "type": "uint256"
        }
      ],
      "stateMutability": "nonpayable",
      "type": "function"
    },
    {
      "inputs": [
        {
          "internalType": "uint256",
          "name": "proposalId",
          "type": "uint256"
        },
        {
          "internalType": "uint8",
          "name": "support",
          "type": "uint8"
        },
        {
          "internalType": "uint8",
          "name": "v",
          "type": "uint8"
        },
        {
          "internalType": "bytes32",
          "name": "r",
          "type": "bytes32"
        },
        {
          "internalType": "bytes32",
          "name": "s",
          "type": "bytes32"
        }
      ],
      "name": "castVoteBySig",
      "outputs": [
        {
          "internalType": "uint256",
          "name": "",
          "type": "uint256"
        }
      ],
      "stateMutability": "nonpayable",
      "type": "function"
    },
    {
      "inputs": [
        {
          "internalType": "uint256",
          "name": "proposalId",
          "type": "uint256"
        },
        {
          "internalType": "uint8",
          "name": "support",
          "type": "uint8"
        },
        {
          "internalType": "string",
          "name": "reason",
          "type": "string"
        }
      ],
      "name": "castVoteWithReason",
      "outputs": [
        {
          "internalType": "uint256",
          "name": "",
          "type": "uint256"
        }
      ],
      "stateMutability": "nonpayable",
      "type": "function"
    },
    {
      "inputs": [
        {
          "internalType": "address[]",
          "name": "targets",
          "type": "address[]"
        },
        {
          "internalType": "uint256[]",
          "name": "values",
          "type": "uint256[]"
        },
        {
          "internalType": "bytes[]",
          "name": "calldatas",
          "type": "bytes[]"
        },
        {
          "internalType": "bytes32",
          "name": "descriptionHash",
          "type": "bytes32"
        }
      ],
      "name": "execute",
      "outputs": [
        {
          "internalType": "uint256",
          "name": "",
          "type": "uint256"
        }
      ],
      "stateMutability": "payable",
      "type": "function"
    },
    {
      "inputs": [
        {
          "internalType": "uint256",
          "name": "proposalId",
          "type": "uint256"
        },
        {
          "internalType": "address",
          "name": "account",
          "type": "address"
        }
      ],
      "name": "hasVoted",
      "outputs": [
        {
          "internalType": "bool",
          "name": "",
          "type": "bool"
        }
      ],
      "stateMutability": "view",
      "type": "function"
    },
    {
      "inputs": [
        {
          "internalType": "address[]",
          "name": "targets",
          "type": "address[]"
        },
        {
          "internalType": "uint256[]",
          "name": "values",
          "type": "uint256[]"
        },
        {
          "internalType": "bytes[]",
          "name": "calldatas",
          "type": "bytes[]"
        },
        {
          "internalType": "bytes32",
          "name": "descriptionHash",
          "type": "bytes32"
        }
      ],
      "name": "hashProposal",
      "outputs": [
        {
          "internalType": "uint256",
          "name": "",
          "type": "uint256"
        }
      ],
      "stateMutability": "pure",
      "type": "function"
    },
    {
      "inputs": [],
      "name": "name",
      "outputs": [
        {
          "internalType": "string",
          "name": "",
          "type": "string"
        }
      ],
      "stateMutability": "view",
      "type": "function"
    },
    {
      "inputs": [
        {
          "internalType": "uint256",
          "name": "proposalId",
          "type": "uint256"
        }
      ],
      "name": "proposalDeadline",
      "outputs": [
        {
          "internalType": "uint256",
          "name": "",
          "type": "uint256"
        }
      ],
      "stateMutability": "view",
      "type": "function"
    },
    {
      "inputs": [
        {
          "internalType": "uint256",
          "name": "proposalId",
          "type": "uint256"
        }
      ],
      "name": "proposalEta",
      "outputs": [
        {
          "internalType": "uint256",
          "name": "",
          "type": "uint256"
        }
      ],
      "stateMutability": "view",
      "type": "function"
    },
    {
      "inputs": [
        {
          "internalType": "uint256",
          "name": "proposalId",
          "type": "uint256"
        }
      ],
      "name": "proposalSnapshot",
      "outputs": [
        {
          "internalType": "uint256",
          "name": "",
          "type": "uint256"
        }
      ],
      "stateMutability": "view",
      "type": "function"
    },
    {
      "inputs": [
        {
          "internalType": "uint256",
          "name": "proposalId",
          "type": "uint256"
        }
      ],
      "name": "proposalVotes",
      "outputs": [
        {
          "internalType": "uint256",
          "name": "againstVotes",
          "type": "uint256"
        },
        {
          "internalType": "uint256",
          "name": "forVotes",
          "type": "uint256"
        },
        {
          "internalType": "uint256",
          "name": "abstainVotes",
          "type": "uint256"
        }
      ],
      "stateMutability": "view",
      "type": "function"
    },
    {
      "inputs": [
        {
          "internalType": "address[]",
          "name": "targets",
          "type": "address[]"
        },
        {
          "internalType": "uint256[]",
          "name": "values",
          "type": "uint256[]"
        },
        {
          "internalType": "bytes[]",
          "name": "calldatas",
          "type": "bytes[]"
        },
        {
          "internalType": "bytes32",
          "name": "descriptionHash",
          "type": "bytes32"
        }
      ],
      "name": "queue",
      "outputs": [
        {
          "internalType": "uint256",
          "name": "",
          "type": "uint256"
        }
      ],
      "stateMutability": "nonpayable",
      "type": "function"
    },
    {
      "inputs": [
        {
          "internalType": "uint256",
          "name": "newProposalThreshold",
          "type": "uint256"
        }
      ],
      "name": "setProposalThreshold",
      "outputs": [],
      "stateMutability": "nonpayable",
      "type": "function"
    },
    {
      "inputs": [
        {
          "internalType": "uint256",
          "name": "newVotingDelay",
          "type": "uint256"
        }
      ],
      "name": "setVotingDelay",
      "outputs": [],
      "stateMutability": "nonpayable",
      "type": "function"
    },
    {
      "inputs": [
        {
          "internalType": "uint256",
          "name": "newVotingPeriod",
          "type": "uint256"
        }
      ],
      "name": "setVotingPeriod",
      "outputs": [],
      "stateMutability": "nonpayable",
      "type": "function"
    },
    {
      "inputs": [],
      "name": "timelock",
      "outputs": [
        {
          "internalType": "address",
          "name": "",
          "type": "address"
        }
      ],
      "stateMutability": "view",
      "type": "function"
    },
    {
      "inputs": [],
      "name": "token",
      "outputs": [
        {
          "internalType": "contract ERC20VotesUpgradeable",
          "name": "",
          "type": "address"
        }
      ],
      "stateMutability": "view",
      "type": "function"
    },
    {
      "inputs": [
        {
          "internalType": "contract TimelockControllerUpgradeable",
          "name": "newTimelock",
          "type": "address"
        }
      ],
      "name": "updateTimelock",
      "outputs": [],
      "stateMutability": "nonpayable",
      "type": "function"
    },
    {
      "inputs": [],
      "name": "version",
      "outputs": [
        {
          "internalType": "string",
          "name": "",
          "type": "string"
        }
      ],
      "stateMutability": "view",
      "type": "function"
    },
    {
      "stateMutability": "payable",
      "type": "receive"
    },
    {
      "inputs": [
        {
          "internalType": "contract ERC20VotesUpgradeable",
          "name": "_token",
          "type": "address"
        },
        {
          "internalType": "contract TimelockControllerUpgradeable",
          "name": "_timelock",
          "type": "address"
        }
      ],
      "name": "initialize",
      "outputs": [],
      "stateMutability": "nonpayable",
      "type": "function"
    },
    {
      "inputs": [
        {
          "internalType": "uint256",
          "name": "blockNumber",
          "type": "uint256"
        }
      ],
      "name": "quorum",
      "outputs": [
        {
          "internalType": "uint256",
          "name": "",
          "type": "uint256"
        }
      ],
      "stateMutability": "pure",
      "type": "function"
    },
    {
      "inputs": [],
      "name": "votingDelay",
      "outputs": [
        {
          "internalType": "uint256",
          "name": "",
          "type": "uint256"
        }
      ],
      "stateMutability": "view",
      "type": "function"
    },
    {
      "inputs": [],
      "name": "votingPeriod",
      "outputs": [
        {
          "internalType": "uint256",
          "name": "",
          "type": "uint256"
        }
      ],
      "stateMutability": "view",
      "type": "function"
    },
    {
      "inputs": [
        {
          "internalType": "address",
          "name": "account",
          "type": "address"
        },
        {
          "internalType": "uint256",
          "name": "blockNumber",
          "type": "uint256"
        }
      ],
      "name": "getVotes",
      "outputs": [
        {
          "internalType": "uint256",
          "name": "",
          "type": "uint256"
        }
      ],
      "stateMutability": "view",
      "type": "function"
    },
    {
      "inputs": [
        {
          "internalType": "uint256",
          "name": "proposalId",
          "type": "uint256"
        }
      ],
      "name": "state",
      "outputs": [
        {
          "internalType": "enum IGovernorUpgradeable.ProposalState",
          "name": "",
          "type": "uint8"
        }
      ],
      "stateMutability": "view",
      "type": "function"
    },
    {
      "inputs": [
        {
          "internalType": "address[]",
          "name": "targets",
          "type": "address[]"
        },
        {
          "internalType": "uint256[]",
          "name": "values",
          "type": "uint256[]"
        },
        {
          "internalType": "bytes[]",
          "name": "calldatas",
          "type": "bytes[]"
        },
        {
          "internalType": "string",
          "name": "description",
          "type": "string"
        }
      ],
      "name": "propose",
      "outputs": [
        {
          "internalType": "uint256",
          "name": "",
          "type": "uint256"
        }
      ],
      "stateMutability": "nonpayable",
      "type": "function"
    },
    {
      "inputs": [],
      "name": "proposalThreshold",
      "outputs": [
        {
          "internalType": "uint256",
          "name": "",
          "type": "uint256"
        }
      ],
      "stateMutability": "view",
      "type": "function"
    },
    {
      "inputs": [
        {
          "internalType": "bytes4",
          "name": "interfaceId",
          "type": "bytes4"
        }
      ],
      "name": "supportsInterface",
      "outputs": [
        {
          "internalType": "bool",
          "name": "",
          "type": "bool"
        }
      ],
      "stateMutability": "view",
      "type": "function"
    }
  ],
  "bytecode": "0x60806040523480156200001157600080fd5b50600054610100900460ff16806200002c575060005460ff16155b620000945760405162461bcd60e51b815260206004820152602e60248201527f496e697469616c697a61626c653a20636f6e747261637420697320616c72656160448201526d191e481a5b9a5d1a585b1a5e995960921b606482015260840160405180910390fd5b600054610100900460ff16158015620000b7576000805461ffff19166101011790555b8015620000ca576000805461ff00191690555b50612fda80620000db6000396000f3fe6080604052600436106101d15760003560e01c80637b3c71d3116100f7578063d33219b411610095578063eb9019d411610064578063eb9019d4146105f5578063ece40cc114610615578063f8ce560a14610635578063fc0c546a1461065e57600080fd5b8063d33219b414610528578063dd4e2ba51461055b578063deaaa7cc146105a1578063ea0217cf146105d557600080fd5b8063ab58fb8e116100d1578063ab58fb8e146104b3578063b58131b0146104d3578063c01f9e37146104e8578063c59057e41461050857600080fd5b80637b3c71d3146104535780637d5e81e214610473578063a890c9101461049357600080fd5b80633bccf4fd1161016f578063544ffc9c1161013e578063544ffc9c1461039357806354fd4d50146103e9578063567813881461041357806370b0f6601461043357600080fd5b80633bccf4fd146102db5780633e4f49e6146102fb5780634385963214610328578063485cc9551461037357600080fd5b8063160cbed7116101ab578063160cbed7146102735780632656227d146102935780632d63f693146102a65780633932abb1146102c657600080fd5b806301ffc9a7146101f957806302a251a31461022e57806306fdde031461025157600080fd5b366101f457306101df61067f565b6001600160a01b0316146101f257600080fd5b005b600080fd5b34801561020557600080fd5b50610219610214366004612860565b610699565b60405190151581526020015b60405180910390f35b34801561023a57600080fd5b506102436106aa565b604051908152602001610225565b34801561025d57600080fd5b506102666106b6565b6040516102259190612c31565b34801561027f57600080fd5b5061024361028e3660046126e3565b610748565b6102436102a13660046126e3565b610981565b3480156102b257600080fd5b506102436102c13660046128dc565b610a75565b3480156102d257600080fd5b50610243610aac565b3480156102e757600080fd5b506102436102f63660046129c4565b610ab8565b34801561030757600080fd5b5061031b6103163660046128dc565b610b4c565b6040516102259190612c09565b34801561033457600080fd5b506102196103433660046128f4565b6000828152610161602090815260408083206001600160a01b038516845260030190915290205460ff1692915050565b34801561037f57600080fd5b506101f261038e366004612888565b610b57565b34801561039f57600080fd5b506103ce6103ae3660046128dc565b600090815261016160205260409020805460018201546002909201549092565b60408051938452602084019290925290820152606001610225565b3480156103f557600080fd5b506040805180820190915260018152603160f81b6020820152610266565b34801561041f57600080fd5b5061024361042e366004612918565b610c22565b34801561043f57600080fd5b506101f261044e3660046128dc565b610c4b565b34801561045f57600080fd5b5061024361046e366004612943565b610c8f565b34801561047f57600080fd5b5061024361048e36600461276e565b610ce1565b34801561049f57600080fd5b506101f26104ae3660046128c0565b610cf8565b3480156104bf57600080fd5b506102436104ce3660046128dc565b610d39565b3480156104df57600080fd5b50610243610de5565b3480156104f457600080fd5b506102436105033660046128dc565b610df1565b34801561051457600080fd5b506102436105233660046126e3565b610e20565b34801561053457600080fd5b506101c6546001600160a01b03165b6040516001600160a01b039091168152602001610225565b34801561056757600080fd5b506040805180820190915260208082527f737570706f72743d627261766f2671756f72756d3d666f722c6162737461696e90820152610266565b3480156105ad57600080fd5b506102437f150214d74d59b7d1e90c73fc22ef3d991dd0a76b046543d4d80ab92d2a50328f81565b3480156105e157600080fd5b506101f26105f03660046128dc565b610e5a565b34801561060157600080fd5b506102436106103660046126b8565b610e9b565b34801561062157600080fd5b506101f26106303660046128dc565b610ea7565b34801561064157600080fd5b506102436106503660046128dc565b5068056bc75e2d6310000090565b34801561066a57600080fd5b5061019354610543906001600160a01b031681565b60006106946101c6546001600160a01b031690565b905090565b60006106a482610ee8565b92915050565b60006106946101305490565b606060fd80546106c590612f2e565b80601f01602080910402602001604051908101604052809291908181526020018280546106f190612f2e565b801561073e5780601f106107135761010080835404028352916020019161073e565b820191906000526020600020905b81548152906001019060200180831161072157829003601f168201915b5050505050905090565b60008061075786868686610e20565b9050600461076482610b4c565b600781111561078357634e487b7160e01b600052602160045260246000fd5b146107a95760405162461bcd60e51b81526004016107a090612d0a565b60405180910390fd5b6101c6546040805163793d064960e11b815290516000926001600160a01b03169163f27a0c92916004808301926020929190829003018186803b1580156107ef57600080fd5b505afa158015610803573d6000803e3d6000fd5b505050506040513d601f19601f820116820180604052508101906108279190612848565b6101c65460405163b1c5f42760e01b81529192506001600160a01b03169063b1c5f42790610862908a908a908a906000908b90600401612b63565b60206040518083038186803b15801561087a57600080fd5b505afa15801561088e573d6000803e3d6000fd5b505050506040513d601f19601f820116820180604052508101906108b29190612848565b60008381526101c76020526040808220929092556101c65491516308f2a0bb60e41b81526001600160a01b0390921691638f2a0bb0916108ff918b918b918b91908b908990600401612bb1565b600060405180830381600087803b15801561091957600080fd5b505af115801561092d573d6000803e3d6000fd5b505050507f9a2e42fd6722813d69113e7d0079d3d940171428df7373df9c7f7617cfda289282824261095f9190612eb4565b6040805192835260208301919091520160405180910390a15095945050505050565b60008061099086868686610e20565b9050600061099d82610b4c565b905060048160078111156109c157634e487b7160e01b600052602160045260246000fd5b14806109ec575060058160078111156109ea57634e487b7160e01b600052602160045260246000fd5b145b610a085760405162461bcd60e51b81526004016107a090612d0a565b600082815260fe602052604090819020600201805460ff19166001179055517f712ae1383f79ac853f8d882153778e0260ef8f03b504e2866e0593e04d2b291f90610a569084815260200190565b60405180910390a1610a6b8288888888610f0d565b5095945050505050565b600081815260fe602090815260408083208151928301909152546001600160401b0316908190525b6001600160401b031692915050565b600061069461012f5490565b604080517f150214d74d59b7d1e90c73fc22ef3d991dd0a76b046543d4d80ab92d2a50328f602082015290810186905260ff851660608201526000908190610b2490610b1c9060800160405160208183030381529060405280519060200120610f21565b868686610f6f565b9050610b4187828860405180602001604052806000815250610f8d565b979650505050505050565b60006106a4826110ae565b600054610100900460ff1680610b70575060005460ff16155b610b8c5760405162461bcd60e51b81526004016107a090612cbc565b600054610100900460ff16158015610bae576000805461ffff19166101011790555b610bd96040518060400160405280600a815260200169436c696d61746544414f60b01b81525061119b565b610bf161177061b2fa680d8d726b7177a80000611250565b610bf96112e2565b610c028361136d565b610c0b826113e5565b8015610c1d576000805461ff00191690555b505050565b600080339050610c4384828560405180602001604052806000815250610f8d565b949350505050565b610c5361067f565b6001600160a01b0316336001600160a01b031614610c835760405162461bcd60e51b81526004016107a090612c44565b610c8c81611465565b50565b600080339050610cd786828787878080601f016020809104026020016040519081016040528093929190818152602001838380828437600092019190915250610f8d92505050565b9695505050505050565b6000610cef858585856114a8565b95945050505050565b610d0061067f565b6001600160a01b0316336001600160a01b031614610d305760405162461bcd60e51b81526004016107a090612c44565b610c8c81611791565b6101c65460008281526101c7602052604080822054905163d45c443560e01b81526004810191909152909182916001600160a01b039091169063d45c44359060240160206040518083038186803b158015610d9357600080fd5b505afa158015610da7573d6000803e3d6000fd5b505050506040513d601f19601f82011682018060405250810190610dcb9190612848565b905080600114610ddb5780610dde565b60005b9392505050565b60006106946101315490565b600081815260fe602090815260408083208151928301909152600101546001600160401b031690819052610a9d565b600084848484604051602001610e399493929190612b18565b60408051601f19818403018152919052805160209091012095945050505050565b610e6261067f565b6001600160a01b0316336001600160a01b031614610e925760405162461bcd60e51b81526004016107a090612c44565b610c8c816117fc565b6000610dde838361189f565b610eaf61067f565b6001600160a01b0316336001600160a01b031614610edf5760405162461bcd60e51b81526004016107a090612c44565b610c8c81611925565b60006001600160e01b03198216636e665ced60e01b14806106a457506106a482611968565b610f1a858585858561199d565b5050505050565b60006106a4610f2e611a12565b8360405161190160f01b6020820152602281018390526042810182905260009060620160405160208183030381529060405280519060200120905092915050565b6000806000610f8087878787611a8d565b91509150610a6b81611b7a565b600084815260fe602052604081206001610fa687610b4c565b6007811115610fc557634e487b7160e01b600052602160045260246000fd5b1461101e5760405162461bcd60e51b815260206004820152602360248201527f476f7665726e6f723a20766f7465206e6f742063757272656e746c792061637460448201526269766560e81b60648201526084016107a0565b604080516020810190915281546001600160401b03169081905260009061104f9061104a908890610e9b565b611d7b565b905061105d87878784611dd4565b856001600160a01b03167fb8e138887d0aa13bab447e82de9d5c1777041ecd21ca36ba824ff1e6c07ddda48887848860405161109c9493929190612e39565b60405180910390a29695505050505050565b6000806110ba83611f54565b905060048160078111156110de57634e487b7160e01b600052602160045260246000fd5b146110e95792915050565b60008381526101c7602052604090205480611105575092915050565b6101c654604051632ab0f52960e01b8152600481018390526001600160a01b0390911690632ab0f5299060240160206040518083038186803b15801561114a57600080fd5b505afa15801561115e573d6000803e3d6000fd5b505050506040513d601f19601f820116820180604052508101906111829190612828565b15611191575060079392505050565b5060059392505050565b600054610100900460ff16806111b4575060005460ff16155b6111d05760405162461bcd60e51b81526004016107a090612cbc565b600054610100900460ff161580156111f2576000805461ffff19166101011790555b6111fa6120b3565b6112026120b3565b611229826112246040805180820190915260018152603160f81b602082015290565b61211d565b6112316120b3565b61123a826121a7565b801561124c576000805461ff00191690555b5050565b600054610100900460ff1680611269575060005460ff16155b6112855760405162461bcd60e51b81526004016107a090612cbc565b600054610100900460ff161580156112a7576000805461ffff19166101011790555b6112af6120b3565b6112b76120b3565b6112bf6120b3565b6112ca848484612227565b80156112dc576000805461ff00191690555b50505050565b600054610100900460ff16806112fb575060005460ff16155b6113175760405162461bcd60e51b81526004016107a090612cbc565b600054610100900460ff16158015611339576000805461ffff19166101011790555b6113416120b3565b6113496120b3565b6113516120b3565b6113596120b3565b8015610c8c576000805461ff001916905550565b600054610100900460ff1680611386575060005460ff16155b6113a25760405162461bcd60e51b81526004016107a090612cbc565b600054610100900460ff161580156113c4576000805461ffff19166101011790555b6113cc6120b3565b6113d46120b3565b6113dc6120b3565b61123a82612299565b600054610100900460ff16806113fe575060005460ff16155b61141a5760405162461bcd60e51b81526004016107a090612cbc565b600054610100900460ff1615801561143c576000805461ffff19166101011790555b6114446120b3565b61144c6120b3565b6114546120b3565b61145c6120b3565b61123a82612321565b61012f5460408051918252602082018390527fc565b045403dc03c2eea82b81a0465edad9e2e7fc4d97e11421c209da93d7a93910160405180910390a161012f55565b60006114b2610de5565b6114c133610610600143612f17565b10156115415760405162461bcd60e51b815260206004820152604360248201527f476f7665726e6f72436f6d7061746962696c697479427261766f3a2070726f7060448201527f6f73657220766f7465732062656c6f772070726f706f73616c207468726573686064820152621bdb1960ea1b608482015260a4016107a0565b60006115568686868680519060200120610e20565b905084518651146115795760405162461bcd60e51b81526004016107a090612c7b565b835186511461159a5760405162461bcd60e51b81526004016107a090612c7b565b60008651116115eb5760405162461bcd60e51b815260206004820152601860248201527f476f7665726e6f723a20656d7074792070726f706f73616c000000000000000060448201526064016107a0565b600081815260fe6020908152604091829020825191820190925281546001600160401b0316908190521561166b5760405162461bcd60e51b815260206004820152602160248201527f476f7665726e6f723a2070726f706f73616c20616c72656164792065786973746044820152607360f81b60648201526084016107a0565b600061167d611678610aac565b612381565b61168643612381565b6116909190612ecc565b9050600061169f6116786106aa565b6116a99083612ecc565b835467ffffffffffffffff19166001600160401b038416178455905060018301805467ffffffffffffffff19166001600160401b0383161790557f7d84a6263ae0d98d3329bd7b46bb4e8d6f98cd35a7adb45c274c8b7fd5ebd5e084338b8b8d516001600160401b0381111561172f57634e487b7160e01b600052604160045260246000fd5b60405190808252806020026020018201604052801561176257816020015b606081526020019060019003908161174d5790505b508c88888e60405161177c99989796959493929190612d4b565b60405180910390a15091979650505050505050565b6101c654604080516001600160a01b03928316815291831660208301527f08f74ea46ef7894f65eabfb5e6e695de773a000b47c529ab559178069b226401910160405180910390a16101c680546001600160a01b0319166001600160a01b0392909216919091179055565b6000811161185c5760405162461bcd60e51b815260206004820152602760248201527f476f7665726e6f7253657474696e67733a20766f74696e6720706572696f6420604482015266746f6f206c6f7760c81b60648201526084016107a0565b6101305460408051918252602082018390527f7e3f7f0708a84de9203036abaa450dccc85ad5ff52f78c170f3edb55cf5e8828910160405180910390a161013055565b61019354604051630748d63560e31b81526001600160a01b038481166004830152602482018490526000921690633a46b1a89060440160206040518083038186803b1580156118ed57600080fd5b505afa158015611901573d6000803e3d6000fd5b505050506040513d601f19601f82011682018060405250810190610dde9190612848565b6101315460408051918252602082018390527fccb45da8d5717e6c4544694297c4ba5cf151d455c9bb0ed4fc7a38411bc05461910160405180910390a161013155565b60006001600160e01b0319821663bf26d89760e01b14806106a457506301ffc9a760e01b6001600160e01b03198316146106a4565b6101c65460405163e38335e560e01b81526001600160a01b039091169063e38335e59034906119d9908890889088906000908990600401612b63565b6000604051808303818588803b1580156119f257600080fd5b505af1158015611a06573d6000803e3d6000fd5b50505050505050505050565b60006106947f8b73c3c69bb8fe3d512ecc4cf759cc79239f7b179b0ffacaa9a75d522b39400f611a4160655490565b6066546040805160208101859052908101839052606081018290524660808201523060a082015260009060c0016040516020818303038152906040528051906020012090509392505050565b6000807f7fffffffffffffffffffffffffffffff5d576e7357a4501ddfe92f46681b20a0831115611ac45750600090506003611b71565b8460ff16601b14158015611adc57508460ff16601c14155b15611aed5750600090506004611b71565b6040805160008082526020820180845289905260ff881692820192909252606081018690526080810185905260019060a0016020604051602081039080840390855afa158015611b41573d6000803e3d6000fd5b5050604051601f1901519150506001600160a01b038116611b6a57600060019250925050611b71565b9150600090505b94509492505050565b6000816004811115611b9c57634e487b7160e01b600052602160045260246000fd5b1415611ba55750565b6001816004811115611bc757634e487b7160e01b600052602160045260246000fd5b1415611c155760405162461bcd60e51b815260206004820152601860248201527f45434453413a20696e76616c6964207369676e6174757265000000000000000060448201526064016107a0565b6002816004811115611c3757634e487b7160e01b600052602160045260246000fd5b1415611c855760405162461bcd60e51b815260206004820152601f60248201527f45434453413a20696e76616c6964207369676e6174757265206c656e6774680060448201526064016107a0565b6003816004811115611ca757634e487b7160e01b600052602160045260246000fd5b1415611d005760405162461bcd60e51b815260206004820152602260248201527f45434453413a20696e76616c6964207369676e6174757265202773272076616c604482015261756560f01b60648201526084016107a0565b6004816004811115611d2257634e487b7160e01b600052602160045260246000fd5b1415610c8c5760405162461bcd60e51b815260206004820152602260248201527f45434453413a20696e76616c6964207369676e6174757265202776272076616c604482015261756560f01b60648201526084016107a0565b6000806002611d8b846001612eb4565b611d959190612ef7565b90508291505b81811015611dce57905080600281611db38186612ef7565b611dbd9190612eb4565b611dc79190612ef7565b9050611d9b565b50919050565b6000848152610161602090815260408083206001600160a01b0387168452600381019092529091205460ff1615611e5d5760405162461bcd60e51b815260206004820152602760248201527f476f7665726e6f72566f74696e6753696d706c653a20766f746520616c726561604482015266191e4818d85cdd60ca1b60648201526084016107a0565b6001600160a01b03841660009081526003820160205260408120805460ff1916600117905560ff168360ff161415611eae5781816000016000828254611ea39190612eb4565b90915550610f1a9050565b60ff831660011415611ece5781816001016000828254611ea39190612eb4565b60ff831660021415611eee5781816002016000828254611ea39190612eb4565b60405162461bcd60e51b815260206004820152603560248201527f476f7665726e6f72566f74696e6753696d706c653a20696e76616c69642076616044820152746c756520666f7220656e756d20566f74655479706560581b60648201526084016107a0565b600081815260fe60209081526040808320815160a08101835281546001600160401b039081166080830190815282528351808601855260018401549091168152938101939093526002015460ff808216158015938501939093526101009091041615156060830152611fc95750600792915050565b806060015115611fdc5750600292915050565b80515143906001600160401b031610611ff85750600092915050565b4361200582602001515190565b6001600160401b03161061201c5750600192915050565b61202981602001516123ed565b1561206b576120378361241c565b801561205757506000838152610161602052604090208054600190910154115b612062576003610dde565b60049392505050565b60405162461bcd60e51b815260206004820152601d60248201527f476f7665726e6f723a20756e6b6e6f776e2070726f706f73616c20696400000060448201526064016107a0565b600054610100900460ff16806120cc575060005460ff16155b6120e85760405162461bcd60e51b81526004016107a090612cbc565b600054610100900460ff16158015611359576000805461ffff19166101011790558015610c8c576000805461ff001916905550565b600054610100900460ff1680612136575060005460ff16155b6121525760405162461bcd60e51b81526004016107a090612cbc565b600054610100900460ff16158015612174576000805461ffff19166101011790555b82516020808501919091208351918401919091206065919091556066558015610c1d576000805461ff0019169055505050565b600054610100900460ff16806121c0575060005460ff16155b6121dc5760405162461bcd60e51b81526004016107a090612cbc565b600054610100900460ff161580156121fe576000805461ffff19166101011790555b81516122119060fd906020850190612454565b50801561124c576000805461ff00191690555050565b600054610100900460ff1680612240575060005460ff16155b61225c5760405162461bcd60e51b81526004016107a090612cbc565b600054610100900460ff1615801561227e576000805461ffff19166101011790555b61228784611465565b612290836117fc565b6112ca82611925565b600054610100900460ff16806122b2575060005460ff16155b6122ce5760405162461bcd60e51b81526004016107a090612cbc565b600054610100900460ff161580156122f0576000805461ffff19166101011790555b61019380546001600160a01b0319166001600160a01b038416179055801561124c576000805461ff00191690555050565b600054610100900460ff168061233a575060005460ff16155b6123565760405162461bcd60e51b81526004016107a090612cbc565b600054610100900460ff16158015612378576000805461ffff19166101011790555b61123a82611791565b60006001600160401b038211156123e95760405162461bcd60e51b815260206004820152602660248201527f53616665436173743a2076616c756520646f65736e27742066697420696e203660448201526534206269747360d01b60648201526084016107a0565b5090565b600061240282516001600160401b0316151590565b80156106a457505051436001600160401b03909116111590565b6000818152610161602052604081206002810154600182015461243f9190612eb4565b61244b61065085610a75565b11159392505050565b82805461246090612f2e565b90600052602060002090601f01602090048101928261248257600085556124c8565b82601f1061249b57805160ff19168380011785556124c8565b828001600101855582156124c8579182015b828111156124c85782518255916020019190600101906124ad565b506123e99291505b808211156123e957600081556001016124d0565b60006001600160401b038311156124fd576124fd612f79565b612510601f8401601f1916602001612e61565b905082815283838301111561252457600080fd5b828260208301376000602084830101529392505050565b600082601f83011261254b578081fd5b8135602061256061255b83612e91565b612e61565b80838252828201915082860187848660051b890101111561257f578586fd5b855b858110156125a657813561259481612f8f565b84529284019290840190600101612581565b5090979650505050505050565b600082601f8301126125c3578081fd5b813560206125d361255b83612e91565b80838252828201915082860187848660051b89010111156125f2578586fd5b855b858110156125a65781356001600160401b03811115612611578788fd5b8801603f81018a13612621578788fd5b6126328a87830135604084016124e4565b85525092840192908401906001016125f4565b600082601f830112612655578081fd5b8135602061266561255b83612e91565b80838252828201915082860187848660051b8901011115612684578586fd5b855b858110156125a657813584529284019290840190600101612686565b803560ff811681146126b357600080fd5b919050565b600080604083850312156126ca578182fd5b82356126d581612f8f565b946020939093013593505050565b600080600080608085870312156126f8578182fd5b84356001600160401b038082111561270e578384fd5b61271a8883890161253b565b9550602087013591508082111561272f578384fd5b61273b88838901612645565b94506040870135915080821115612750578384fd5b5061275d878288016125b3565b949793965093946060013593505050565b60008060008060808587031215612783578384fd5b84356001600160401b0380821115612799578586fd5b6127a58883890161253b565b955060208701359150808211156127ba578485fd5b6127c688838901612645565b945060408701359150808211156127db578384fd5b6127e7888389016125b3565b935060608701359150808211156127fc578283fd5b508501601f8101871361280d578182fd5b61281c878235602084016124e4565b91505092959194509250565b600060208284031215612839578081fd5b81518015158114610dde578182fd5b600060208284031215612859578081fd5b5051919050565b600060208284031215612871578081fd5b81356001600160e01b031981168114610dde578182fd5b6000806040838503121561289a578182fd5b82356128a581612f8f565b915060208301356128b581612f8f565b809150509250929050565b6000602082840312156128d1578081fd5b8135610dde81612f8f565b6000602082840312156128ed578081fd5b5035919050565b60008060408385031215612906578182fd5b8235915060208301356128b581612f8f565b6000806040838503121561292a578182fd5b8235915061293a602084016126a2565b90509250929050565b60008060008060608587031215612958578182fd5b84359350612968602086016126a2565b925060408501356001600160401b0380821115612983578384fd5b818701915087601f830112612996578384fd5b8135818111156129a4578485fd5b8860208285010111156129b5578485fd5b95989497505060200194505050565b600080600080600060a086880312156129db578283fd5b853594506129eb602087016126a2565b93506129f9604087016126a2565b94979396509394606081013594506080013592915050565b6000815180845260208085019450808401835b83811015612a495781516001600160a01b031687529582019590820190600101612a24565b509495945050505050565b600082825180855260208086019550808260051b840101818601855b848110156125a657601f19868403018952612a8c838351612acd565b98840198925090830190600101612a70565b6000815180845260208085019450808401835b83811015612a4957815187529582019590820190600101612ab1565b60008151808452815b81811015612af257602081850181015186830182015201612ad6565b81811115612b035782602083870101525b50601f01601f19169290920160200192915050565b608081526000612b2b6080830187612a11565b8281036020840152612b3d8187612a9e565b90508281036040840152612b518186612a54565b91505082606083015295945050505050565b60a081526000612b7660a0830188612a11565b8281036020840152612b888188612a9e565b90508281036040840152612b9c8187612a54565b60608401959095525050608001529392505050565b60c081526000612bc460c0830189612a11565b8281036020840152612bd68189612a9e565b90508281036040840152612bea8188612a54565b60608401969096525050608081019290925260a0909101529392505050565b6020810160088310612c2b57634e487b7160e01b600052602160045260246000fd5b91905290565b602081526000610dde6020830184612acd565b60208082526018908201527f476f7665726e6f723a206f6e6c79476f7665726e616e63650000000000000000604082015260600190565b60208082526021908201527f476f7665726e6f723a20696e76616c69642070726f706f73616c206c656e67746040820152600d60fb1b606082015260800190565b6020808252602e908201527f496e697469616c697a61626c653a20636f6e747261637420697320616c72656160408201526d191e481a5b9a5d1a585b1a5e995960921b606082015260800190565b60208082526021908201527f476f7665726e6f723a2070726f706f73616c206e6f74207375636365737366756040820152601b60fa1b606082015260800190565b60006101208b8352602060018060a01b038c1681850152816040850152612d748285018c612a11565b91508382036060850152612d88828b612a9e565b915083820360808501528189518084528284019150828160051b850101838c01865b83811015612dd857601f19878403018552612dc6838351612acd565b94860194925090850190600101612daa565b505086810360a0880152612dec818c612a54565b945050505050612e0760c08401876001600160401b03169052565b6001600160401b03851660e0840152828103610100840152612e298185612acd565b9c9b505050505050505050505050565b84815260ff84166020820152826040820152608060608201526000610cd76080830184612acd565b604051601f8201601f191681016001600160401b0381118282101715612e8957612e89612f79565b604052919050565b60006001600160401b03821115612eaa57612eaa612f79565b5060051b60200190565b60008219821115612ec757612ec7612f63565b500190565b60006001600160401b03808316818516808303821115612eee57612eee612f63565b01949350505050565b600082612f1257634e487b7160e01b81526012600452602481fd5b500490565b600082821015612f2957612f29612f63565b500390565b600181811c90821680612f4257607f821691505b60208210811415611dce57634e487b7160e01b600052602260045260246000fd5b634e487b7160e01b600052601160045260246000fd5b634e487b7160e01b600052604160045260246000fd5b6001600160a01b0381168114610c8c57600080fdfea2646970667358221220bd99b60e4db77aba66582808c812f5e925c899d679288752b0aeb5331660f0d964736f6c63430008040033",
  "immutableReferences": {},
  "source": "// SPDX-License-Identifier: MIT\npragma solidity ^0.8.2;\n\nimport \"./@openzeppelin/contracts-upgradeable/governance/GovernorUpgradeable.sol\";\nimport \"./@openzeppelin/contracts-upgradeable/governance/extensions/GovernorSettingsUpgradeable.sol\";\nimport \"./@openzeppelin/contracts-upgradeable/governance/extensions/GovernorCountingSimpleUpgradeable.sol\";\nimport \"./@openzeppelin/contracts-upgradeable/governance/extensions/GovernorVotesUpgradeable.sol\";\nimport \"./@openzeppelin/contracts-upgradeable/governance/extensions/GovernorTimelockControlUpgradeable.sol\";\nimport \"./@openzeppelin/contracts-upgradeable/proxy/utils/Initializable.sol\";\n\ncontract ClimateDAO is Initializable, GovernorUpgradeable, GovernorSettingsUpgradeable, GovernorCountingSimpleUpgradeable, GovernorVotesUpgradeable, GovernorTimelockControlUpgradeable {\n    /// @custom:oz-upgrades-unsafe-allow constructor\n    constructor() initializer {}\n\n    function initialize(ERC20VotesUpgradeable _token, TimelockControllerUpgradeable _timelock)\n        initializer public\n    {\n        __Governor_init(\"ClimateDAO\");\n        __GovernorSettings_init(6000 /* 6000 block */, 45818 /* 1 week */, 250e18);\n        __GovernorCountingSimple_init();\n        __GovernorVotes_init(_token);\n        __GovernorTimelockControl_init(_timelock);\n    }\n\n    function quorum(uint256 blockNumber) public pure override returns (uint256) {\n        return 100e18;\n    }\n\n    // The following functions are overrides required by Solidity.\n\n    function votingDelay()\n        public\n        view\n        override(IGovernorUpgradeable, GovernorSettingsUpgradeable)\n        returns (uint256)\n    {\n        return super.votingDelay();\n    }\n\n    function votingPeriod()\n        public\n        view\n        override(IGovernorUpgradeable, GovernorSettingsUpgradeable)\n        returns (uint256)\n    {\n        return super.votingPeriod();\n    }\n\n    function getVotes(address account, uint256 blockNumber)\n        public\n        view\n        override(IGovernorUpgradeable, GovernorVotesUpgradeable)\n        returns (uint256)\n    {\n        return super.getVotes(account, blockNumber);\n    }\n\n    function state(uint256 proposalId)\n        public\n        view\n        override(GovernorUpgradeable, GovernorTimelockControlUpgradeable)\n        returns (ProposalState)\n    {\n        return super.state(proposalId);\n    }\n\n    function propose(address[] memory targets, uint256[] memory values, bytes[] memory calldatas, string memory description)\n        public\n        override(GovernorUpgradeable, IGovernorUpgradeable)\n        returns (uint256)\n    {\n        return super.propose(targets, values, calldatas, description);\n    }\n\n    function proposalThreshold()\n        public\n        view\n        override(GovernorUpgradeable, GovernorSettingsUpgradeable)\n        returns (uint256)\n    {\n        return super.proposalThreshold();\n    }\n\n    function _execute(uint256 proposalId, address[] memory targets, uint256[] memory values, bytes[] memory calldatas, bytes32 descriptionHash)\n        internal\n        override(GovernorUpgradeable, GovernorTimelockControlUpgradeable)\n    {\n        super._execute(proposalId, targets, values, calldatas, descriptionHash);\n    }\n\n    function _cancel(address[] memory targets, uint256[] memory values, bytes[] memory calldatas, bytes32 descriptionHash)\n        internal\n        override(GovernorUpgradeable, GovernorTimelockControlUpgradeable)\n        returns (uint256)\n    {\n        return super._cancel(targets, values, calldatas, descriptionHash);\n    }\n\n    function _executor()\n        internal\n        view\n        override(GovernorUpgradeable, GovernorTimelockControlUpgradeable)\n        returns (address)\n    {\n        return super._executor();\n    }\n\n    function supportsInterface(bytes4 interfaceId)\n        public\n        view\n        override(GovernorUpgradeable, GovernorTimelockControlUpgradeable)\n        returns (bool)\n    {\n        return super.supportsInterface(interfaceId);\n    }\n}\n",
  "sourcePath": "/Users/matthewrodgers/Desktop/Eudaimonia/githubfiles/contracts/ClimateDAO.sol",
  "compiler": {
    "name": "solc",
    "version": "0.8.4+commit.c7e474f2.Emscripten.clang"
  },
  "schemaVersion": "3.2.3",
  "updatedAt": "2021-12-25T03:30:37.010Z",
  "devdoc": {
    "kind": "dev",
    "methods": {
      "COUNTING_MODE()": {
        "details": "See {IGovernor-COUNTING_MODE}."
      },
      "castVote(uint256,uint8)": {
        "details": "See {IGovernor-castVote}."
      },
      "castVoteBySig(uint256,uint8,uint8,bytes32,bytes32)": {
        "details": "See {IGovernor-castVoteBySig}."
      },
      "castVoteWithReason(uint256,uint8,string)": {
        "details": "See {IGovernor-castVoteWithReason}."
      },
      "constructor": {
        "custom:oz-upgrades-unsafe-allow": "constructor"
      },
      "execute(address[],uint256[],bytes[],bytes32)": {
        "details": "See {IGovernor-execute}."
      },
      "hasVoted(uint256,address)": {
        "details": "See {IGovernor-hasVoted}."
      },
      "hashProposal(address[],uint256[],bytes[],bytes32)": {
        "details": "See {IGovernor-hashProposal}. The proposal id is produced by hashing the RLC encoded `targets` array, the `values` array, the `calldatas` array and the descriptionHash (bytes32 which itself is the keccak256 hash of the description string). This proposal id can be produced from the proposal data which is part of the {ProposalCreated} event. It can even be computed in advance, before the proposal is submitted. Note that the chainId and the governor address are not part of the proposal id computation. Consequently, the same proposal (with same operation and same description) will have the same id if submitted on multiple governors accross multiple networks. This also means that in order to execute the same operation twice (on the same governor) the proposer will have to change the description in order to avoid proposal id conflicts."
      },
      "name()": {
        "details": "See {IGovernor-name}."
      },
      "proposalDeadline(uint256)": {
        "details": "See {IGovernor-proposalDeadline}."
      },
      "proposalEta(uint256)": {
        "details": "Public accessor to check the eta of a queued proposal"
      },
      "proposalSnapshot(uint256)": {
        "details": "See {IGovernor-proposalSnapshot}."
      },
      "proposalVotes(uint256)": {
        "details": "Accessor to the internal vote counts."
      },
      "queue(address[],uint256[],bytes[],bytes32)": {
        "details": "Function to queue a proposal to the timelock."
      },
      "quorum(uint256)": {
        "details": "Minimum number of cast voted required for a proposal to be successful. Note: The `blockNumber` parameter corresponds to the snaphot used for counting vote. This allows to scale the quroum depending on values such as the totalSupply of a token at this block (see {ERC20Votes})."
      },
      "setProposalThreshold(uint256)": {
        "details": "Update the proposal threshold. This operation can only be performed through a governance proposal. Emits a {ProposalThresholdSet} event."
      },
      "setVotingDelay(uint256)": {
        "details": "Update the voting delay. This operation can only be performed through a governance proposal. Emits a {VotingDelaySet} event."
      },
      "setVotingPeriod(uint256)": {
        "details": "Update the voting period. This operation can only be performed through a governance proposal. Emits a {VotingPeriodSet} event."
      },
      "timelock()": {
        "details": "Public accessor to check the address of the timelock"
      },
      "updateTimelock(address)": {
        "details": "Public endpoint to update the underlying timelock instance. Restricted to the timelock itself, so updates must be proposed, scheduled and executed using the {Governor} workflow."
      },
      "version()": {
        "details": "See {IGovernor-version}."
      }
    },
    "version": 1
  },
  "userdoc": {
    "kind": "user",
    "methods": {
      "quorum(uint256)": {
        "notice": "module:user-config"
      }
    },
    "version": 1
  }
}