{
  "contractName": "Earth",
  "abi": [
    {
      "inputs": [],
      "stateMutability": "nonpayable",
      "type": "constructor"
    },
    {
      "anonymous": false,
      "inputs": [
        {
          "indexed": true,
          "internalType": "address",
          "name": "owner",
          "type": "address"
        },
        {
          "indexed": true,
          "internalType": "address",
          "name": "spender",
          "type": "address"
        },
        {
          "indexed": false,
          "internalType": "uint256",
          "name": "value",
          "type": "uint256"
        }
      ],
      "name": "Approval",
      "type": "event"
    },
    {
      "anonymous": false,
      "inputs": [
        {
          "indexed": true,
          "internalType": "address",
          "name": "delegator",
          "type": "address"
        },
        {
          "indexed": true,
          "internalType": "address",
          "name": "fromDelegate",
          "type": "address"
        },
        {
          "indexed": true,
          "internalType": "address",
          "name": "toDelegate",
          "type": "address"
        }
      ],
      "name": "DelegateChanged",
      "type": "event"
    },
    {
      "anonymous": false,
      "inputs": [
        {
          "indexed": true,
          "internalType": "address",
          "name": "delegate",
          "type": "address"
        },
        {
          "indexed": false,
          "internalType": "uint256",
          "name": "previousBalance",
          "type": "uint256"
        },
        {
          "indexed": false,
          "internalType": "uint256",
          "name": "newBalance",
          "type": "uint256"
        }
      ],
      "name": "DelegateVotesChanged",
      "type": "event"
    },
    {
      "anonymous": false,
      "inputs": [
        {
          "indexed": true,
          "internalType": "address",
          "name": "previousOwner",
          "type": "address"
        },
        {
          "indexed": true,
          "internalType": "address",
          "name": "newOwner",
          "type": "address"
        }
      ],
      "name": "OwnershipTransferred",
      "type": "event"
    },
    {
      "anonymous": false,
      "inputs": [
        {
          "indexed": true,
          "internalType": "address",
          "name": "from",
          "type": "address"
        },
        {
          "indexed": true,
          "internalType": "address",
          "name": "to",
          "type": "address"
        },
        {
          "indexed": false,
          "internalType": "uint256",
          "name": "value",
          "type": "uint256"
        }
      ],
      "name": "Transfer",
      "type": "event"
    },
    {
      "inputs": [],
      "name": "DOMAIN_SEPARATOR",
      "outputs": [
        {
          "internalType": "bytes32",
          "name": "",
          "type": "bytes32"
        }
      ],
      "stateMutability": "view",
      "type": "function"
    },
    {
      "inputs": [],
      "name": "_expiry",
      "outputs": [
        {
          "internalType": "uint256",
          "name": "",
          "type": "uint256"
        }
      ],
      "stateMutability": "view",
      "type": "function"
    },
    {
      "inputs": [],
      "name": "_initialTaxFee",
      "outputs": [
        {
          "internalType": "uint256",
          "name": "",
          "type": "uint256"
        }
      ],
      "stateMutability": "view",
      "type": "function"
    },
    {
      "inputs": [
        {
          "internalType": "address",
          "name": "owner",
          "type": "address"
        },
        {
          "internalType": "address",
          "name": "spender",
          "type": "address"
        }
      ],
      "name": "allowance",
      "outputs": [
        {
          "internalType": "uint256",
          "name": "",
          "type": "uint256"
        }
      ],
      "stateMutability": "view",
      "type": "function"
    },
    {
      "inputs": [
        {
          "internalType": "address",
          "name": "spender",
          "type": "address"
        },
        {
          "internalType": "uint256",
          "name": "amount",
          "type": "uint256"
        }
      ],
      "name": "approve",
      "outputs": [
        {
          "internalType": "bool",
          "name": "",
          "type": "bool"
        }
      ],
      "stateMutability": "nonpayable",
      "type": "function"
    },
    {
      "inputs": [
        {
          "internalType": "address",
          "name": "account",
          "type": "address"
        }
      ],
      "name": "balanceOf",
      "outputs": [
        {
          "internalType": "uint256",
          "name": "",
          "type": "uint256"
        }
      ],
      "stateMutability": "view",
      "type": "function"
    },
    {
      "inputs": [
        {
          "internalType": "address",
          "name": "account",
          "type": "address"
        },
        {
          "internalType": "uint32",
          "name": "pos",
          "type": "uint32"
        }
      ],
      "name": "checkpoints",
      "outputs": [
        {
          "components": [
            {
              "internalType": "uint32",
              "name": "fromBlock",
              "type": "uint32"
            },
            {
              "internalType": "uint224",
              "name": "votes",
              "type": "uint224"
            }
          ],
          "internalType": "struct ERC20Votes.Checkpoint",
          "name": "",
          "type": "tuple"
        }
      ],
      "stateMutability": "view",
      "type": "function"
    },
    {
      "inputs": [],
      "name": "decimals",
      "outputs": [
        {
          "internalType": "uint8",
          "name": "",
          "type": "uint8"
        }
      ],
      "stateMutability": "view",
      "type": "function"
    },
    {
      "inputs": [
        {
          "internalType": "address",
          "name": "spender",
          "type": "address"
        },
        {
          "internalType": "uint256",
          "name": "subtractedValue",
          "type": "uint256"
        }
      ],
      "name": "decreaseAllowance",
      "outputs": [
        {
          "internalType": "bool",
          "name": "",
          "type": "bool"
        }
      ],
      "stateMutability": "nonpayable",
      "type": "function"
    },
    {
      "inputs": [
        {
          "internalType": "address",
          "name": "delegatee",
          "type": "address"
        }
      ],
      "name": "delegate",
      "outputs": [],
      "stateMutability": "nonpayable",
      "type": "function"
    },
    {
      "inputs": [
        {
          "internalType": "address",
          "name": "delegatee",
          "type": "address"
        },
        {
          "internalType": "uint256",
          "name": "nonce",
          "type": "uint256"
        },
        {
          "internalType": "uint256",
          "name": "expiry",
          "type": "uint256"
        },
        {
          "internalType": "uint8",
          "name": "v",
          "type": "uint8"
        },
        {
          "internalType": "bytes32",
          "name": "r",
          "type": "bytes32"
        },
        {
          "internalType": "bytes32",
          "name": "s",
          "type": "bytes32"
        }
      ],
      "name": "delegateBySig",
      "outputs": [],
      "stateMutability": "nonpayable",
      "type": "function"
    },
    {
      "inputs": [
        {
          "internalType": "address",
          "name": "account",
          "type": "address"
        }
      ],
      "name": "delegates",
      "outputs": [
        {
          "internalType": "address",
          "name": "",
          "type": "address"
        }
      ],
      "stateMutability": "view",
      "type": "function"
    },
    {
      "inputs": [
        {
          "internalType": "uint256",
          "name": "blockNumber",
          "type": "uint256"
        }
      ],
      "name": "getPastTotalSupply",
      "outputs": [
        {
          "internalType": "uint256",
          "name": "",
          "type": "uint256"
        }
      ],
      "stateMutability": "view",
      "type": "function"
    },
    {
      "inputs": [
        {
          "internalType": "address",
          "name": "account",
          "type": "address"
        },
        {
          "internalType": "uint256",
          "name": "blockNumber",
          "type": "uint256"
        }
      ],
      "name": "getPastVotes",
      "outputs": [
        {
          "internalType": "uint256",
          "name": "",
          "type": "uint256"
        }
      ],
      "stateMutability": "view",
      "type": "function"
    },
    {
      "inputs": [
        {
          "internalType": "address",
          "name": "account",
          "type": "address"
        }
      ],
      "name": "getVotes",
      "outputs": [
        {
          "internalType": "uint256",
          "name": "",
          "type": "uint256"
        }
      ],
      "stateMutability": "view",
      "type": "function"
    },
    {
      "inputs": [
        {
          "internalType": "address",
          "name": "spender",
          "type": "address"
        },
        {
          "internalType": "uint256",
          "name": "addedValue",
          "type": "uint256"
        }
      ],
      "name": "increaseAllowance",
      "outputs": [
        {
          "internalType": "bool",
          "name": "",
          "type": "bool"
        }
      ],
      "stateMutability": "nonpayable",
      "type": "function"
    },
    {
      "inputs": [],
      "name": "name",
      "outputs": [
        {
          "internalType": "string",
          "name": "",
          "type": "string"
        }
      ],
      "stateMutability": "view",
      "type": "function"
    },
    {
      "inputs": [
        {
          "internalType": "address",
          "name": "owner",
          "type": "address"
        }
      ],
      "name": "nonces",
      "outputs": [
        {
          "internalType": "uint256",
          "name": "",
          "type": "uint256"
        }
      ],
      "stateMutability": "view",
      "type": "function"
    },
    {
      "inputs": [
        {
          "internalType": "address",
          "name": "account",
          "type": "address"
        }
      ],
      "name": "numCheckpoints",
      "outputs": [
        {
          "internalType": "uint32",
          "name": "",
          "type": "uint32"
        }
      ],
      "stateMutability": "view",
      "type": "function"
    },
    {
      "inputs": [],
      "name": "owner",
      "outputs": [
        {
          "internalType": "address",
          "name": "",
          "type": "address"
        }
      ],
      "stateMutability": "view",
      "type": "function"
    },
    {
      "inputs": [
        {
          "internalType": "address",
          "name": "owner",
          "type": "address"
        },
        {
          "internalType": "address",
          "name": "spender",
          "type": "address"
        },
        {
          "internalType": "uint256",
          "name": "value",
          "type": "uint256"
        },
        {
          "internalType": "uint256",
          "name": "deadline",
          "type": "uint256"
        },
        {
          "internalType": "uint8",
          "name": "v",
          "type": "uint8"
        },
        {
          "internalType": "bytes32",
          "name": "r",
          "type": "bytes32"
        },
        {
          "internalType": "bytes32",
          "name": "s",
          "type": "bytes32"
        }
      ],
      "name": "permit",
      "outputs": [],
      "stateMutability": "nonpayable",
      "type": "function"
    },
    {
      "inputs": [],
      "name": "renounceOwnership",
      "outputs": [],
      "stateMutability": "nonpayable",
      "type": "function"
    },
    {
      "inputs": [],
      "name": "symbol",
      "outputs": [
        {
          "internalType": "string",
          "name": "",
          "type": "string"
        }
      ],
      "stateMutability": "view",
      "type": "function"
    },
    {
      "inputs": [],
      "name": "totalSupply",
      "outputs": [
        {
          "internalType": "uint256",
          "name": "",
          "type": "uint256"
        }
      ],
      "stateMutability": "view",
      "type": "function"
    },
    {
      "inputs": [
        {
          "internalType": "address",
          "name": "sender",
          "type": "address"
        },
        {
          "internalType": "address",
          "name": "recipient",
          "type": "address"
        },
        {
          "internalType": "uint256",
          "name": "amount",
          "type": "uint256"
        }
      ],
      "name": "transferFrom",
      "outputs": [
        {
          "internalType": "bool",
          "name": "",
          "type": "bool"
        }
      ],
      "stateMutability": "nonpayable",
      "type": "function"
    },
    {
      "inputs": [
        {
          "internalType": "address",
          "name": "newOwner",
          "type": "address"
        }
      ],
      "name": "transferOwnership",
      "outputs": [],
      "stateMutability": "nonpayable",
      "type": "function"
    },
    {
      "inputs": [
        {
          "internalType": "address",
          "name": "to",
          "type": "address"
        },
        {
          "internalType": "uint256",
          "name": "amount",
          "type": "uint256"
        }
      ],
      "name": "mint",
      "outputs": [],
      "stateMutability": "nonpayable",
      "type": "function"
    },
    {
      "inputs": [
        {
          "internalType": "address",
          "name": "recipient",
          "type": "address"
        },
        {
          "internalType": "uint256",
          "name": "amount",
          "type": "uint256"
        }
      ],
      "name": "transfer",
      "outputs": [
        {
          "internalType": "bool",
          "name": "",
          "type": "bool"
        }
      ],
      "stateMutability": "nonpayable",
      "type": "function"
    },
    {
      "inputs": [
        {
          "internalType": "uint256",
          "name": "initialTaxFee",
          "type": "uint256"
        }
      ],
      "name": "setInitialTaxFee",
      "outputs": [],
      "stateMutability": "nonpayable",
      "type": "function"
    }
  ],
  "bytecode": "0x6101606040527f6e71edae12b1b97f4d1f60370fef10105fa2faae0126114a169c64845d6126c961014052600f600a819055600b81905562f0c8a0600c5580547320c7f2a24f33cf4f02d2d185e49ac7b1c975d37f6001600160a01b031991821681179092556010805490911690911790553480156200007e57600080fd5b506040518060400160405280600581526020016408ac2e4e8d60db1b81525080604051806040016040528060018152602001603160f81b8152506040518060400160405280600581526020016408ac2e4e8d60db1b8152506040518060400160405280600581526020016408a82a4a8960db1b81525081600390805190602001906200010c92919062000888565b5080516200012290600490602084019062000888565b5050506200013f620001396200020e60201b60201c565b62000212565b815160208084019190912082518383012060e08290526101008190524660a0818152604080517f8b73c3c69bb8fe3d512ecc4cf759cc79239f7b179b0ffacaa9a75d522b39400f81880181905281830187905260608201869052608082019490945230818401528151808203909301835260c00190528051940193909320919290916080523060601b60c0526101205250620002089350339250620001e5915050601290565b620001f290600a62000988565b62000202906305f5e10062000a47565b62000264565b62000ad6565b3390565b600580546001600160a01b038381166001600160a01b0319831681179093556040519116919082907f8be0079c531659141344cd1fd0a4f28419497f9722a3daafe3b4186f6b6457e090600090a35050565b6200027b82826200027f60201b62000d4c1760201c565b5050565b6200029682826200033660201b62000ddc1760201c565b6001600160e01b03620002aa620004258216565b1115620003175760405162461bcd60e51b815260206004820152603060248201527f4552433230566f7465733a20746f74616c20737570706c79207269736b73206f60448201526f766572666c6f77696e6720766f74657360801b60648201526084015b60405180910390fd5b62000330600962000ec36200042b60201b178362000442565b50505050565b6001600160a01b0382166200038e5760405162461bcd60e51b815260206004820152601f60248201527f45524332303a206d696e7420746f20746865207a65726f20616464726573730060448201526064016200030e565b8060026000828254620003a2919062000924565b90915550506001600160a01b03821660009081526020819052604081208054839290620003d190849062000924565b90915550506040518181526001600160a01b038316906000907fddf252ad1be2c89b69c2b068fc378daa952ba7f163c4a11628f55a4df523b3ef9060200160405180910390a36200027b600083836200061d565b60025490565b600062000439828462000924565b90505b92915050565b825460009081908015620004a057856200045e60018362000a69565b815481106200047d57634e487b7160e01b600052603260045260246000fd5b60009182526020909120015464010000000090046001600160e01b0316620004a3565b60005b6001600160e01b03169250620004ba83858760201c565b91506000811180156200050a57504386620004d760018462000a69565b81548110620004f657634e487b7160e01b600052603260045260246000fd5b60009182526020909120015463ffffffff16145b156200058a5762000526826200063560201b62000ecf1760201c565b866200053460018462000a69565b815481106200055357634e487b7160e01b600052603260045260246000fd5b9060005260206000200160000160046101000a8154816001600160e01b0302191690836001600160e01b031602179055506200060f565b856040518060400160405280620005ac43620006a460201b62000f3c1760201c565b63ffffffff168152602001620005cd856200063560201b62000ecf1760201c565b6001600160e01b0390811690915282546001810184556000938452602093849020835194909301519091166401000000000263ffffffff909316929092179101555b50935093915050565b505050565b620006188383836200070b60201b62000fa11760201c565b60006001600160e01b03821115620006a05760405162461bcd60e51b815260206004820152602760248201527f53616665436173743a2076616c756520646f65736e27742066697420696e20326044820152663234206269747360c81b60648201526084016200030e565b5090565b600063ffffffff821115620006a05760405162461bcd60e51b815260206004820152602660248201527f53616665436173743a2076616c756520646f65736e27742066697420696e203360448201526532206269747360d01b60648201526084016200030e565b620007238383836200061860201b62000fd31760201c565b6001600160a01b038381166000908152600760205260408082205485841683529120546200061892918216911683818314801590620007625750600081115b1562000618576001600160a01b03831615620007ef576001600160a01b038316600090815260086020908152604082208291620007ac91906200087a901b62000fd8178562000442565b91509150846001600160a01b031660008051602062002c8a8339815191528383604051620007e4929190918252602082015260400190565b60405180910390a250505b6001600160a01b0382161562000618576001600160a01b0382166000908152600860209081526040822082916200083391906200042b901b62000ec3178562000442565b91509150836001600160a01b031660008051602062002c8a83398151915283836040516200086b929190918252602082015260400190565b60405180910390a25050505050565b600062000439828462000a69565b828054620008969062000a83565b90600052602060002090601f016020900481019282620008ba576000855562000905565b82601f10620008d557805160ff191683800117855562000905565b8280016001018555821562000905579182015b8281111562000905578251825591602001919060010190620008e8565b50620006a09291505b80821115620006a057600081556001016200090e565b600082198211156200093a576200093a62000ac0565b500190565b600181815b808511156200098057816000190482111562000964576200096462000ac0565b808516156200097257918102915b93841c939080029062000944565b509250929050565b60006200043960ff841683600082620009a4575060016200043c565b81620009b3575060006200043c565b8160018114620009cc5760028114620009d757620009f7565b60019150506200043c565b60ff841115620009eb57620009eb62000ac0565b50506001821b6200043c565b5060208310610133831016604e8410600b841016171562000a1c575081810a6200043c565b62000a2883836200093f565b806000190482111562000a3f5762000a3f62000ac0565b029392505050565b600081600019048311821515161562000a645762000a6462000ac0565b500290565b60008282101562000a7e5762000a7e62000ac0565b500390565b600181811c9082168062000a9857607f821691505b6020821081141562000aba57634e487b7160e01b600052602260045260246000fd5b50919050565b634e487b7160e01b600052601160045260246000fd5b60805160a05160c05160601c60e05161010051610120516101405161215662000b346000396000610b1201526000611366015260006113b501526000611390015260006112e9015260006113130152600061133d01526121566000f3fe608060405234801561001057600080fd5b50600436106101cf5760003560e01c8063715018a611610104578063a457c2d7116100a2578063d505accf11610071578063d505accf146103ec578063dd62ed3e146103ff578063f1127ed814610438578063f2fde38b1461047557600080fd5b8063a457c2d7146103aa578063a9059cbb146103bd578063c3cda520146103d0578063c5ec8970146103e357600080fd5b80638e539e8c116100de5780638e539e8c1461037357806393251f0b1461038657806395d89b411461038f5780639ab24eb01461039757600080fd5b8063715018a6146103475780637ecebe001461034f5780638da5cb5b1461036257600080fd5b80633950935111610171578063587cde1e1161014b578063587cde1e1461029f5780635c19a95c146102e35780636fcfff45146102f657806370a082311461031e57600080fd5b806339509351146102665780633a46b1a81461027957806340c10f191461028c57600080fd5b806318160ddd116101ad57806318160ddd1461022a57806323b872dd1461023c578063313ce5671461024f5780633644e5151461025e57600080fd5b806306fdde03146101d4578063095ea7b3146101f2578063139fcfed14610215575b600080fd5b6101dc610488565b6040516101e99190611fdf565b60405180910390f35b610205610200366004611f09565b61051a565b60405190151581526020016101e9565b610228610223366004611fc7565b610530565b005b6002545b6040519081526020016101e9565b61020561024a366004611e65565b610568565b604051601281526020016101e9565b61022e610612565b610205610274366004611f09565b610621565b61022e610287366004611f09565b61065d565b61022861029a366004611f09565b6106d7565b6102cb6102ad366004611e19565b6001600160a01b039081166000908152600760205260409020541690565b6040516001600160a01b0390911681526020016101e9565b6102286102f1366004611e19565b61070f565b610309610304366004611e19565b61071c565b60405163ffffffff90911681526020016101e9565b61022e61032c366004611e19565b6001600160a01b031660009081526020819052604090205490565b610228610744565b61022e61035d366004611e19565b61077a565b6005546001600160a01b03166102cb565b61022e610381366004611fc7565b610798565b61022e600a5481565b6101dc6107f4565b61022e6103a5366004611e19565b610803565b6102056103b8366004611f09565b610898565b6102056103cb366004611f09565b610931565b6102286103de366004611f32565b610988565b61022e600c5481565b6102286103fa366004611ea0565b610abe565b61022e61040d366004611e33565b6001600160a01b03918216600090815260016020908152604080832093909416825291909152205490565b61044b610446366004611f89565b610c22565b60408051825163ffffffff1681526020928301516001600160e01b031692810192909252016101e9565b610228610483366004611e19565b610cb4565b606060038054610497906120d5565b80601f01602080910402602001604051908101604052809291908181526020018280546104c3906120d5565b80156105105780601f106104e557610100808354040283529160200191610510565b820191906000526020600020905b8154815290600101906020018083116104f357829003601f168201915b5050505050905090565b6000610527338484610fe4565b50600192915050565b6005546001600160a01b031633146105635760405162461bcd60e51b815260040161055a90612032565b60405180910390fd5b600a55565b6000610575848484611108565b6001600160a01b0384166000908152600160209081526040808320338452909152902054828110156105fa5760405162461bcd60e51b815260206004820152602860248201527f45524332303a207472616e7366657220616d6f756e74206578636565647320616044820152676c6c6f77616e636560c01b606482015260840161055a565b6106078533858403610fe4565b506001949350505050565b600061061c6112dc565b905090565b3360008181526001602090815260408083206001600160a01b03871684529091528120549091610527918590610658908690612067565b610fe4565b60004382106106ae5760405162461bcd60e51b815260206004820152601f60248201527f4552433230566f7465733a20626c6f636b206e6f7420796574206d696e656400604482015260640161055a565b6001600160a01b03831660009081526008602052604090206106d09083611403565b9392505050565b6005546001600160a01b031633146107015760405162461bcd60e51b815260040161055a90612032565b61070b82826114dc565b5050565b61071933826114e6565b50565b6001600160a01b03811660009081526008602052604081205461073e90610f3c565b92915050565b6005546001600160a01b0316331461076e5760405162461bcd60e51b815260040161055a90612032565b610778600061155f565b565b6001600160a01b03811660009081526006602052604081205461073e565b60004382106107e95760405162461bcd60e51b815260206004820152601f60248201527f4552433230566f7465733a20626c6f636b206e6f7420796574206d696e656400604482015260640161055a565b61073e600983611403565b606060048054610497906120d5565b6001600160a01b0381166000908152600860205260408120548015610885576001600160a01b03831660009081526008602052604090206108456001836120be565b8154811061086357634e487b7160e01b600052603260045260246000fd5b60009182526020909120015464010000000090046001600160e01b0316610888565b60005b6001600160e01b03169392505050565b3360009081526001602090815260408083206001600160a01b03861684529091528120548281101561091a5760405162461bcd60e51b815260206004820152602560248201527f45524332303a2064656372656173656420616c6c6f77616e63652062656c6f77604482015264207a65726f60d81b606482015260840161055a565b6109273385858403610fe4565b5060019392505050565b336000908152600e602052604081205460ff16156109595761095383836115b1565b50610527565b600080610965846115be565b91509150610972826116cb565b61097c85826115b1565b50505050600192915050565b834211156109d85760405162461bcd60e51b815260206004820152601d60248201527f4552433230566f7465733a207369676e61747572652065787069726564000000604482015260640161055a565b604080517fe48329057bfd03d55e49b547132e39cffd9c1820ad7b9d4c5307691425d15adf60208201526001600160a01b038816918101919091526060810186905260808101859052600090610a5290610a4a9060a00160405160208183030381529060405280519060200120611742565b858585611790565b9050610a5d816117b8565b8614610aab5760405162461bcd60e51b815260206004820152601960248201527f4552433230566f7465733a20696e76616c6964206e6f6e636500000000000000604482015260640161055a565b610ab581886114e6565b50505050505050565b83421115610b0e5760405162461bcd60e51b815260206004820152601d60248201527f45524332305065726d69743a206578706972656420646561646c696e65000000604482015260640161055a565b60007f0000000000000000000000000000000000000000000000000000000000000000888888610b3d8c6117b8565b6040805160208101969096526001600160a01b0394851690860152929091166060840152608083015260a082015260c0810186905260e0016040516020818303038152906040528051906020012090506000610b9882611742565b90506000610ba882878787611790565b9050896001600160a01b0316816001600160a01b031614610c0b5760405162461bcd60e51b815260206004820152601e60248201527f45524332305065726d69743a20696e76616c6964207369676e61747572650000604482015260640161055a565b610c168a8a8a610fe4565b50505050505050505050565b60408051808201909152600080825260208201526001600160a01b0383166000908152600860205260409020805463ffffffff8416908110610c7457634e487b7160e01b600052603260045260246000fd5b60009182526020918290206040805180820190915291015463ffffffff8116825264010000000090046001600160e01b0316918101919091529392505050565b6005546001600160a01b03163314610cde5760405162461bcd60e51b815260040161055a90612032565b6001600160a01b038116610d435760405162461bcd60e51b815260206004820152602660248201527f4f776e61626c653a206e6577206f776e657220697320746865207a65726f206160448201526564647265737360d01b606482015260840161055a565b6107198161155f565b610d568282610ddc565b6002546001600160e01b031015610dc85760405162461bcd60e51b815260206004820152603060248201527f4552433230566f7465733a20746f74616c20737570706c79207269736b73206f60448201526f766572666c6f77696e6720766f74657360801b606482015260840161055a565b610dd66009610ec3836117e0565b50505050565b6001600160a01b038216610e325760405162461bcd60e51b815260206004820152601f60248201527f45524332303a206d696e7420746f20746865207a65726f206164647265737300604482015260640161055a565b8060026000828254610e449190612067565b90915550506001600160a01b03821660009081526020819052604081208054839290610e71908490612067565b90915550506040518181526001600160a01b038316906000907fddf252ad1be2c89b69c2b068fc378daa952ba7f163c4a11628f55a4df523b3ef9060200160405180910390a361070b60008383611983565b60006106d08284612067565b60006001600160e01b03821115610f385760405162461bcd60e51b815260206004820152602760248201527f53616665436173743a2076616c756520646f65736e27742066697420696e20326044820152663234206269747360c81b606482015260840161055a565b5090565b600063ffffffff821115610f385760405162461bcd60e51b815260206004820152602660248201527f53616665436173743a2076616c756520646f65736e27742066697420696e203360448201526532206269747360d01b606482015260840161055a565b6001600160a01b03838116600090815260076020526040808220548584168352912054610fd39291821691168361198e565b505050565b60006106d082846120be565b6001600160a01b0383166110465760405162461bcd60e51b8152602060048201526024808201527f45524332303a20617070726f76652066726f6d20746865207a65726f206164646044820152637265737360e01b606482015260840161055a565b6001600160a01b0382166110a75760405162461bcd60e51b815260206004820152602260248201527f45524332303a20617070726f766520746f20746865207a65726f206164647265604482015261737360f01b606482015260840161055a565b6001600160a01b0383811660008181526001602090815260408083209487168084529482529182902085905590518481527f8c5be1e5ebec7d5bd14f71427d1e84f3dd0314c0f7b2291e5b200ac8c7c3b925910160405180910390a3505050565b6001600160a01b03831661116c5760405162461bcd60e51b815260206004820152602560248201527f45524332303a207472616e736665722066726f6d20746865207a65726f206164604482015264647265737360d81b606482015260840161055a565b6001600160a01b0382166111ce5760405162461bcd60e51b815260206004820152602360248201527f45524332303a207472616e7366657220746f20746865207a65726f206164647260448201526265737360e81b606482015260840161055a565b6001600160a01b038316600090815260208190526040902054818110156112465760405162461bcd60e51b815260206004820152602660248201527f45524332303a207472616e7366657220616d6f756e7420657863656564732062604482015265616c616e636560d01b606482015260840161055a565b6001600160a01b0380851660009081526020819052604080822085850390559185168152908120805484929061127d908490612067565b92505081905550826001600160a01b0316846001600160a01b03167fddf252ad1be2c89b69c2b068fc378daa952ba7f163c4a11628f55a4df523b3ef846040516112c991815260200190565b60405180910390a3610dd6848484611983565b6000306001600160a01b037f00000000000000000000000000000000000000000000000000000000000000001614801561133557507f000000000000000000000000000000000000000000000000000000000000000046145b1561135f57507f000000000000000000000000000000000000000000000000000000000000000090565b50604080517f00000000000000000000000000000000000000000000000000000000000000006020808301919091527f0000000000000000000000000000000000000000000000000000000000000000828401527f000000000000000000000000000000000000000000000000000000000000000060608301524660808301523060a0808401919091528351808403909101815260c0909201909252805191012090565b8154600090815b8181101561147557600061141e8284611acb565b90508486828154811061144157634e487b7160e01b600052603260045260246000fd5b60009182526020909120015463ffffffff1611156114615780925061146f565b61146c816001612067565b91505b5061140a565b81156114c757846114876001846120be565b815481106114a557634e487b7160e01b600052603260045260246000fd5b60009182526020909120015464010000000090046001600160e01b03166114ca565b60005b6001600160e01b031695945050505050565b61070b8282610d4c565b6001600160a01b038281166000818152600760208181526040808420805485845282862054949093528787166001600160a01b03198416811790915590519190951694919391928592917f3134e8a2e6d97e929a7e54011ea5485d7d196dd5f0ba4d4ef95803e8e3fc257f9190a4610dd682848361198e565b600580546001600160a01b038381166001600160a01b0319831681179093556040519116919082907f8be0079c531659141344cd1fd0a4f28419497f9722a3daafe3b4186f6b6457e090600090a35050565b6000610527338484611108565b600080600083116116115760405162461bcd60e51b815260206004820152601f60248201527f4d757374207472616e736665722061206e6f6e2d7a65726f20616d6f756e7400604482015260640161055a565b336000908152600e602052604090205460ff168061162f5750600a54155b1561163c57506000929050565b336000908152600d60205260408120549061165782426120be565b9050600c54811061166c575060009492505050565b600061168d61168683600c54610fd890919063ffffffff16565b8790611ae6565b905060006116a8600a54600c54611ae690919063ffffffff16565b90506116b48282611af2565b95506116c08787610fd8565b945050505050915091565b606460006116e4826116de85603c611ae6565b90611af2565b905060006116f7836116de866014611ae6565b9050600061170a846116de876014611ae6565b600f54909150611723906001600160a01b031683610931565b5060105461173a906001600160a01b031682610931565b505050505050565b600061073e61174f6112dc565b8360405161190160f01b6020820152602281018390526042810182905260009060620160405160208183030381529060405280519060200120905092915050565b60008060006117a187878787611afe565b915091506117ae81611beb565b5095945050505050565b6001600160a01b03811660009081526006602052604090208054600181018255905b50919050565b82546000908190801561183957856117f96001836120be565b8154811061181757634e487b7160e01b600052603260045260246000fd5b60009182526020909120015464010000000090046001600160e01b031661183c565b60005b6001600160e01b0316925061185583858763ffffffff16565b91506000811180156118a15750438661186f6001846120be565b8154811061188d57634e487b7160e01b600052603260045260246000fd5b60009182526020909120015463ffffffff16145b1561190f576118af82610ecf565b866118bb6001846120be565b815481106118d957634e487b7160e01b600052603260045260246000fd5b9060005260206000200160000160046101000a8154816001600160e01b0302191690836001600160e01b0316021790555061197a565b85604051806040016040528061192443610f3c565b63ffffffff16815260200161193885610ecf565b6001600160e01b0390811690915282546001810184556000938452602093849020835194909301519091166401000000000263ffffffff909316929092179101555b50935093915050565b610fd3838383610fa1565b816001600160a01b0316836001600160a01b0316141580156119b05750600081115b15610fd3576001600160a01b03831615611a3e576001600160a01b038316600090815260086020526040812081906119eb90610fd8856117e0565b91509150846001600160a01b03167fdec2bacdd2f05b59de34da9b523dff8be42e5e38e818c82fdb0bae774387a7248383604051611a33929190918252602082015260400190565b60405180910390a250505b6001600160a01b03821615610fd3576001600160a01b03821660009081526008602052604081208190611a7490610ec3856117e0565b91509150836001600160a01b03167fdec2bacdd2f05b59de34da9b523dff8be42e5e38e818c82fdb0bae774387a7248383604051611abc929190918252602082015260400190565b60405180910390a25050505050565b6000611ada600284841861207f565b6106d090848416612067565b60006106d0828461209f565b60006106d0828461207f565b6000807f7fffffffffffffffffffffffffffffff5d576e7357a4501ddfe92f46681b20a0831115611b355750600090506003611be2565b8460ff16601b14158015611b4d57508460ff16601c14155b15611b5e5750600090506004611be2565b6040805160008082526020820180845289905260ff881692820192909252606081018690526080810185905260019060a0016020604051602081039080840390855afa158015611bb2573d6000803e3d6000fd5b5050604051601f1901519150506001600160a01b038116611bdb57600060019250925050611be2565b9150600090505b94509492505050565b6000816004811115611c0d57634e487b7160e01b600052602160045260246000fd5b1415611c165750565b6001816004811115611c3857634e487b7160e01b600052602160045260246000fd5b1415611c865760405162461bcd60e51b815260206004820152601860248201527f45434453413a20696e76616c6964207369676e61747572650000000000000000604482015260640161055a565b6002816004811115611ca857634e487b7160e01b600052602160045260246000fd5b1415611cf65760405162461bcd60e51b815260206004820152601f60248201527f45434453413a20696e76616c6964207369676e6174757265206c656e67746800604482015260640161055a565b6003816004811115611d1857634e487b7160e01b600052602160045260246000fd5b1415611d715760405162461bcd60e51b815260206004820152602260248201527f45434453413a20696e76616c6964207369676e6174757265202773272076616c604482015261756560f01b606482015260840161055a565b6004816004811115611d9357634e487b7160e01b600052602160045260246000fd5b14156107195760405162461bcd60e51b815260206004820152602260248201527f45434453413a20696e76616c6964207369676e6174757265202776272076616c604482015261756560f01b606482015260840161055a565b80356001600160a01b0381168114611e0357600080fd5b919050565b803560ff81168114611e0357600080fd5b600060208284031215611e2a578081fd5b6106d082611dec565b60008060408385031215611e45578081fd5b611e4e83611dec565b9150611e5c60208401611dec565b90509250929050565b600080600060608486031215611e79578081fd5b611e8284611dec565b9250611e9060208501611dec565b9150604084013590509250925092565b600080600080600080600060e0888a031215611eba578283fd5b611ec388611dec565b9650611ed160208901611dec565b95506040880135945060608801359350611eed60808901611e08565b925060a0880135915060c0880135905092959891949750929550565b60008060408385031215611f1b578182fd5b611f2483611dec565b946020939093013593505050565b60008060008060008060c08789031215611f4a578182fd5b611f5387611dec565b95506020870135945060408701359350611f6f60608801611e08565b92506080870135915060a087013590509295509295509295565b60008060408385031215611f9b578182fd5b611fa483611dec565b9150602083013563ffffffff81168114611fbc578182fd5b809150509250929050565b600060208284031215611fd8578081fd5b5035919050565b6000602080835283518082850152825b8181101561200b57858101830151858201604001528201611fef565b8181111561201c5783604083870101525b50601f01601f1916929092016040019392505050565b6020808252818101527f4f776e61626c653a2063616c6c6572206973206e6f7420746865206f776e6572604082015260600190565b6000821982111561207a5761207a61210a565b500190565b60008261209a57634e487b7160e01b81526012600452602481fd5b500490565b60008160001904831182151516156120b9576120b961210a565b500290565b6000828210156120d0576120d061210a565b500390565b600181811c908216806120e957607f821691505b602082108114156117da57634e487b7160e01b600052602260045260246000fd5b634e487b7160e01b600052601160045260246000fdfea26469706673582212206e9123bf1763861d04246e831a3ec10a33737cb4d18c4e1dff762aefe5c024fe64736f6c63430008040033dec2bacdd2f05b59de34da9b523dff8be42e5e38e818c82fdb0bae774387a724",
  "immutableReferences": {
    "1427": [
      {
        "length": 32,
        "start": 2834
      }
    ],
    "2299": [
      {
        "length": 32,
        "start": 4925
      }
    ],
    "2301": [
      {
        "length": 32,
        "start": 4883
      }
    ],
    "2303": [
      {
        "length": 32,
        "start": 4841
      }
    ],
    "2305": [
      {
        "length": 32,
        "start": 5008
      }
    ],
    "2307": [
      {
        "length": 32,
        "start": 5045
      }
    ],
    "2309": [
      {
        "length": 32,
        "start": 4966
      }
    ]
  },
  "source": "// SPDX-License-Identifier: MIT\npragma solidity ^0.8.2;\n\nimport \"./@openzeppelin/contracts/token/ERC20/ERC20.sol\";\nimport \"./@openzeppelin/contracts/access/Ownable.sol\";\nimport \"./@openzeppelin/contracts/token/ERC20/extensions/draft-ERC20Permit.sol\";\nimport \"./@openzeppelin/contracts/token/ERC20/extensions/ERC20Votes.sol\";\nimport \"./@openzeppelin/contracts/utils/math/SafeMath.sol\";\n\ncontract Earth is ERC20, Ownable, ERC20Permit, ERC20Votes {\n    using SafeMath for uint256;\n\n    //Tx fees variables\n    uint256 public _initialTaxFee = 15; \n    uint256 private _previousInitialTaxFee = _initialTaxFee; \n    uint256 public _expiry = 15780000;\n    mapping (address => uint256) internal _lastTokenTransferTime;\n    mapping (address => bool) internal isExcludedFromFee;\n\n    //opsClimateDAOWallet for purposes of tx fee\n    address opsClimateDAOWallet = 0x20c7F2a24f33cF4F02D2D185e49aC7B1C975d37f; //Change this to our gnosis safe before deploying // \n    address treasuryClimateDAOWallet = 0x20c7F2a24f33cF4F02D2D185e49aC7B1C975d37f; //Change this to our gnosis safe before deploying\n    \n    constructor() ERC20(\"Earth\", \"EARTH\") ERC20Permit(\"Earth\") {\n        _mint(msg.sender, 100000000 * 10 ** decimals());\n    }\n\n    function mint(address to, uint256 amount) public onlyOwner {\n        _mint(to, amount);\n    }\n\n    // The following functions are overrides required by Solidity.\n\n    function _afterTokenTransfer(address from, address to, uint256 amount)\n        internal\n        override(ERC20, ERC20Votes)\n    {\n        super._afterTokenTransfer(from, to, amount);\n    }\n\n    function _mint(address to, uint256 amount)\n        internal\n        override(ERC20, ERC20Votes)\n    {\n        super._mint(to, amount);\n    }\n\n    function _burn(address account, uint256 amount)\n        internal\n        override(ERC20, ERC20Votes)\n    {\n        super._burn(account, amount);\n    }\n\n    function transfer(address recipient, uint256 amount) public \n    virtual \n    override(ERC20) \n    returns (bool)\n    {\n\n        if(isExcludedFromFee[msg.sender]) {\n            super.transfer(recipient, amount);\n        }\n        else {\n            //Calulate the feetaken and the new amount to be transferred;\n            (uint256 feeTaken, uint256 transferAmount) = _calculateTaxFee(amount);\n            //call the function to distribute the fees as described in the Whitepaper\n            _distributeFees(feeTaken);\n            super.transfer(recipient, transferAmount);\n        }\n        \n        return true;\n    }\n\n    // The following functions will pertain to the Transaction Fee\n\n    function setInitialTaxFee(uint256 initialTaxFee) external onlyOwner() {\n        _initialTaxFee = initialTaxFee; \n    }\n\n    // RH: \n    function _calculateTaxFee(uint256 amount) internal view returns (uint256 feeTaken, uint256 transferAmount) {\n        \n        /**\n         *  The actual calculation is: \n         *  \n         *  initialFee = amount / initialTax \n         *  taxFraction = (expiry - timeSince) / expiry\n         *  actualFee = initialFee * taxFraction \n         *  \n         *  To avoid decimal issues, it's best to multiply all the numerators first, then denominators\n         *  \n         *  feeNumerator = amount * (expiry - timeSince) \n         *  feeDenominator = expiry * initialTax            // Requires a non-zero initialTaxFee \n         *  actualFee = feeNumerator / feeDenominator \n         *  \n         */\n\n        require(amount > 0, \"Must transfer a non-zero amount\"); \n        \n        // QUESTION: is this what the mapping was intended for? \n        if(isExcludedFromFee[msg.sender] || _initialTaxFee == 0) {\n            return (0, amount); \n        }\n\n        uint256 lastTransferTime = _lastTokenTransferTime[msg.sender]; \n        uint256 timeSince = block.timestamp - lastTransferTime; \n\n        if(timeSince >= _expiry) {\n            return (0, amount); \n        }\n\n        uint256 feeNumerator = amount.mul(_expiry.sub(timeSince)); \n        uint256 feeDenominator = _expiry.mul(_initialTaxFee); \n        feeTaken = feeNumerator.div(feeDenominator); \n        transferAmount = amount.sub(feeTaken); \n\n        return (feeTaken, transferAmount); \n\n    }\n\n    function _distributeFees(uint256 fees) internal {\n\n        uint256 percentageConstant = 100;\n        //Fees as described in the Whitepaper, these add up to 100\n        uint256 liquidityPoolPortion = fees.mul(60).div(percentageConstant);\n        uint256 climateDaoOpsPortion = fees.mul(20).div(percentageConstant);\n        uint256 climateDaoTreasuryPortion = fees.mul(20).div(percentageConstant);\n\n        transfer(opsClimateDAOWallet, climateDaoOpsPortion);\n        transfer(treasuryClimateDAOWallet, climateDaoTreasuryPortion);\n        \n    }\n}\n",
  "sourcePath": "/Users/matthewrodgers/Desktop/Eudaimonia/githubfiles/contracts/earth/Earth.sol",
  "compiler": {
    "name": "solc",
    "version": "0.8.4+commit.c7e474f2.Emscripten.clang"
  },
  "schemaVersion": "3.4.4",
  "updatedAt": "2022-01-31T20:40:38.614Z",
  "devdoc": {
    "kind": "dev",
    "methods": {
      "DOMAIN_SEPARATOR()": {
        "details": "See {IERC20Permit-DOMAIN_SEPARATOR}."
      },
      "allowance(address,address)": {
        "details": "See {IERC20-allowance}."
      },
      "approve(address,uint256)": {
        "details": "See {IERC20-approve}. Requirements: - `spender` cannot be the zero address."
      },
      "balanceOf(address)": {
        "details": "See {IERC20-balanceOf}."
      },
      "checkpoints(address,uint32)": {
        "details": "Get the `pos`-th checkpoint for `account`."
      },
      "decimals()": {
        "details": "Returns the number of decimals used to get its user representation. For example, if `decimals` equals `2`, a balance of `505` tokens should be displayed to a user as `5.05` (`505 / 10 ** 2`). Tokens usually opt for a value of 18, imitating the relationship between Ether and Wei. This is the value {ERC20} uses, unless this function is overridden; NOTE: This information is only used for _display_ purposes: it in no way affects any of the arithmetic of the contract, including {IERC20-balanceOf} and {IERC20-transfer}."
      },
      "decreaseAllowance(address,uint256)": {
        "details": "Atomically decreases the allowance granted to `spender` by the caller. This is an alternative to {approve} that can be used as a mitigation for problems described in {IERC20-approve}. Emits an {Approval} event indicating the updated allowance. Requirements: - `spender` cannot be the zero address. - `spender` must have allowance for the caller of at least `subtractedValue`."
      },
      "delegate(address)": {
        "details": "Delegate votes from the sender to `delegatee`."
      },
      "delegateBySig(address,uint256,uint256,uint8,bytes32,bytes32)": {
        "details": "Delegates votes from signer to `delegatee`"
      },
      "delegates(address)": {
        "details": "Get the address `account` is currently delegating to."
      },
      "getPastTotalSupply(uint256)": {
        "details": "Retrieve the `totalSupply` at the end of `blockNumber`. Note, this value is the sum of all balances. It is but NOT the sum of all the delegated votes! Requirements: - `blockNumber` must have been already mined"
      },
      "getPastVotes(address,uint256)": {
        "details": "Retrieve the number of votes for `account` at the end of `blockNumber`. Requirements: - `blockNumber` must have been already mined"
      },
      "getVotes(address)": {
        "details": "Gets the current votes balance for `account`"
      },
      "increaseAllowance(address,uint256)": {
        "details": "Atomically increases the allowance granted to `spender` by the caller. This is an alternative to {approve} that can be used as a mitigation for problems described in {IERC20-approve}. Emits an {Approval} event indicating the updated allowance. Requirements: - `spender` cannot be the zero address."
      },
      "name()": {
        "details": "Returns the name of the token."
      },
      "nonces(address)": {
        "details": "See {IERC20Permit-nonces}."
      },
      "numCheckpoints(address)": {
        "details": "Get number of checkpoints for `account`."
      },
      "owner()": {
        "details": "Returns the address of the current owner."
      },
      "permit(address,address,uint256,uint256,uint8,bytes32,bytes32)": {
        "details": "See {IERC20Permit-permit}."
      },
      "renounceOwnership()": {
        "details": "Leaves the contract without owner. It will not be possible to call `onlyOwner` functions anymore. Can only be called by the current owner. NOTE: Renouncing ownership will leave the contract without an owner, thereby removing any functionality that is only available to the owner."
      },
      "symbol()": {
        "details": "Returns the symbol of the token, usually a shorter version of the name."
      },
      "totalSupply()": {
        "details": "See {IERC20-totalSupply}."
      },
      "transfer(address,uint256)": {
        "details": "See {IERC20-transfer}. Requirements: - `recipient` cannot be the zero address. - the caller must have a balance of at least `amount`."
      },
      "transferFrom(address,address,uint256)": {
        "details": "See {IERC20-transferFrom}. Emits an {Approval} event indicating the updated allowance. This is not required by the EIP. See the note at the beginning of {ERC20}. Requirements: - `sender` and `recipient` cannot be the zero address. - `sender` must have a balance of at least `amount`. - the caller must have allowance for ``sender``'s tokens of at least `amount`."
      },
      "transferOwnership(address)": {
        "details": "Transfers ownership of the contract to a new account (`newOwner`). Can only be called by the current owner."
      }
    },
    "version": 1
  },
  "userdoc": {
    "kind": "user",
    "methods": {},
    "version": 1
  }
}