{
  "contractName": "EARTH",
  "abi": [
    {
      "inputs": [],
      "stateMutability": "nonpayable",
      "type": "constructor"
    },
    {
      "anonymous": false,
      "inputs": [
        {
          "indexed": true,
          "internalType": "address",
          "name": "owner",
          "type": "address"
        },
        {
          "indexed": true,
          "internalType": "address",
          "name": "spender",
          "type": "address"
        },
        {
          "indexed": false,
          "internalType": "uint256",
          "name": "value",
          "type": "uint256"
        }
      ],
      "name": "Approval",
      "type": "event"
    },
    {
      "anonymous": false,
      "inputs": [
        {
          "indexed": true,
          "internalType": "address",
          "name": "delegator",
          "type": "address"
        },
        {
          "indexed": true,
          "internalType": "address",
          "name": "fromDelegate",
          "type": "address"
        },
        {
          "indexed": true,
          "internalType": "address",
          "name": "toDelegate",
          "type": "address"
        }
      ],
      "name": "DelegateChanged",
      "type": "event"
    },
    {
      "anonymous": false,
      "inputs": [
        {
          "indexed": true,
          "internalType": "address",
          "name": "delegate",
          "type": "address"
        },
        {
          "indexed": false,
          "internalType": "uint256",
          "name": "previousBalance",
          "type": "uint256"
        },
        {
          "indexed": false,
          "internalType": "uint256",
          "name": "newBalance",
          "type": "uint256"
        }
      ],
      "name": "DelegateVotesChanged",
      "type": "event"
    },
    {
      "anonymous": false,
      "inputs": [
        {
          "indexed": false,
          "internalType": "uint256",
          "name": "minTokensBeforeSwap",
          "type": "uint256"
        }
      ],
      "name": "MinTokensBeforeSwapUpdated",
      "type": "event"
    },
    {
      "anonymous": false,
      "inputs": [
        {
          "indexed": true,
          "internalType": "address",
          "name": "previousOwner",
          "type": "address"
        },
        {
          "indexed": true,
          "internalType": "address",
          "name": "newOwner",
          "type": "address"
        }
      ],
      "name": "OwnershipTransferred",
      "type": "event"
    },
    {
      "anonymous": false,
      "inputs": [
        {
          "indexed": false,
          "internalType": "uint256",
          "name": "tokensSwapped",
          "type": "uint256"
        },
        {
          "indexed": false,
          "internalType": "uint256",
          "name": "ethReceived",
          "type": "uint256"
        },
        {
          "indexed": false,
          "internalType": "uint256",
          "name": "tokensIntoLiqudity",
          "type": "uint256"
        }
      ],
      "name": "SwapAndLiquify",
      "type": "event"
    },
    {
      "anonymous": false,
      "inputs": [
        {
          "indexed": false,
          "internalType": "bool",
          "name": "enabled",
          "type": "bool"
        }
      ],
      "name": "SwapAndLiquifyEnabledUpdated",
      "type": "event"
    },
    {
      "anonymous": false,
      "inputs": [
        {
          "indexed": true,
          "internalType": "address",
          "name": "from",
          "type": "address"
        },
        {
          "indexed": true,
          "internalType": "address",
          "name": "to",
          "type": "address"
        },
        {
          "indexed": false,
          "internalType": "uint256",
          "name": "value",
          "type": "uint256"
        }
      ],
      "name": "Transfer",
      "type": "event"
    },
    {
      "inputs": [],
      "name": "DOMAIN_SEPARATOR",
      "outputs": [
        {
          "internalType": "bytes32",
          "name": "",
          "type": "bytes32"
        }
      ],
      "stateMutability": "view",
      "type": "function"
    },
    {
      "inputs": [],
      "name": "_expiry",
      "outputs": [
        {
          "internalType": "uint256",
          "name": "",
          "type": "uint256"
        }
      ],
      "stateMutability": "view",
      "type": "function"
    },
    {
      "inputs": [],
      "name": "_initialTaxFee",
      "outputs": [
        {
          "internalType": "uint256",
          "name": "",
          "type": "uint256"
        }
      ],
      "stateMutability": "view",
      "type": "function"
    },
    {
      "inputs": [],
      "name": "_liquidityFee",
      "outputs": [
        {
          "internalType": "uint256",
          "name": "",
          "type": "uint256"
        }
      ],
      "stateMutability": "view",
      "type": "function"
    },
    {
      "inputs": [],
      "name": "_maxTxAmount",
      "outputs": [
        {
          "internalType": "uint256",
          "name": "",
          "type": "uint256"
        }
      ],
      "stateMutability": "view",
      "type": "function"
    },
    {
      "inputs": [],
      "name": "_taxFee",
      "outputs": [
        {
          "internalType": "uint256",
          "name": "",
          "type": "uint256"
        }
      ],
      "stateMutability": "view",
      "type": "function"
    },
    {
      "inputs": [
        {
          "internalType": "address",
          "name": "account",
          "type": "address"
        },
        {
          "internalType": "uint32",
          "name": "pos",
          "type": "uint32"
        }
      ],
      "name": "checkpoints",
      "outputs": [
        {
          "components": [
            {
              "internalType": "uint32",
              "name": "fromBlock",
              "type": "uint32"
            },
            {
              "internalType": "uint224",
              "name": "votes",
              "type": "uint224"
            }
          ],
          "internalType": "struct ERC20VotesUpgradeable.Checkpoint",
          "name": "",
          "type": "tuple"
        }
      ],
      "stateMutability": "view",
      "type": "function"
    },
    {
      "inputs": [
        {
          "internalType": "address",
          "name": "delegatee",
          "type": "address"
        }
      ],
      "name": "delegate",
      "outputs": [],
      "stateMutability": "nonpayable",
      "type": "function"
    },
    {
      "inputs": [
        {
          "internalType": "address",
          "name": "delegatee",
          "type": "address"
        },
        {
          "internalType": "uint256",
          "name": "nonce",
          "type": "uint256"
        },
        {
          "internalType": "uint256",
          "name": "expiry",
          "type": "uint256"
        },
        {
          "internalType": "uint8",
          "name": "v",
          "type": "uint8"
        },
        {
          "internalType": "bytes32",
          "name": "r",
          "type": "bytes32"
        },
        {
          "internalType": "bytes32",
          "name": "s",
          "type": "bytes32"
        }
      ],
      "name": "delegateBySig",
      "outputs": [],
      "stateMutability": "nonpayable",
      "type": "function"
    },
    {
      "inputs": [
        {
          "internalType": "address",
          "name": "account",
          "type": "address"
        }
      ],
      "name": "delegates",
      "outputs": [
        {
          "internalType": "address",
          "name": "",
          "type": "address"
        }
      ],
      "stateMutability": "view",
      "type": "function"
    },
    {
      "inputs": [
        {
          "internalType": "uint256",
          "name": "blockNumber",
          "type": "uint256"
        }
      ],
      "name": "getPastTotalSupply",
      "outputs": [
        {
          "internalType": "uint256",
          "name": "",
          "type": "uint256"
        }
      ],
      "stateMutability": "view",
      "type": "function"
    },
    {
      "inputs": [
        {
          "internalType": "address",
          "name": "account",
          "type": "address"
        },
        {
          "internalType": "uint256",
          "name": "blockNumber",
          "type": "uint256"
        }
      ],
      "name": "getPastVotes",
      "outputs": [
        {
          "internalType": "uint256",
          "name": "",
          "type": "uint256"
        }
      ],
      "stateMutability": "view",
      "type": "function"
    },
    {
      "inputs": [],
      "name": "getUnlockTime",
      "outputs": [
        {
          "internalType": "uint256",
          "name": "",
          "type": "uint256"
        }
      ],
      "stateMutability": "view",
      "type": "function"
    },
    {
      "inputs": [
        {
          "internalType": "address",
          "name": "account",
          "type": "address"
        }
      ],
      "name": "getVotes",
      "outputs": [
        {
          "internalType": "uint256",
          "name": "",
          "type": "uint256"
        }
      ],
      "stateMutability": "view",
      "type": "function"
    },
    {
      "inputs": [
        {
          "internalType": "uint256",
          "name": "time",
          "type": "uint256"
        }
      ],
      "name": "lock",
      "outputs": [],
      "stateMutability": "nonpayable",
      "type": "function"
    },
    {
      "inputs": [
        {
          "internalType": "address",
          "name": "owner",
          "type": "address"
        }
      ],
      "name": "nonces",
      "outputs": [
        {
          "internalType": "uint256",
          "name": "",
          "type": "uint256"
        }
      ],
      "stateMutability": "view",
      "type": "function"
    },
    {
      "inputs": [
        {
          "internalType": "address",
          "name": "account",
          "type": "address"
        }
      ],
      "name": "numCheckpoints",
      "outputs": [
        {
          "internalType": "uint32",
          "name": "",
          "type": "uint32"
        }
      ],
      "stateMutability": "view",
      "type": "function"
    },
    {
      "inputs": [],
      "name": "owner",
      "outputs": [
        {
          "internalType": "address",
          "name": "",
          "type": "address"
        }
      ],
      "stateMutability": "view",
      "type": "function"
    },
    {
      "inputs": [
        {
          "internalType": "address",
          "name": "owner",
          "type": "address"
        },
        {
          "internalType": "address",
          "name": "spender",
          "type": "address"
        },
        {
          "internalType": "uint256",
          "name": "value",
          "type": "uint256"
        },
        {
          "internalType": "uint256",
          "name": "deadline",
          "type": "uint256"
        },
        {
          "internalType": "uint8",
          "name": "v",
          "type": "uint8"
        },
        {
          "internalType": "bytes32",
          "name": "r",
          "type": "bytes32"
        },
        {
          "internalType": "bytes32",
          "name": "s",
          "type": "bytes32"
        }
      ],
      "name": "permit",
      "outputs": [],
      "stateMutability": "nonpayable",
      "type": "function"
    },
    {
      "inputs": [],
      "name": "renounceOwnership",
      "outputs": [],
      "stateMutability": "nonpayable",
      "type": "function"
    },
    {
      "inputs": [],
      "name": "swapAndLiquifyEnabled",
      "outputs": [
        {
          "internalType": "bool",
          "name": "",
          "type": "bool"
        }
      ],
      "stateMutability": "view",
      "type": "function"
    },
    {
      "inputs": [
        {
          "internalType": "address",
          "name": "newOwner",
          "type": "address"
        }
      ],
      "name": "transferOwnership",
      "outputs": [],
      "stateMutability": "nonpayable",
      "type": "function"
    },
    {
      "inputs": [],
      "name": "uniswapV2Pair",
      "outputs": [
        {
          "internalType": "address",
          "name": "",
          "type": "address"
        }
      ],
      "stateMutability": "view",
      "type": "function"
    },
    {
      "inputs": [],
      "name": "uniswapV2Router",
      "outputs": [
        {
          "internalType": "contract IUniswapV2Router02",
          "name": "",
          "type": "address"
        }
      ],
      "stateMutability": "view",
      "type": "function"
    },
    {
      "inputs": [],
      "name": "unlock",
      "outputs": [],
      "stateMutability": "nonpayable",
      "type": "function"
    },
    {
      "stateMutability": "payable",
      "type": "receive"
    },
    {
      "inputs": [],
      "name": "name",
      "outputs": [
        {
          "internalType": "string",
          "name": "",
          "type": "string"
        }
      ],
      "stateMutability": "view",
      "type": "function"
    },
    {
      "inputs": [],
      "name": "symbol",
      "outputs": [
        {
          "internalType": "string",
          "name": "",
          "type": "string"
        }
      ],
      "stateMutability": "view",
      "type": "function"
    },
    {
      "inputs": [],
      "name": "decimals",
      "outputs": [
        {
          "internalType": "uint8",
          "name": "",
          "type": "uint8"
        }
      ],
      "stateMutability": "view",
      "type": "function"
    },
    {
      "inputs": [],
      "name": "totalSupply",
      "outputs": [
        {
          "internalType": "uint256",
          "name": "",
          "type": "uint256"
        }
      ],
      "stateMutability": "view",
      "type": "function"
    },
    {
      "inputs": [
        {
          "internalType": "address",
          "name": "account",
          "type": "address"
        }
      ],
      "name": "balanceOf",
      "outputs": [
        {
          "internalType": "uint256",
          "name": "",
          "type": "uint256"
        }
      ],
      "stateMutability": "view",
      "type": "function"
    },
    {
      "inputs": [
        {
          "internalType": "address",
          "name": "recipient",
          "type": "address"
        },
        {
          "internalType": "uint256",
          "name": "amount",
          "type": "uint256"
        }
      ],
      "name": "transfer",
      "outputs": [
        {
          "internalType": "bool",
          "name": "",
          "type": "bool"
        }
      ],
      "stateMutability": "nonpayable",
      "type": "function"
    },
    {
      "inputs": [
        {
          "internalType": "address",
          "name": "owner",
          "type": "address"
        },
        {
          "internalType": "address",
          "name": "spender",
          "type": "address"
        }
      ],
      "name": "allowance",
      "outputs": [
        {
          "internalType": "uint256",
          "name": "",
          "type": "uint256"
        }
      ],
      "stateMutability": "view",
      "type": "function"
    },
    {
      "inputs": [
        {
          "internalType": "address",
          "name": "spender",
          "type": "address"
        },
        {
          "internalType": "uint256",
          "name": "amount",
          "type": "uint256"
        }
      ],
      "name": "approve",
      "outputs": [
        {
          "internalType": "bool",
          "name": "",
          "type": "bool"
        }
      ],
      "stateMutability": "nonpayable",
      "type": "function"
    },
    {
      "inputs": [
        {
          "internalType": "address",
          "name": "sender",
          "type": "address"
        },
        {
          "internalType": "address",
          "name": "recipient",
          "type": "address"
        },
        {
          "internalType": "uint256",
          "name": "amount",
          "type": "uint256"
        }
      ],
      "name": "transferFrom",
      "outputs": [
        {
          "internalType": "bool",
          "name": "",
          "type": "bool"
        }
      ],
      "stateMutability": "nonpayable",
      "type": "function"
    },
    {
      "inputs": [
        {
          "internalType": "address",
          "name": "spender",
          "type": "address"
        },
        {
          "internalType": "uint256",
          "name": "addedValue",
          "type": "uint256"
        }
      ],
      "name": "increaseAllowance",
      "outputs": [
        {
          "internalType": "bool",
          "name": "",
          "type": "bool"
        }
      ],
      "stateMutability": "nonpayable",
      "type": "function"
    },
    {
      "inputs": [
        {
          "internalType": "address",
          "name": "spender",
          "type": "address"
        },
        {
          "internalType": "uint256",
          "name": "subtractedValue",
          "type": "uint256"
        }
      ],
      "name": "decreaseAllowance",
      "outputs": [
        {
          "internalType": "bool",
          "name": "",
          "type": "bool"
        }
      ],
      "stateMutability": "nonpayable",
      "type": "function"
    },
    {
      "inputs": [
        {
          "internalType": "address",
          "name": "account",
          "type": "address"
        }
      ],
      "name": "isExcludedFromReward",
      "outputs": [
        {
          "internalType": "bool",
          "name": "",
          "type": "bool"
        }
      ],
      "stateMutability": "view",
      "type": "function"
    },
    {
      "inputs": [],
      "name": "totalFees",
      "outputs": [
        {
          "internalType": "uint256",
          "name": "",
          "type": "uint256"
        }
      ],
      "stateMutability": "view",
      "type": "function"
    },
    {
      "inputs": [
        {
          "internalType": "uint256",
          "name": "tAmount",
          "type": "uint256"
        }
      ],
      "name": "deliver",
      "outputs": [],
      "stateMutability": "nonpayable",
      "type": "function"
    },
    {
      "inputs": [
        {
          "internalType": "uint256",
          "name": "tAmount",
          "type": "uint256"
        },
        {
          "internalType": "bool",
          "name": "deductTransferFee",
          "type": "bool"
        }
      ],
      "name": "reflectionFromToken",
      "outputs": [
        {
          "internalType": "uint256",
          "name": "",
          "type": "uint256"
        }
      ],
      "stateMutability": "view",
      "type": "function"
    },
    {
      "inputs": [
        {
          "internalType": "uint256",
          "name": "rAmount",
          "type": "uint256"
        }
      ],
      "name": "tokenFromReflection",
      "outputs": [
        {
          "internalType": "uint256",
          "name": "",
          "type": "uint256"
        }
      ],
      "stateMutability": "view",
      "type": "function"
    },
    {
      "inputs": [
        {
          "internalType": "address",
          "name": "account",
          "type": "address"
        }
      ],
      "name": "excludeFromReward",
      "outputs": [],
      "stateMutability": "nonpayable",
      "type": "function"
    },
    {
      "inputs": [
        {
          "internalType": "address",
          "name": "account",
          "type": "address"
        }
      ],
      "name": "includeInReward",
      "outputs": [],
      "stateMutability": "nonpayable",
      "type": "function"
    },
    {
      "inputs": [
        {
          "internalType": "address",
          "name": "account",
          "type": "address"
        }
      ],
      "name": "excludeFromFee",
      "outputs": [],
      "stateMutability": "nonpayable",
      "type": "function"
    },
    {
      "inputs": [
        {
          "internalType": "address",
          "name": "account",
          "type": "address"
        }
      ],
      "name": "includeInFee",
      "outputs": [],
      "stateMutability": "nonpayable",
      "type": "function"
    },
    {
      "inputs": [
        {
          "internalType": "uint256",
          "name": "taxFee",
          "type": "uint256"
        }
      ],
      "name": "setTaxFeePercent",
      "outputs": [],
      "stateMutability": "nonpayable",
      "type": "function"
    },
    {
      "inputs": [
        {
          "internalType": "uint256",
          "name": "initialTaxFee",
          "type": "uint256"
        }
      ],
      "name": "setInitialTaxFee",
      "outputs": [],
      "stateMutability": "nonpayable",
      "type": "function"
    },
    {
      "inputs": [
        {
          "internalType": "uint256",
          "name": "liquidityFee",
          "type": "uint256"
        }
      ],
      "name": "setLiquidityFeePercent",
      "outputs": [],
      "stateMutability": "nonpayable",
      "type": "function"
    },
    {
      "inputs": [
        {
          "internalType": "uint256",
          "name": "maxTxPercent",
          "type": "uint256"
        }
      ],
      "name": "setMaxTxPercent",
      "outputs": [],
      "stateMutability": "nonpayable",
      "type": "function"
    },
    {
      "inputs": [
        {
          "internalType": "bool",
          "name": "_enabled",
          "type": "bool"
        }
      ],
      "name": "setSwapAndLiquifyEnabled",
      "outputs": [],
      "stateMutability": "nonpayable",
      "type": "function"
    },
    {
      "inputs": [
        {
          "internalType": "address",
          "name": "account",
          "type": "address"
        }
      ],
      "name": "isExcludedFromFee",
      "outputs": [
        {
          "internalType": "bool",
          "name": "",
          "type": "bool"
        }
      ],
      "stateMutability": "view",
      "type": "function"
    },
    {
      "inputs": [
        {
          "internalType": "address",
          "name": "to",
          "type": "address"
        },
        {
          "internalType": "uint256",
          "name": "amount",
          "type": "uint256"
        }
      ],
      "name": "mint",
      "outputs": [],
      "stateMutability": "nonpayable",
      "type": "function"
    }
  ],
  "bytecode": "0x60c060405269d3c21bcecceda10000006101388190556200002390600019620004be565b62000031906000196200045d565b610139556040805180820190915260058082526408ac2e4e8d60db1b6020909201918252620000649161013b9162000387565b506040805180820190915260058082526408a82a4a8960db1b6020909201918252620000949161013c9162000387565b5061013d805460ff19166009179055600561013e81905561013f819055600a6101408190556101415562f0c8a06101425561014481905561014555610146805461ff00191661010017905569010f0cf064dd5920000061014755681b1ae4d6e2ef500000610148553480156200010957600080fd5b5061013954336000908152610132602090815260409182902092909255805163c45a015560e01b815290517305ff2b0db69458a0750badebc4f9e13add608c7f92839263c45a01559260048083019392829003018186803b1580156200016e57600080fd5b505afa15801562000183573d6000803e3d6000fd5b505050506040513d601f19601f82011682018060405250810190620001a991906200042d565b6001600160a01b031663c9c6539630836001600160a01b031663ad5c46486040518163ffffffff1660e01b815260040160206040518083038186803b158015620001f257600080fd5b505afa15801562000207573d6000803e3d6000fd5b505050506040513d601f19601f820116820180604052508101906200022d91906200042d565b6040516001600160e01b031960e085901b1681526001600160a01b03928316600482015291166024820152604401602060405180830381600087803b1580156200027657600080fd5b505af11580156200028b573d6000803e3d6000fd5b505050506040513d601f19601f82011682018060405250810190620002b191906200042d565b6001600160601b0319606091821b811660a0529082901b1660805260016101356000620002e66065546001600160a01b031690565b6001600160a01b0316815260208082019290925260409081016000908120805494151560ff199586161790553081526101359092529020805490911660011790556200032f3390565b6001600160a01b031660006001600160a01b03167fddf252ad1be2c89b69c2b068fc378daa952ba7f163c4a11628f55a4df523b3ef610138546040516200037891815260200190565b60405180910390a350620004df565b828054620003959062000481565b90600052602060002090601f016020900481019282620003b9576000855562000404565b82601f10620003d457805160ff191683800117855562000404565b8280016001018555821562000404579182015b8281111562000404578251825591602001919060010190620003e7565b506200041292915062000416565b5090565b5b8082111562000412576000815560010162000417565b6000602082840312156200043f578081fd5b81516001600160a01b038116811462000456578182fd5b9392505050565b6000828210156200047c57634e487b7160e01b81526011600452602481fd5b500390565b600181811c908216806200049657607f821691505b60208210811415620004b857634e487b7160e01b600052602260045260246000fd5b50919050565b600082620004da57634e487b7160e01b81526012600452602481fd5b500690565b60805160601c60a05160601c613e0662000535600039600081816105af0152611e4e0152600081816103de01528181612e7901528181612f4f01528181612f8b01528181612ffd01526130240152613e066000f3fe6080604052600436106103035760003560e01c80636bc87c3a11610190578063a457c2d7116100dc578063d505accf11610095578063dd62ed3e1161006f578063dd62ed3e14610962578063ea2f0b37146109a9578063f1127ed8146109c9578063f2fde38b14610a1357600080fd5b8063d505accf14610902578063d543dbeb14610922578063dd4670641461094257600080fd5b8063a457c2d714610856578063a69df4b514610876578063a9059cbb1461088b578063c3cda520146108ab578063c49b9a80146108cb578063c5ec8970146108eb57600080fd5b806388f82020116101495780638ee88c53116101235780638ee88c53146107ea57806393251f0b1461080a57806395d89b41146108215780639ab24eb01461083657600080fd5b806388f82020146107725780638da5cb5b146107ac5780638e539e8c146107ca57600080fd5b80636bc87c3a146106ba5780636fcfff45146106d157806370a0823114610706578063715018a6146107265780637d1db4a51461073b5780637ecebe001461075257600080fd5b80633a46b1a81161024f57806349bd5a5e116102085780635342acb4116101e25780635342acb414610611578063587cde1e1461064b5780635c19a95c14610685578063602bc62b146106a557600080fd5b806349bd5a5e1461059d5780634a74bb02146105d157806352390c02146105f157600080fd5b80633a46b1a8146104e65780633b124fe7146105065780633bd5d1731461051d57806340c10f191461053d578063437823ec1461055d5780634549b0391461057d57600080fd5b806318160ddd116102bc578063313ce56711610296578063313ce5671461046e5780633644e515146104915780633685d419146104a657806339509351146104c657600080fd5b806318160ddd1461041857806323b872dd1461042e5780632d8381191461044e57600080fd5b8063061c82d01461030f57806306fdde0314610331578063095ea7b31461035c57806313114a9d1461038c578063139fcfed146103ac5780631694505e146103cc57600080fd5b3661030a57005b600080fd5b34801561031b57600080fd5b5061032f61032a366004613b32565b610a33565b005b34801561033d57600080fd5b50610346610a6c565b6040516103539190613ba2565b60405180910390f35b34801561036857600080fd5b5061037c610377366004613a5f565b610aff565b6040519015158152602001610353565b34801561039857600080fd5b5061013a545b604051908152602001610353565b3480156103b857600080fd5b5061032f6103c7366004613b32565b610b16565b3480156103d857600080fd5b506104007f000000000000000000000000000000000000000000000000000000000000000081565b6040516001600160a01b039091168152602001610353565b34801561042457600080fd5b506101385461039e565b34801561043a57600080fd5b5061037c6104493660046139b2565b610b46565b34801561045a57600080fd5b5061039e610469366004613b32565b610bb0565b34801561047a57600080fd5b5061013d5460405160ff9091168152602001610353565b34801561049d57600080fd5b5061039e610c35565b3480156104b257600080fd5b5061032f6104c1366004613942565b610c44565b3480156104d257600080fd5b5061037c6104e1366004613a5f565b610e3b565b3480156104f257600080fd5b5061039e610501366004613a5f565b610e72565b34801561051257600080fd5b5061039e61013e5481565b34801561052957600080fd5b5061032f610538366004613b32565b610ee6565b34801561054957600080fd5b5061032f610558366004613a5f565b610fd7565b34801561056957600080fd5b5061032f610578366004613942565b61100b565b34801561058957600080fd5b5061039e610598366004613b4a565b61105a565b3480156105a957600080fd5b506104007f000000000000000000000000000000000000000000000000000000000000000081565b3480156105dd57600080fd5b506101465461037c90610100900460ff1681565b3480156105fd57600080fd5b5061032f61060c366004613942565b6110e8565b34801561061d57600080fd5b5061037c61062c366004613942565b6001600160a01b03166000908152610135602052604090205460ff1690565b34801561065757600080fd5b50610400610666366004613942565b6001600160a01b03908116600090815261010060205260409020541690565b34801561069157600080fd5b5061032f6106a0366004613942565b611241565b3480156106b157600080fd5b5060675461039e565b3480156106c657600080fd5b5061039e6101445481565b3480156106dd57600080fd5b506106f16106ec366004613942565b61124e565b60405163ffffffff9091168152602001610353565b34801561071257600080fd5b5061039e610721366004613942565b611271565b34801561073257600080fd5b5061032f6112d3565b34801561074757600080fd5b5061039e6101475481565b34801561075e57600080fd5b5061039e61076d366004613942565b611309565b34801561077e57600080fd5b5061037c61078d366004613942565b6001600160a01b03166000908152610136602052604090205460ff1690565b3480156107b857600080fd5b506065546001600160a01b0316610400565b3480156107d657600080fd5b5061039e6107e5366004613b32565b611327565b3480156107f657600080fd5b5061032f610805366004613b32565b611384565b34801561081657600080fd5b5061039e6101405481565b34801561082d57600080fd5b506103466113b4565b34801561084257600080fd5b5061039e610851366004613942565b6113c4565b34801561086257600080fd5b5061037c610871366004613a5f565b61145b565b34801561088257600080fd5b5061032f6114ab565b34801561089757600080fd5b5061037c6108a6366004613a5f565b6115c5565b3480156108b757600080fd5b5061032f6108c6366004613a8a565b6115d2565b3480156108d757600080fd5b5061032f6108e6366004613b18565b611708565b3480156108f757600080fd5b5061039e6101425481565b34801561090e57600080fd5b5061032f61091d3660046139f2565b611787565b34801561092e57600080fd5b5061032f61093d366004613b32565b6118cd565b34801561094e57600080fd5b5061032f61095d366004613b32565b61191f565b34801561096e57600080fd5b5061039e61097d36600461397a565b6001600160a01b0391821660009081526101346020908152604080832093909416825291909152205490565b3480156109b557600080fd5b5061032f6109c4366004613942565b6119b6565b3480156109d557600080fd5b506109e96109e4366004613ae3565b611a02565b60408051825163ffffffff1681526020928301516001600160e01b03169281019290925201610353565b348015610a1f57600080fd5b5061032f610a2e366004613942565b611a95565b6065546001600160a01b03163314610a665760405162461bcd60e51b8152600401610a5d90613bf5565b60405180910390fd5b61013e55565b606061013b8054610a7c90613d08565b80601f0160208091040260200160405190810160405280929190818152602001828054610aa890613d08565b8015610af55780601f10610aca57610100808354040283529160200191610af5565b820191906000526020600020905b815481529060010190602001808311610ad857829003601f168201915b5050505050905090565b6000610b0c338484611b2d565b5060015b92915050565b6065546001600160a01b03163314610b405760405162461bcd60e51b8152600401610a5d90613bf5565b61014055565b6000610b53848484611c52565b610ba68433610ba185604051806060016040528060288152602001613d84602891396001600160a01b038a166000908152610134602090815260408083203384529091529020549190611f0c565b611b2d565b5060019392505050565b600061013954821115610c185760405162461bcd60e51b815260206004820152602a60248201527f416d6f756e74206d757374206265206c657373207468616e20746f74616c207260448201526965666c656374696f6e7360b01b6064820152608401610a5d565b6000610c22611f46565b9050610c2e8382611f69565b9392505050565b6000610c3f611fab565b905090565b6065546001600160a01b03163314610c6e5760405162461bcd60e51b8152600401610a5d90613bf5565b6001600160a01b0381166000908152610136602052604090205460ff16610cd75760405162461bcd60e51b815260206004820152601b60248201527f4163636f756e7420697320616c7265616479206578636c7564656400000000006044820152606401610a5d565b60005b61013754811015610e3757816001600160a01b03166101378281548110610d1157634e487b7160e01b600052603260045260246000fd5b6000918252602090912001546001600160a01b03161415610e25576101378054610d3d90600190613cf1565b81548110610d5b57634e487b7160e01b600052603260045260246000fd5b60009182526020909120015461013780546001600160a01b039092169183908110610d9657634e487b7160e01b600052603260045260246000fd5b600091825260208083209190910180546001600160a01b0319166001600160a01b0394851617905591841681526101338252604080822082905561013690925220805460ff19169055610137805480610dff57634e487b7160e01b600052603160045260246000fd5b600082815260209020810160001990810180546001600160a01b03191690550190555050565b80610e2f81613d3d565b915050610cda565b5050565b336000818152610134602090815260408083206001600160a01b03871684529091528120549091610b0c918590610ba19086612026565b6000438210610ec35760405162461bcd60e51b815260206004820152601f60248201527f4552433230566f7465733a20626c6f636b206e6f7420796574206d696e6564006044820152606401610a5d565b6001600160a01b038316600090815261010160205260409020610c2e9083612085565b336000818152610136602052604090205460ff1615610f5c5760405162461bcd60e51b815260206004820152602c60248201527f4578636c75646564206164647265737365732063616e6e6f742063616c6c207460448201526b3434b990333ab731ba34b7b760a11b6064820152608401610a5d565b6000610f678361215e565b505050506001600160a01b03841660009081526101326020526040902054919250610f94919050826121ad565b6001600160a01b0383166000908152610132602052604090205561013954610fbc90826121ad565b6101395561013a54610fce9084612026565b61013a55505050565b6065546001600160a01b031633146110015760405162461bcd60e51b8152600401610a5d90613bf5565b610e3782826121ef565b6065546001600160a01b031633146110355760405162461bcd60e51b8152600401610a5d90613bf5565b6001600160a01b0316600090815261013560205260409020805460ff19166001179055565b6000610138548311156110af5760405162461bcd60e51b815260206004820152601f60248201527f416d6f756e74206d757374206265206c657373207468616e20737570706c79006044820152606401610a5d565b816110ce5760006110bf8461215e565b50939550610b10945050505050565b60006110d98461215e565b50929550610b10945050505050565b6065546001600160a01b031633146111125760405162461bcd60e51b8152600401610a5d90613bf5565b6001600160a01b0381166000908152610136602052604090205460ff161561117c5760405162461bcd60e51b815260206004820152601b60248201527f4163636f756e7420697320616c7265616479206578636c7564656400000000006044820152606401610a5d565b6001600160a01b03811660009081526101326020526040902054156111d9576001600160a01b038116600090815261013260205260409020546111be90610bb0565b6001600160a01b038216600090815261013360205260409020555b6001600160a01b0316600081815261013660205260408120805460ff19166001908117909155610137805491820181559091527f43dc304bb3613567eca51c4fb9e7f3128bc51bba882a32550e891d6cbd8a0fa10180546001600160a01b0319169091179055565b61124b33826121f9565b50565b6001600160a01b03811660009081526101016020526040812054610b1090612290565b6001600160a01b0381166000908152610136602052604081205460ff16156112b057506001600160a01b03166000908152610133602052604090205490565b6001600160a01b03821660009081526101326020526040902054610b1090610bb0565b6065546001600160a01b031633146112fd5760405162461bcd60e51b8152600401610a5d90613bf5565b61130760006122f9565b565b6001600160a01b038116600090815260cd6020526040812054610b10565b60004382106113785760405162461bcd60e51b815260206004820152601f60248201527f4552433230566f7465733a20626c6f636b206e6f7420796574206d696e6564006044820152606401610a5d565b610b1061010283612085565b6065546001600160a01b031633146113ae5760405162461bcd60e51b8152600401610a5d90613bf5565b61014455565b606061013c8054610a7c90613d08565b6001600160a01b038116600090815261010160205260408120548015611448576001600160a01b038316600090815261010160205260409020611408600183613cf1565b8154811061142657634e487b7160e01b600052603260045260246000fd5b60009182526020909120015464010000000090046001600160e01b031661144b565b60005b6001600160e01b03169392505050565b6000610b0c3384610ba185604051806060016040528060258152602001613dac60259139336000908152610134602090815260408083206001600160a01b038d1684529091529020549190611f0c565b6066546001600160a01b031633146115115760405162461bcd60e51b815260206004820152602360248201527f596f7520646f6e27742068617665207065726d697373696f6e20746f20756e6c6044820152626f636b60e81b6064820152608401610a5d565b60675442116115625760405162461bcd60e51b815260206004820152601f60248201527f436f6e7472616374206973206c6f636b656420756e74696c20372064617973006044820152606401610a5d565b6066546065546040516001600160a01b0392831692909116907f8be0079c531659141344cd1fd0a4f28419497f9722a3daafe3b4186f6b6457e090600090a3606654606580546001600160a01b0319166001600160a01b03909216919091179055565b6000610b0c338484611c52565b834211156116225760405162461bcd60e51b815260206004820152601d60248201527f4552433230566f7465733a207369676e617475726520657870697265640000006044820152606401610a5d565b604080517fe48329057bfd03d55e49b547132e39cffd9c1820ad7b9d4c5307691425d15adf60208201526001600160a01b03881691810191909152606081018690526080810185905260009061169c906116949060a0016040516020818303038152906040528051906020012061234b565b858585612399565b90506116a7816123c1565b86146116f55760405162461bcd60e51b815260206004820152601960248201527f4552433230566f7465733a20696e76616c6964206e6f6e6365000000000000006044820152606401610a5d565b6116ff81886121f9565b50505050505050565b6065546001600160a01b031633146117325760405162461bcd60e51b8152600401610a5d90613bf5565b61014680548215156101000261ff00199091161790556040517f53726dfcaf90650aa7eb35524f4d3220f07413c8d6cb404cc8c18bf5591bc1599061177c90831515815260200190565b60405180910390a150565b834211156117d75760405162461bcd60e51b815260206004820152601d60248201527f45524332305065726d69743a206578706972656420646561646c696e650000006044820152606401610a5d565b600060ce548888886117e88c6123c1565b6040805160208101969096526001600160a01b0394851690860152929091166060840152608083015260a082015260c0810186905260e00160405160208183030381529060405280519060200120905060006118438261234b565b9050600061185382878787612399565b9050896001600160a01b0316816001600160a01b0316146118b65760405162461bcd60e51b815260206004820152601e60248201527f45524332305065726d69743a20696e76616c6964207369676e617475726500006044820152606401610a5d565b6118c18a8a8a611b2d565b50505050505050505050565b6065546001600160a01b031633146118f75760405162461bcd60e51b8152600401610a5d90613bf5565b611918606461191283610138546123e990919063ffffffff16565b90611f69565b6101475550565b6065546001600160a01b031633146119495760405162461bcd60e51b8152600401610a5d90613bf5565b60658054606680546001600160a01b03199081166001600160a01b038416179091551690556119788142613c9a565b6067556065546040516000916001600160a01b0316907f8be0079c531659141344cd1fd0a4f28419497f9722a3daafe3b4186f6b6457e0908390a350565b6065546001600160a01b031633146119e05760405162461bcd60e51b8152600401610a5d90613bf5565b6001600160a01b0316600090815261013560205260409020805460ff19169055565b60408051808201909152600080825260208201526001600160a01b038316600090815261010160205260409020805463ffffffff8416908110611a5557634e487b7160e01b600052603260045260246000fd5b60009182526020918290206040805180820190915291015463ffffffff8116825264010000000090046001600160e01b0316918101919091529392505050565b6065546001600160a01b03163314611abf5760405162461bcd60e51b8152600401610a5d90613bf5565b6001600160a01b038116611b245760405162461bcd60e51b815260206004820152602660248201527f4f776e61626c653a206e6577206f776e657220697320746865207a65726f206160448201526564647265737360d01b6064820152608401610a5d565b61124b816122f9565b6001600160a01b038316611b8f5760405162461bcd60e51b8152602060048201526024808201527f45524332303a20617070726f76652066726f6d20746865207a65726f206164646044820152637265737360e01b6064820152608401610a5d565b6001600160a01b038216611bf05760405162461bcd60e51b815260206004820152602260248201527f45524332303a20617070726f766520746f20746865207a65726f206164647265604482015261737360f01b6064820152608401610a5d565b6001600160a01b038381166000818152610134602090815260408083209487168084529482529182902085905590518481527f8c5be1e5ebec7d5bd14f71427d1e84f3dd0314c0f7b2291e5b200ac8c7c3b925910160405180910390a3505050565b6001600160a01b038316611cb65760405162461bcd60e51b815260206004820152602560248201527f45524332303a207472616e736665722066726f6d20746865207a65726f206164604482015264647265737360d81b6064820152608401610a5d565b6001600160a01b038216611d185760405162461bcd60e51b815260206004820152602360248201527f45524332303a207472616e7366657220746f20746865207a65726f206164647260448201526265737360e81b6064820152608401610a5d565b60008111611d7a5760405162461bcd60e51b815260206004820152602960248201527f5472616e7366657220616d6f756e74206d7573742062652067726561746572206044820152687468616e207a65726f60b81b6064820152608401610a5d565b6065546001600160a01b03848116911614801590611da657506065546001600160a01b03838116911614155b15611e0f5761014754811115611e0f5760405162461bcd60e51b815260206004820152602860248201527f5472616e7366657220616d6f756e74206578636565647320746865206d6178546044820152673c20b6b7bab73a1760c11b6064820152608401610a5d565b6000611e1a30611271565b9050610147548110611e2c5750610147545b6101485481108015908190611e4557506101465460ff16155b8015611e8357507f00000000000000000000000000000000000000000000000000000000000000006001600160a01b0316856001600160a01b031614155b8015611e97575061014654610100900460ff165b15611eab57610148549150611eab82612468565b6001600160a01b0385166000908152610135602052604090205460019060ff1680611eef57506001600160a01b0385166000908152610135602052604090205460ff165b15611ef8575060005b611f0486868684612508565b505050505050565b60008184841115611f305760405162461bcd60e51b8152600401610a5d9190613ba2565b506000611f3d8486613cf1565b95945050505050565b6000806000611f536126af565b9092509050611f628282611f69565b9250505090565b6000610c2e83836040518060400160405280601a81526020017f536166654d6174683a206469766973696f6e206279207a65726f00000000000081525061287a565b6000610c3f7f8b73c3c69bb8fe3d512ecc4cf759cc79239f7b179b0ffacaa9a75d522b39400f611fda60995490565b609a546040805160208101859052908101839052606081018290524660808201523060a082015260009060c0016040516020818303038152906040528051906020012090509392505050565b6000806120338385613c9a565b905083811015610c2e5760405162461bcd60e51b815260206004820152601b60248201527f536166654d6174683a206164646974696f6e206f766572666c6f7700000000006044820152606401610a5d565b8154600090815b818110156120f75760006120a082846128a8565b9050848682815481106120c357634e487b7160e01b600052603260045260246000fd5b60009182526020909120015463ffffffff1611156120e3578092506120f1565b6120ee816001613c9a565b91505b5061208c565b81156121495784612109600184613cf1565b8154811061212757634e487b7160e01b600052603260045260246000fd5b60009182526020909120015464010000000090046001600160e01b031661214c565b60005b6001600160e01b031695945050505050565b60008060008060008060008060006121758a6128c3565b92509250925060008060006121938d868661218e611f46565b61290a565b919f909e50909c50959a5093985091965092945050505050565b6000610c2e83836040518060400160405280601e81526020017f536166654d6174683a207375627472616374696f6e206f766572666c6f770000815250611f0c565b610e37828261295a565b6001600160a01b03828116600090815261010060205260408120549091169061222184611271565b6001600160a01b038581166000818152610100602052604080822080546001600160a01b031916898616908117909155905194955093928616927f3134e8a2e6d97e929a7e54011ea5485d7d196dd5f0ba4d4ef95803e8e3fc257f9190a461228a8284836129e6565b50505050565b600063ffffffff8211156122f55760405162461bcd60e51b815260206004820152602660248201527f53616665436173743a2076616c756520646f65736e27742066697420696e203360448201526532206269747360d01b6064820152608401610a5d565b5090565b606580546001600160a01b038381166001600160a01b0319831681179093556040519116919082907f8be0079c531659141344cd1fd0a4f28419497f9722a3daafe3b4186f6b6457e090600090a35050565b6000610b10612358611fab565b8360405161190160f01b6020820152602281018390526042810182905260009060620160405160208183030381529060405280519060200120905092915050565b60008060006123aa87878787612b26565b915091506123b781612c13565b5095945050505050565b6001600160a01b038116600090815260cd602052604090208054600181018255905b50919050565b6000826123f857506000610b10565b60006124048385613cd2565b9050826124118583613cb2565b14610c2e5760405162461bcd60e51b815260206004820152602160248201527f536166654d6174683a206d756c7469706c69636174696f6e206f766572666c6f6044820152607760f81b6064820152608401610a5d565b610146805460ff191660011790556000612483826002611f69565b9050600061249183836121ad565b90504761249d83612e14565b60006124a947836121ad565b90506124b58382612ff7565b60408051858152602081018390529081018490527f17bbfb9a6069321b6ded73bd96327c9e6b7212a5cd51ff219cd61370acafb5619060600160405180910390a15050610146805460ff19169055505050565b806125155761251561310c565b6001600160a01b0384166000908152610136602052604090205460ff16801561255857506001600160a01b0383166000908152610136602052604090205460ff16155b1561256d57612568848484613159565b612671565b6001600160a01b0384166000908152610136602052604090205460ff161580156125b057506001600160a01b0383166000908152610136602052604090205460ff165b156125c057612568848484613284565b6001600160a01b0384166000908152610136602052604090205460ff1615801561260457506001600160a01b0383166000908152610136602052604090205460ff16155b1561261457612568848484613332565b6001600160a01b0384166000908152610136602052604090205460ff16801561265657506001600160a01b0383166000908152610136602052604090205460ff165b1561266657612568848484613377565b612671848484613332565b6001600160a01b0383166000908152610143602052604090204290558061228a5761228a61013f5461013e5561014154610140556101455461014455565b61013954610138546000918291825b610137548110156128465782610132600061013784815481106126f157634e487b7160e01b600052603260045260246000fd5b60009182526020808320909101546001600160a01b03168352820192909252604001902054118061276c5750816101336000610137848154811061274557634e487b7160e01b600052603260045260246000fd5b60009182526020808320909101546001600160a01b03168352820192909252604001902054115b15612784576101395461013854945094505050509091565b6127da610132600061013784815481106127ae57634e487b7160e01b600052603260045260246000fd5b60009182526020808320909101546001600160a01b0316835282019290925260400190205484906121ad565b92506128326101336000610137848154811061280657634e487b7160e01b600052603260045260246000fd5b60009182526020808320909101546001600160a01b0316835282019290925260400190205483906121ad565b91508061283e81613d3d565b9150506126be565b50610138546101395461285891611f69565b8210156128715761013954610138549350935050509091565b90939092509050565b6000818361289b5760405162461bcd60e51b8152600401610a5d9190613ba2565b506000611f3d8486613cb2565b60006128b76002848418613cb2565b610c2e90848416613c9a565b60008060008060006128d4866133ed565b9150915060006128e387613501565b905060006128fb826128f58a876121ad565b906121ad565b98939750909550919350505050565b600080808061291988866123e9565b9050600061292788876123e9565b9050600061293588886123e9565b90506000612947826128f586866121ad565b939b939a50919850919650505050505050565b612964828261351e565b610138546001600160e01b0310156129d75760405162461bcd60e51b815260206004820152603060248201527f4552433230566f7465733a20746f74616c20737570706c79207269736b73206f60448201526f766572666c6f77696e6720766f74657360801b6064820152608401610a5d565b61228a61010261360583613611565b816001600160a01b0316836001600160a01b031614158015612a085750600081115b15612b21576001600160a01b03831615612a97576001600160a01b0383166000908152610101602052604081208190612a44906137b485613611565b91509150846001600160a01b03167fdec2bacdd2f05b59de34da9b523dff8be42e5e38e818c82fdb0bae774387a7248383604051612a8c929190918252602082015260400190565b60405180910390a250505b6001600160a01b03821615612b21576001600160a01b0382166000908152610101602052604081208190612ace9061360585613611565b91509150836001600160a01b03167fdec2bacdd2f05b59de34da9b523dff8be42e5e38e818c82fdb0bae774387a7248383604051612b16929190918252602082015260400190565b60405180910390a250505b505050565b6000807f7fffffffffffffffffffffffffffffff5d576e7357a4501ddfe92f46681b20a0831115612b5d5750600090506003612c0a565b8460ff16601b14158015612b7557508460ff16601c14155b15612b865750600090506004612c0a565b6040805160008082526020820180845289905260ff881692820192909252606081018690526080810185905260019060a0016020604051602081039080840390855afa158015612bda573d6000803e3d6000fd5b5050604051601f1901519150506001600160a01b038116612c0357600060019250925050612c0a565b9150600090505b94509492505050565b6000816004811115612c3557634e487b7160e01b600052602160045260246000fd5b1415612c3e5750565b6001816004811115612c6057634e487b7160e01b600052602160045260246000fd5b1415612cae5760405162461bcd60e51b815260206004820152601860248201527f45434453413a20696e76616c6964207369676e617475726500000000000000006044820152606401610a5d565b6002816004811115612cd057634e487b7160e01b600052602160045260246000fd5b1415612d1e5760405162461bcd60e51b815260206004820152601f60248201527f45434453413a20696e76616c6964207369676e6174757265206c656e677468006044820152606401610a5d565b6003816004811115612d4057634e487b7160e01b600052602160045260246000fd5b1415612d995760405162461bcd60e51b815260206004820152602260248201527f45434453413a20696e76616c6964207369676e6174757265202773272076616c604482015261756560f01b6064820152608401610a5d565b6004816004811115612dbb57634e487b7160e01b600052602160045260246000fd5b141561124b5760405162461bcd60e51b815260206004820152602260248201527f45434453413a20696e76616c6964207369676e6174757265202776272076616c604482015261756560f01b6064820152608401610a5d565b6040805160028082526060820183526000926020830190803683370190505090503081600081518110612e5757634e487b7160e01b600052603260045260246000fd5b60200260200101906001600160a01b031690816001600160a01b0316815250507f00000000000000000000000000000000000000000000000000000000000000006001600160a01b031663ad5c46486040518163ffffffff1660e01b815260040160206040518083038186803b158015612ed057600080fd5b505afa158015612ee4573d6000803e3d6000fd5b505050506040513d601f19601f82011682018060405250810190612f08919061395e565b81600181518110612f2957634e487b7160e01b600052603260045260246000fd5b60200260200101906001600160a01b031690816001600160a01b031681525050612f74307f000000000000000000000000000000000000000000000000000000000000000084611b2d565b60405163791ac94760e01b81526001600160a01b037f0000000000000000000000000000000000000000000000000000000000000000169063791ac94790612fc9908590600090869030904290600401613c2a565b600060405180830381600087803b158015612fe357600080fd5b505af1158015611f04573d6000803e3d6000fd5b613022307f000000000000000000000000000000000000000000000000000000000000000084611b2d565b7f00000000000000000000000000000000000000000000000000000000000000006001600160a01b031663f305d7198230856000806130696065546001600160a01b031690565b60405160e088901b6001600160e01b03191681526001600160a01b03958616600482015260248101949094526044840192909252606483015290911660848201524260a482015260c4016060604051808303818588803b1580156130cc57600080fd5b505af11580156130e0573d6000803e3d6000fd5b50505050506040513d601f19601f820116820180604052508101906131059190613b75565b5050505050565b61013e5415801561311e575061014454155b801561312b575061014054155b1561313257565b61013e805461013f5561014480546101455560009182905581905561014080546101415555565b60008060008060008061316b8761215e565b6001600160a01b038f1660009081526101336020526040902054959b5093995091975095509350915061319e90886121ad565b6001600160a01b038a1660009081526101336020908152604080832093909355610132905220546131cf90876121ad565b6001600160a01b03808b166000908152610132602052604080822093909355908a16815220546131ff9086612026565b6001600160a01b03891660009081526101326020526040902055613222816137c0565b61322c848361384d565b876001600160a01b0316896001600160a01b03167fddf252ad1be2c89b69c2b068fc378daa952ba7f163c4a11628f55a4df523b3ef8560405161327191815260200190565b60405180910390a3505050505050505050565b6000806000806000806132968761215e565b6001600160a01b038f1660009081526101326020526040902054959b509399509197509550935091506132c990876121ad565b6001600160a01b03808b1660009081526101326020908152604080832094909455918b16815261013390915220546133019084612026565b6001600160a01b03891660009081526101336020908152604080832093909355610132905220546131ff9086612026565b6000806000806000806133448761215e565b6001600160a01b038f1660009081526101326020526040902054959b509399509197509550935091506131cf90876121ad565b6000806000806000806133898761215e565b6001600160a01b038f1660009081526101336020526040902054959b509399509197509550935091506133bc90886121ad565b6001600160a01b038a1660009081526101336020908152604080832093909355610132905220546132c990876121ad565b600080600083116134405760405162461bcd60e51b815260206004820152601f60248201527f4d757374207472616e736665722061206e6f6e2d7a65726f20616d6f756e74006044820152606401610a5d565b336000908152610135602052604090205460ff1680613460575061014054155b1561346d57506000929050565b3360009081526101436020526040812054906134898242613cf1565b905061014254811061349f575060009492505050565b60006134c16134ba83610142546121ad90919063ffffffff16565b87906123e9565b905060006134de61014054610142546123e990919063ffffffff16565b90506134ea8282611f69565b95506134f687876121ad565b945050505050915091565b6000610b10606461191261014454856123e990919063ffffffff16565b6001600160a01b0382166135745760405162461bcd60e51b815260206004820152601f60248201527f45524332303a206d696e7420746f20746865207a65726f2061646472657373006044820152606401610a5d565b80603560008282546135869190613c9a565b90915550506001600160a01b038216600090815260336020526040812080548392906135b3908490613c9a565b90915550506040518181526001600160a01b038316906000907fddf252ad1be2c89b69c2b068fc378daa952ba7f163c4a11628f55a4df523b3ef9060200160405180910390a3610e3760008383613875565b6000610c2e8284613c9a565b82546000908190801561366a578561362a600183613cf1565b8154811061364857634e487b7160e01b600052603260045260246000fd5b60009182526020909120015464010000000090046001600160e01b031661366d565b60005b6001600160e01b0316925061368683858763ffffffff16565b91506000811180156136d2575043866136a0600184613cf1565b815481106136be57634e487b7160e01b600052603260045260246000fd5b60009182526020909120015463ffffffff16145b15613740576136e082613880565b866136ec600184613cf1565b8154811061370a57634e487b7160e01b600052603260045260246000fd5b9060005260206000200160000160046101000a8154816001600160e01b0302191690836001600160e01b031602179055506137ab565b85604051806040016040528061375543612290565b63ffffffff16815260200161376985613880565b6001600160e01b0390811690915282546001810184556000938452602093849020835194909301519091166401000000000263ffffffff909316929092179101555b50935093915050565b6000610c2e8284613cf1565b60006137ca611f46565b905060006137d883836123e9565b30600090815261013260205260409020549091506137f69082612026565b30600090815261013260209081526040808320939093556101369052205460ff1615612b215730600090815261013360205260409020546138379084612026565b3060009081526101336020526040902055505050565b6101395461385b90836121ad565b6101395561013a5461386d9082612026565b61013a555050565b612b218383836138e9565b60006001600160e01b038211156122f55760405162461bcd60e51b815260206004820152602760248201527f53616665436173743a2076616c756520646f65736e27742066697420696e20326044820152663234206269747360c81b6064820152608401610a5d565b6001600160a01b0383811660009081526101006020526040808220548584168352912054612b21929182169116836129e6565b8035801515811461392c57600080fd5b919050565b803560ff8116811461392c57600080fd5b600060208284031215613953578081fd5b8135610c2e81613d6e565b60006020828403121561396f578081fd5b8151610c2e81613d6e565b6000806040838503121561398c578081fd5b823561399781613d6e565b915060208301356139a781613d6e565b809150509250929050565b6000806000606084860312156139c6578081fd5b83356139d181613d6e565b925060208401356139e181613d6e565b929592945050506040919091013590565b600080600080600080600060e0888a031215613a0c578283fd5b8735613a1781613d6e565b96506020880135613a2781613d6e565b95506040880135945060608801359350613a4360808901613931565b925060a0880135915060c0880135905092959891949750929550565b60008060408385031215613a71578182fd5b8235613a7c81613d6e565b946020939093013593505050565b60008060008060008060c08789031215613aa2578182fd5b8635613aad81613d6e565b95506020870135945060408701359350613ac960608801613931565b92506080870135915060a087013590509295509295509295565b60008060408385031215613af5578182fd5b8235613b0081613d6e565b9150602083013563ffffffff811681146139a7578182fd5b600060208284031215613b29578081fd5b610c2e8261391c565b600060208284031215613b43578081fd5b5035919050565b60008060408385031215613b5c578182fd5b82359150613b6c6020840161391c565b90509250929050565b600080600060608486031215613b89578283fd5b8351925060208401519150604084015190509250925092565b6000602080835283518082850152825b81811015613bce57858101830151858201604001528201613bb2565b81811115613bdf5783604083870101525b50601f01601f1916929092016040019392505050565b6020808252818101527f4f776e61626c653a2063616c6c6572206973206e6f7420746865206f776e6572604082015260600190565b600060a082018783526020878185015260a0604085015281875180845260c0860191508289019350845b81811015613c795784516001600160a01b031683529383019391830191600101613c54565b50506001600160a01b03969096166060850152505050608001529392505050565b60008219821115613cad57613cad613d58565b500190565b600082613ccd57634e487b7160e01b81526012600452602481fd5b500490565b6000816000190483118215151615613cec57613cec613d58565b500290565b600082821015613d0357613d03613d58565b500390565b600181811c90821680613d1c57607f821691505b602082108114156123e357634e487b7160e01b600052602260045260246000fd5b6000600019821415613d5157613d51613d58565b5060010190565b634e487b7160e01b600052601160045260246000fd5b6001600160a01b038116811461124b57600080fdfe45524332303a207472616e7366657220616d6f756e74206578636565647320616c6c6f77616e636545524332303a2064656372656173656420616c6c6f77616e63652062656c6f77207a65726fa2646970667358221220361b76a6668db26339bc043792351117f7b66f393dcc302d6744cae2867c1da164736f6c63430008040033",
  "immutableReferences": {
    "4827": [
      {
        "length": 32,
        "start": 990
      },
      {
        "length": 32,
        "start": 11897
      },
      {
        "length": 32,
        "start": 12111
      },
      {
        "length": 32,
        "start": 12171
      },
      {
        "length": 32,
        "start": 12285
      },
      {
        "length": 32,
        "start": 12324
      }
    ],
    "4829": [
      {
        "length": 32,
        "start": 1455
      },
      {
        "length": 32,
        "start": 7758
      }
    ]
  },
  "source": "pragma solidity ^0.8.2;\n// SPDX-License-Identifier: Unlicensed\n\n\n// RH: Removed Safemoon IERC20, replaced with openzeppelin IERC20Upgradeable \n// RH: Removed Context, since OwnableUpgradeable implements ContextUpgradeable\n// RH: Removed Ownable, replaced with openzeppelin OwnableUpgradeable \n\n/**\n * @dev Wrappers over Solidity's arithmetic operations with added overflow\n * checks.\n *\n * Arithmetic operations in Solidity wrap on overflow. This can easily result\n * in bugs, because programmers usually assume that an overflow raises an\n * error, which is the standard behavior in high level programming languages.\n * `SafeMath` restores this intuition by reverting the transaction when an\n * operation overflows.\n *\n * Using this library instead of the unchecked operations eliminates an entire\n * class of bugs, so it's recommended to use it always.\n */\n \nlibrary SafeMath {\n    /**\n     * @dev Returns the addition of two unsigned integers, reverting on\n     * overflow.\n     *\n     * Counterpart to Solidity's `+` operator.\n     *\n     * Requirements:\n     *\n     * - Addition cannot overflow.\n     */\n    function add(uint256 a, uint256 b) internal pure returns (uint256) {\n        uint256 c = a + b;\n        require(c >= a, \"SafeMath: addition overflow\");\n\n        return c;\n    }\n\n    /**\n     * @dev Returns the subtraction of two unsigned integers, reverting on\n     * overflow (when the result is negative).\n     *\n     * Counterpart to Solidity's `-` operator.\n     *\n     * Requirements:\n     *\n     * - Subtraction cannot overflow.\n     */\n    function sub(uint256 a, uint256 b) internal pure returns (uint256) {\n        return sub(a, b, \"SafeMath: subtraction overflow\");\n    }\n\n    /**\n     * @dev Returns the subtraction of two unsigned integers, reverting with custom message on\n     * overflow (when the result is negative).\n     *\n     * Counterpart to Solidity's `-` operator.\n     *\n     * Requirements:\n     *\n     * - Subtraction cannot overflow.\n     */\n    function sub(uint256 a, uint256 b, string memory errorMessage) internal pure returns (uint256) {\n        require(b <= a, errorMessage);\n        uint256 c = a - b;\n\n        return c;\n    }\n\n    /**\n     * @dev Returns the multiplication of two unsigned integers, reverting on\n     * overflow.\n     *\n     * Counterpart to Solidity's `*` operator.\n     *\n     * Requirements:\n     *\n     * - Multiplication cannot overflow.\n     */\n    function mul(uint256 a, uint256 b) internal pure returns (uint256) {\n        // Gas optimization: this is cheaper than requiring 'a' not being zero, but the\n        // benefit is lost if 'b' is also tested.\n        // See: https://github.com/OpenZeppelin/openzeppelin-contracts/pull/522\n        if (a == 0) {\n            return 0;\n        }\n\n        uint256 c = a * b;\n        require(c / a == b, \"SafeMath: multiplication overflow\");\n\n        return c;\n    }\n\n    /**\n     * @dev Returns the integer division of two unsigned integers. Reverts on\n     * division by zero. The result is rounded towards zero.\n     *\n     * Counterpart to Solidity's `/` operator. Note: this function uses a\n     * `revert` opcode (which leaves remaining gas untouched) while Solidity\n     * uses an invalid opcode to revert (consuming all remaining gas).\n     *\n     * Requirements:\n     *\n     * - The divisor cannot be zero.\n     */\n    function div(uint256 a, uint256 b) internal pure returns (uint256) {\n        return div(a, b, \"SafeMath: division by zero\");\n    }\n\n    /**\n     * @dev Returns the integer division of two unsigned integers. Reverts with custom message on\n     * division by zero. The result is rounded towards zero.\n     *\n     * Counterpart to Solidity's `/` operator. Note: this function uses a\n     * `revert` opcode (which leaves remaining gas untouched) while Solidity\n     * uses an invalid opcode to revert (consuming all remaining gas).\n     *\n     * Requirements:\n     *\n     * - The divisor cannot be zero.\n     */\n    function div(uint256 a, uint256 b, string memory errorMessage) internal pure returns (uint256) {\n        require(b > 0, errorMessage);\n        uint256 c = a / b;\n        // assert(a == b * c + a % b); // There is no case in which this doesn't hold\n\n        return c;\n    }\n\n    /**\n     * @dev Returns the remainder of dividing two unsigned integers. (unsigned integer modulo),\n     * Reverts when dividing by zero.\n     *\n     * Counterpart to Solidity's `%` operator. This function uses a `revert`\n     * opcode (which leaves remaining gas untouched) while Solidity uses an\n     * invalid opcode to revert (consuming all remaining gas).\n     *\n     * Requirements:\n     *\n     * - The divisor cannot be zero.\n     */\n    function mod(uint256 a, uint256 b) internal pure returns (uint256) {\n        return mod(a, b, \"SafeMath: modulo by zero\");\n    }\n\n    /**\n     * @dev Returns the remainder of dividing two unsigned integers. (unsigned integer modulo),\n     * Reverts with custom message when dividing by zero.\n     *\n     * Counterpart to Solidity's `%` operator. This function uses a `revert`\n     * opcode (which leaves remaining gas untouched) while Solidity uses an\n     * invalid opcode to revert (consuming all remaining gas).\n     *\n     * Requirements:\n     *\n     * - The divisor cannot be zero.\n     */\n    function mod(uint256 a, uint256 b, string memory errorMessage) internal pure returns (uint256) {\n        require(b != 0, errorMessage);\n        return a % b;\n    }\n}\n\n\n/**\n * @dev Collection of functions related to the address type\n */\nlibrary Address {\n    /**\n     * @dev Returns true if `account` is a contract.\n     *\n     * [IMPORTANT]\n     * ====\n     * It is unsafe to assume that an address for which this function returns\n     * false is an externally-owned account (EOA) and not a contract.\n     *\n     * Among others, `isContract` will return false for the following\n     * types of addresses:\n     *\n     *  - an externally-owned account\n     *  - a contract in construction\n     *  - an address where a contract will be created\n     *  - an address where a contract lived, but was destroyed\n     * ====\n     */\n    function isContract(address account) internal view returns (bool) {\n        // According to EIP-1052, 0x0 is the value returned for not-yet created accounts\n        // and 0xc5d2460186f7233c927e7db2dcc703c0e500b653ca82273b7bfad8045d85a470 is returned\n        // for accounts without code, i.e. `keccak256('')`\n        bytes32 codehash;\n        bytes32 accountHash = 0xc5d2460186f7233c927e7db2dcc703c0e500b653ca82273b7bfad8045d85a470;\n        // solhint-disable-next-line no-inline-assembly\n        assembly { codehash := extcodehash(account) }\n        return (codehash != accountHash && codehash != 0x0);\n    }\n\n    /**\n     * @dev Replacement for Solidity's `transfer`: sends `amount` wei to\n     * `recipient`, forwarding all available gas and reverting on errors.\n     *\n     * https://eips.ethereum.org/EIPS/eip-1884[EIP1884] increases the gas cost\n     * of certain opcodes, possibly making contracts go over the 2300 gas limit\n     * imposed by `transfer`, making them unable to receive funds via\n     * `transfer`. {sendValue} removes this limitation.\n     *\n     * https://diligence.consensys.net/posts/2019/09/stop-using-soliditys-transfer-now/[Learn more].\n     *\n     * IMPORTANT: because control is transferred to `recipient`, care must be\n     * taken to not create reentrancy vulnerabilities. Consider using\n     * {ReentrancyGuard} or the\n     * https://solidity.readthedocs.io/en/v0.5.11/security-considerations.html#use-the-checks-effects-interactions-pattern[checks-effects-interactions pattern].\n     */\n    function sendValue(address payable recipient, uint256 amount) internal {\n        require(address(this).balance >= amount, \"Address: insufficient balance\");\n\n        // solhint-disable-next-line avoid-low-level-calls, avoid-call-value\n        (bool success, ) = recipient.call{ value: amount }(\"\");\n        require(success, \"Address: unable to send value, recipient may have reverted\");\n    }\n\n    /**\n     * @dev Performs a Solidity function call using a low level `call`. A\n     * plain`call` is an unsafe replacement for a function call: use this\n     * function instead.\n     *\n     * If `target` reverts with a revert reason, it is bubbled up by this\n     * function (like regular Solidity function calls).\n     *\n     * Returns the raw returned data. To convert to the expected return value,\n     * use https://solidity.readthedocs.io/en/latest/units-and-global-variables.html?highlight=abi.decode#abi-encoding-and-decoding-functions[`abi.decode`].\n     *\n     * Requirements:\n     *\n     * - `target` must be a contract.\n     * - calling `target` with `data` must not revert.\n     *\n     * _Available since v3.1._\n     */\n    function functionCall(address target, bytes memory data) internal returns (bytes memory) {\n      return functionCall(target, data, \"Address: low-level call failed\");\n    }\n\n    /**\n     * @dev Same as {xref-Address-functionCall-address-bytes-}[`functionCall`], but with\n     * `errorMessage` as a fallback revert reason when `target` reverts.\n     *\n     * _Available since v3.1._\n     */\n    function functionCall(address target, bytes memory data, string memory errorMessage) internal returns (bytes memory) {\n        return _functionCallWithValue(target, data, 0, errorMessage);\n    }\n\n    /**\n     * @dev Same as {xref-Address-functionCall-address-bytes-}[`functionCall`],\n     * but also transferring `value` wei to `target`.\n     *\n     * Requirements:\n     *\n     * - the calling contract must have an ETH balance of at least `value`.\n     * - the called Solidity function must be `payable`.\n     *\n     * _Available since v3.1._\n     */\n    function functionCallWithValue(address target, bytes memory data, uint256 value) internal returns (bytes memory) {\n        return functionCallWithValue(target, data, value, \"Address: low-level call with value failed\");\n    }\n\n    /**\n     * @dev Same as {xref-Address-functionCallWithValue-address-bytes-uint256-}[`functionCallWithValue`], but\n     * with `errorMessage` as a fallback revert reason when `target` reverts.\n     *\n     * _Available since v3.1._\n     */\n    function functionCallWithValue(address target, bytes memory data, uint256 value, string memory errorMessage) internal returns (bytes memory) {\n        require(address(this).balance >= value, \"Address: insufficient balance for call\");\n        return _functionCallWithValue(target, data, value, errorMessage);\n    }\n\n    function _functionCallWithValue(address target, bytes memory data, uint256 weiValue, string memory errorMessage) private returns (bytes memory) {\n        require(isContract(target), \"Address: call to non-contract\");\n\n        // solhint-disable-next-line avoid-low-level-calls\n        (bool success, bytes memory returndata) = target.call{ value: weiValue }(data);\n        if (success) {\n            return returndata;\n        } else {\n            // Look for revert reason and bubble it up if present\n            if (returndata.length > 0) {\n                // The easiest way to bubble the revert reason is using memory via assembly\n\n                // solhint-disable-next-line no-inline-assembly\n                assembly {\n                    let returndata_size := mload(returndata)\n                    revert(add(32, returndata), returndata_size)\n                }\n            } else {\n                revert(errorMessage);\n            }\n        }\n    }\n}\n\n\n// pragma solidity >=0.5.0;\n\ninterface IUniswapV2Factory {\n    event PairCreated(address indexed token0, address indexed token1, address pair, uint);\n\n    function feeTo() external view returns (address);\n    function feeToSetter() external view returns (address);\n\n    function getPair(address tokenA, address tokenB) external view returns (address pair);\n    function allPairs(uint) external view returns (address pair);\n    function allPairsLength() external view returns (uint);\n\n    function createPair(address tokenA, address tokenB) external returns (address pair);\n\n    function setFeeTo(address) external;\n    function setFeeToSetter(address) external;\n}\n\n\n// pragma solidity >=0.5.0;\n\ninterface IUniswapV2Pair {\n    event Approval(address indexed owner, address indexed spender, uint value);\n    event Transfer(address indexed from, address indexed to, uint value);\n\n    function name() external pure returns (string memory);\n    function symbol() external pure returns (string memory);\n    function decimals() external pure returns (uint8);\n    function totalSupply() external view returns (uint);\n    function balanceOf(address owner) external view returns (uint);\n    function allowance(address owner, address spender) external view returns (uint);\n\n    function approve(address spender, uint value) external returns (bool);\n    function transfer(address to, uint value) external returns (bool);\n    function transferFrom(address from, address to, uint value) external returns (bool);\n\n    function DOMAIN_SEPARATOR() external view returns (bytes32);\n    function PERMIT_TYPEHASH() external pure returns (bytes32);\n    function nonces(address owner) external view returns (uint);\n\n    function permit(address owner, address spender, uint value, uint deadline, uint8 v, bytes32 r, bytes32 s) external;\n\n    event Mint(address indexed sender, uint amount0, uint amount1);\n    event Burn(address indexed sender, uint amount0, uint amount1, address indexed to);\n    event Swap(\n        address indexed sender,\n        uint amount0In,\n        uint amount1In,\n        uint amount0Out,\n        uint amount1Out,\n        address indexed to\n    );\n    event Sync(uint112 reserve0, uint112 reserve1);\n\n    function MINIMUM_LIQUIDITY() external pure returns (uint);\n    function factory() external view returns (address);\n    function token0() external view returns (address);\n    function token1() external view returns (address);\n    function getReserves() external view returns (uint112 reserve0, uint112 reserve1, uint32 blockTimestampLast);\n    function price0CumulativeLast() external view returns (uint);\n    function price1CumulativeLast() external view returns (uint);\n    function kLast() external view returns (uint);\n\n    function mint(address to) external returns (uint liquidity);\n    function burn(address to) external returns (uint amount0, uint amount1);\n    function swap(uint amount0Out, uint amount1Out, address to, bytes calldata data) external;\n    function skim(address to) external;\n    function sync() external;\n\n    function initialize(address, address) external;\n}\n\n// pragma solidity >=0.6.2;\n\ninterface IUniswapV2Router01 {\n    function factory() external pure returns (address);\n    function WETH() external pure returns (address);\n\n    function addLiquidity(\n        address tokenA,\n        address tokenB,\n        uint amountADesired,\n        uint amountBDesired,\n        uint amountAMin,\n        uint amountBMin,\n        address to,\n        uint deadline\n    ) external returns (uint amountA, uint amountB, uint liquidity);\n    function addLiquidityETH(\n        address token,\n        uint amountTokenDesired,\n        uint amountTokenMin,\n        uint amountETHMin,\n        address to,\n        uint deadline\n    ) external payable returns (uint amountToken, uint amountETH, uint liquidity);\n    function removeLiquidity(\n        address tokenA,\n        address tokenB,\n        uint liquidity,\n        uint amountAMin,\n        uint amountBMin,\n        address to,\n        uint deadline\n    ) external returns (uint amountA, uint amountB);\n    function removeLiquidityETH(\n        address token,\n        uint liquidity,\n        uint amountTokenMin,\n        uint amountETHMin,\n        address to,\n        uint deadline\n    ) external returns (uint amountToken, uint amountETH);\n    function removeLiquidityWithPermit(\n        address tokenA,\n        address tokenB,\n        uint liquidity,\n        uint amountAMin,\n        uint amountBMin,\n        address to,\n        uint deadline,\n        bool approveMax, uint8 v, bytes32 r, bytes32 s\n    ) external returns (uint amountA, uint amountB);\n    function removeLiquidityETHWithPermit(\n        address token,\n        uint liquidity,\n        uint amountTokenMin,\n        uint amountETHMin,\n        address to,\n        uint deadline,\n        bool approveMax, uint8 v, bytes32 r, bytes32 s\n    ) external returns (uint amountToken, uint amountETH);\n    function swapExactTokensForTokens(\n        uint amountIn,\n        uint amountOutMin,\n        address[] calldata path,\n        address to,\n        uint deadline\n    ) external returns (uint[] memory amounts);\n    function swapTokensForExactTokens(\n        uint amountOut,\n        uint amountInMax,\n        address[] calldata path,\n        address to,\n        uint deadline\n    ) external returns (uint[] memory amounts);\n    function swapExactETHForTokens(uint amountOutMin, address[] calldata path, address to, uint deadline)\n        external\n        payable\n        returns (uint[] memory amounts);\n    function swapTokensForExactETH(uint amountOut, uint amountInMax, address[] calldata path, address to, uint deadline)\n        external\n        returns (uint[] memory amounts);\n    function swapExactTokensForETH(uint amountIn, uint amountOutMin, address[] calldata path, address to, uint deadline)\n        external\n        returns (uint[] memory amounts);\n    function swapETHForExactTokens(uint amountOut, address[] calldata path, address to, uint deadline)\n        external\n        payable\n        returns (uint[] memory amounts);\n\n    function quote(uint amountA, uint reserveA, uint reserveB) external pure returns (uint amountB);\n    function getAmountOut(uint amountIn, uint reserveIn, uint reserveOut) external pure returns (uint amountOut);\n    function getAmountIn(uint amountOut, uint reserveIn, uint reserveOut) external pure returns (uint amountIn);\n    function getAmountsOut(uint amountIn, address[] calldata path) external view returns (uint[] memory amounts);\n    function getAmountsIn(uint amountOut, address[] calldata path) external view returns (uint[] memory amounts);\n}\n\n\n\n// pragma solidity >=0.6.2;\n\ninterface IUniswapV2Router02 is IUniswapV2Router01 {\n    function removeLiquidityETHSupportingFeeOnTransferTokens(\n        address token,\n        uint liquidity,\n        uint amountTokenMin,\n        uint amountETHMin,\n        address to,\n        uint deadline\n    ) external returns (uint amountETH);\n    function removeLiquidityETHWithPermitSupportingFeeOnTransferTokens(\n        address token,\n        uint liquidity,\n        uint amountTokenMin,\n        uint amountETHMin,\n        address to,\n        uint deadline,\n        bool approveMax, uint8 v, bytes32 r, bytes32 s\n    ) external returns (uint amountETH);\n\n    function swapExactTokensForTokensSupportingFeeOnTransferTokens(\n        uint amountIn,\n        uint amountOutMin,\n        address[] calldata path,\n        address to,\n        uint deadline\n    ) external;\n    function swapExactETHForTokensSupportingFeeOnTransferTokens(\n        uint amountOutMin,\n        address[] calldata path,\n        address to,\n        uint deadline\n    ) external payable;\n    function swapExactTokensForETHSupportingFeeOnTransferTokens(\n        uint amountIn,\n        uint amountOutMin,\n        address[] calldata path,\n        address to,\n        uint deadline\n    ) external;\n}\n\n\n// RH: Changed IERC20 to ERC20 \nimport \"./@openzeppelin/contracts-upgradeable/token/ERC20/extensions/ERC20VotesUpgradeable.sol\"; \nimport \"./@openzeppelin/contracts-upgradeable/token/ERC20/ERC20Upgradeable.sol\"; \nimport \"./@openzeppelin/contracts-upgradeable/access/OwnableUpgradeable.sol\"; \nimport \"./@openzeppelin/contracts-upgradeable/token/ERC20/extensions/draft-ERC20PermitUpgradeable.sol\"; \n\n\ncontract EARTH is ERC20Upgradeable, OwnableUpgradeable, ERC20PermitUpgradeable, ERC20VotesUpgradeable {\n    using SafeMath for uint256;\n    using Address for address;\n\n    mapping (address => uint256) private _rOwned;\n    mapping (address => uint256) private _tOwned;\n    mapping (address => mapping (address => uint256)) private _allowances;\n\n    mapping (address => bool) private _isExcludedFromFee;\n\n    mapping (address => bool) private _isExcluded;\n    address[] private _excluded;\n   \n    uint256 private constant MAX = ~uint256(0);\n    uint256 private _tTotal = 1000000000 * 10**6 * 10**9;\n    uint256 private _rTotal = (MAX - (MAX % _tTotal));\n    uint256 private _tFeeTotal;\n\n    string private _name = \"Earth\";\n    string private _symbol = \"EARTH\";\n    uint8 private _decimals = 9;\n    \n    uint256 public _taxFee = 5;\n    uint256 private _previousTaxFee = _taxFee;\n\n    // RH: \n    uint256 public _initialTaxFee = 10; \n    uint256 private _previousInitialTaxFee = _initialTaxFee; \n    uint256 public _expiry = 15780000; // QUESTION: this is just a rough estimate. is that okay?\n    mapping(address => uint256) internal _lastTokenTransferTime;\n    \n    uint256 public _liquidityFee = 5;\n    uint256 private _previousLiquidityFee = _liquidityFee;\n\n    IUniswapV2Router02 public immutable uniswapV2Router;\n    address public immutable uniswapV2Pair;\n    \n    bool inSwapAndLiquify;\n    bool public swapAndLiquifyEnabled = true;\n    \n    uint256 public _maxTxAmount = 5000000 * 10**6 * 10**9;\n    uint256 private numTokensSellToAddToLiquidity = 500000 * 10**6 * 10**9;\n    \n    event MinTokensBeforeSwapUpdated(uint256 minTokensBeforeSwap);\n    event SwapAndLiquifyEnabledUpdated(bool enabled);\n    event SwapAndLiquify(\n        uint256 tokensSwapped,\n        uint256 ethReceived,\n        uint256 tokensIntoLiqudity\n    );\n    \n    modifier lockTheSwap {\n        inSwapAndLiquify = true;\n        _;\n        inSwapAndLiquify = false;\n    }\n    \n    // RH: removed public; constructor visibility is ignored \n    // Question about constructor in notion \n    constructor () ERC20Upgradeable() ERC20PermitUpgradeable() {\n        _rOwned[_msgSender()] = _rTotal;\n        \n        IUniswapV2Router02 _uniswapV2Router = IUniswapV2Router02(0x05fF2B0DB69458A0750badebc4f9e13aDd608C7F);\n         // Create a uniswap pair for this new token\n        uniswapV2Pair = IUniswapV2Factory(_uniswapV2Router.factory())\n            .createPair(address(this), _uniswapV2Router.WETH());\n\n        // set the rest of the contract variables\n        uniswapV2Router = _uniswapV2Router;\n        \n        //exclude owner and this contract from fee\n        _isExcludedFromFee[owner()] = true;\n        _isExcludedFromFee[address(this)] = true;\n        \n        emit Transfer(address(0), _msgSender(), _tTotal);\n    }\n\n    // RH: added a bunch of overrides after adding ERC20VotesUpgradeable \n    function name() public view override returns (string memory) {\n        return _name;\n    }\n\n    function symbol() public view override returns (string memory) {\n        return _symbol;\n    }\n\n    function decimals() public view override returns (uint8) {\n        return _decimals;\n    }\n\n    function totalSupply() public view override returns (uint256) {\n        return _tTotal;\n    }\n\n    function balanceOf(address account) public view override returns (uint256) {\n        if (_isExcluded[account]) return _tOwned[account];\n        return tokenFromReflection(_rOwned[account]);\n    }\n\n    function transfer(address recipient, uint256 amount) public override returns (bool) {\n        _transfer(_msgSender(), recipient, amount);\n        return true;\n    }\n\n    function allowance(address owner, address spender) public view override returns (uint256) {\n        return _allowances[owner][spender];\n    }\n\n    function approve(address spender, uint256 amount) public override returns (bool) {\n        _approve(_msgSender(), spender, amount);\n        return true;\n    }\n\n    function transferFrom(address sender, address recipient, uint256 amount) public override returns (bool) {\n        _transfer(sender, recipient, amount);\n        _approve(sender, _msgSender(), _allowances[sender][_msgSender()].sub(amount, \"ERC20: transfer amount exceeds allowance\"));\n        return true;\n    }\n\n    function increaseAllowance(address spender, uint256 addedValue) public virtual override returns (bool) {\n        _approve(_msgSender(), spender, _allowances[_msgSender()][spender].add(addedValue));\n        return true;\n    }\n\n    function decreaseAllowance(address spender, uint256 subtractedValue) public virtual override returns (bool) {\n        _approve(_msgSender(), spender, _allowances[_msgSender()][spender].sub(subtractedValue, \"ERC20: decreased allowance below zero\"));\n        return true;\n    }\n\n    function isExcludedFromReward(address account) public view returns (bool) {\n        return _isExcluded[account];\n    }\n\n    function totalFees() public view returns (uint256) {\n        return _tFeeTotal;\n    }\n\n\n    // RH: \n    function _calculateTaxFee(uint256 amount) internal view returns (uint256 feeTaken, uint256 transferAmount) {\n        \n        /**\n         *  The actual calculation is: \n         *  \n         *  initialFee = amount / initialTax \n         *  taxFraction = (expiry - timeSince) / expiry\n         *  actualFee = initialFee * taxFraction \n         *  \n         *  To avoid decimal issues, it's best to multiply all the numerators first, then denominators\n         *  \n         *  feeNumerator = amount * (expiry - timeSince) \n         *  feeDenominator = expiry * initialTax            // Requires a non-zero initialTaxFee \n         *  actualFee = feeNumerator / feeDenominator \n         *  \n         */\n\n        require(amount > 0, \"Must transfer a non-zero amount\"); \n        \n        // QUESTION: is this what the mapping was intended for? \n        if(isExcludedFromFee(msg.sender) || _initialTaxFee == 0) {\n            return (0, amount); \n        }\n\n        uint256 lastTransferTime = _lastTokenTransferTime[msg.sender]; \n        uint256 timeSince = block.timestamp - lastTransferTime; \n\n        if(timeSince >= _expiry) {\n            return (0, amount); \n        }\n\n        uint256 feeNumerator = amount.mul(_expiry.sub(timeSince)); \n        uint256 feeDenominator = _expiry.mul(_initialTaxFee); \n        feeTaken = feeNumerator.div(feeDenominator); \n        transferAmount = amount.sub(feeTaken); \n\n        return (feeTaken, transferAmount); \n\n    }\n\n\n\n\n    function deliver(uint256 tAmount) public {\n        address sender = _msgSender();\n        require(!_isExcluded[sender], \"Excluded addresses cannot call this function\");\n        (uint256 rAmount,,,,,) = _getValues(tAmount);\n        _rOwned[sender] = _rOwned[sender].sub(rAmount);\n        _rTotal = _rTotal.sub(rAmount);\n        _tFeeTotal = _tFeeTotal.add(tAmount);\n    }\n\n    function reflectionFromToken(uint256 tAmount, bool deductTransferFee) public view returns(uint256) {\n        require(tAmount <= _tTotal, \"Amount must be less than supply\");\n        if (!deductTransferFee) {\n            (uint256 rAmount,,,,,) = _getValues(tAmount);\n            return rAmount;\n        } else {\n            (,uint256 rTransferAmount,,,,) = _getValues(tAmount);\n            return rTransferAmount;\n        }\n    }\n\n    function tokenFromReflection(uint256 rAmount) public view returns(uint256) {\n        require(rAmount <= _rTotal, \"Amount must be less than total reflections\");\n        uint256 currentRate =  _getRate();\n        return rAmount.div(currentRate);\n    }\n\n    function excludeFromReward(address account) public onlyOwner() {\n        // require(account != 0x7a250d5630B4cF539739dF2C5dAcb4c659F2488D, 'We can not exclude Uniswap router.');\n        require(!_isExcluded[account], \"Account is already excluded\");\n        if(_rOwned[account] > 0) {\n            _tOwned[account] = tokenFromReflection(_rOwned[account]);\n        }\n        _isExcluded[account] = true;\n        _excluded.push(account);\n    }\n\n    function includeInReward(address account) external onlyOwner() {\n        require(_isExcluded[account], \"Account is already excluded\");\n        for (uint256 i = 0; i < _excluded.length; i++) {\n            if (_excluded[i] == account) {\n                _excluded[i] = _excluded[_excluded.length - 1];\n                _tOwned[account] = 0;\n                _isExcluded[account] = false;\n                _excluded.pop();\n                break;\n            }\n        }\n    }\n\n    function _transferBothExcluded(address sender, address recipient, uint256 tAmount) private {\n        (uint256 rAmount, uint256 rTransferAmount, uint256 rFee, uint256 tTransferAmount, uint256 tFee, uint256 tLiquidity) = _getValues(tAmount);\n        _tOwned[sender] = _tOwned[sender].sub(tAmount);\n        _rOwned[sender] = _rOwned[sender].sub(rAmount);\n        _tOwned[recipient] = _tOwned[recipient].add(tTransferAmount);\n        _rOwned[recipient] = _rOwned[recipient].add(rTransferAmount);        \n        _takeLiquidity(tLiquidity);\n        _reflectFee(rFee, tFee);\n        emit Transfer(sender, recipient, tTransferAmount);\n    }\n    \n    function excludeFromFee(address account) public onlyOwner {\n        _isExcludedFromFee[account] = true;\n    }\n    \n    function includeInFee(address account) public onlyOwner {\n        _isExcludedFromFee[account] = false;\n    }\n    \n\n    // QUESTION: are we still using this variable for something else? \n    function setTaxFeePercent(uint256 taxFee) external onlyOwner() {\n        _taxFee = taxFee;\n    }\n\n    // RH: \n    function setInitialTaxFee(uint256 initialTaxFee) external onlyOwner() {\n        _initialTaxFee = initialTaxFee; \n    }\n    \n    function setLiquidityFeePercent(uint256 liquidityFee) external onlyOwner() {\n        _liquidityFee = liquidityFee;\n    }\n   \n    function setMaxTxPercent(uint256 maxTxPercent) external onlyOwner() {\n        _maxTxAmount = _tTotal.mul(maxTxPercent).div(\n            10**2\n        );\n    }\n\n    function setSwapAndLiquifyEnabled(bool _enabled) public onlyOwner {\n        swapAndLiquifyEnabled = _enabled;\n        emit SwapAndLiquifyEnabledUpdated(_enabled);\n    }\n    \n     //to recieve ETH from uniswapV2Router when swaping\n    receive() external payable {}\n\n    function _reflectFee(uint256 rFee, uint256 tFee) private {\n        _rTotal = _rTotal.sub(rFee);\n        _tFeeTotal = _tFeeTotal.add(tFee);\n    }\n\n    function _getValues(uint256 tAmount) private view returns (uint256, uint256, uint256, uint256, uint256, uint256) {\n        (uint256 tTransferAmount, uint256 tFee, uint256 tLiquidity) = _getTValues(tAmount);\n        (uint256 rAmount, uint256 rTransferAmount, uint256 rFee) = _getRValues(tAmount, tFee, tLiquidity, _getRate());\n        return (rAmount, rTransferAmount, rFee, tTransferAmount, tFee, tLiquidity);\n    }\n\n    function _getTValues(uint256 tAmount) private view returns (uint256, uint256, uint256) {\n        // RH: \n        (uint256 tFee, uint256 _transferAmount) = _calculateTaxFee(tAmount);\n        uint256 tLiquidity = calculateLiquidityFee(tAmount);\n        uint256 tTransferAmount = tAmount.sub(tFee).sub(tLiquidity);\n        return (tTransferAmount, tFee, tLiquidity);\n    }\n\n    function _getRValues(uint256 tAmount, uint256 tFee, uint256 tLiquidity, uint256 currentRate) private pure returns (uint256, uint256, uint256) {\n        uint256 rAmount = tAmount.mul(currentRate);\n        uint256 rFee = tFee.mul(currentRate);\n        uint256 rLiquidity = tLiquidity.mul(currentRate);\n        uint256 rTransferAmount = rAmount.sub(rFee).sub(rLiquidity);\n        return (rAmount, rTransferAmount, rFee);\n    }\n\n    function _getRate() private view returns(uint256) {\n        (uint256 rSupply, uint256 tSupply) = _getCurrentSupply();\n        return rSupply.div(tSupply);\n    }\n\n    function _getCurrentSupply() private view returns(uint256, uint256) {\n        uint256 rSupply = _rTotal;\n        uint256 tSupply = _tTotal;      \n        for (uint256 i = 0; i < _excluded.length; i++) {\n            if (_rOwned[_excluded[i]] > rSupply || _tOwned[_excluded[i]] > tSupply) return (_rTotal, _tTotal);\n            rSupply = rSupply.sub(_rOwned[_excluded[i]]);\n            tSupply = tSupply.sub(_tOwned[_excluded[i]]);\n        }\n        if (rSupply < _rTotal.div(_tTotal)) return (_rTotal, _tTotal);\n        return (rSupply, tSupply);\n    }\n    \n    function _takeLiquidity(uint256 tLiquidity) private {\n        uint256 currentRate =  _getRate();\n        uint256 rLiquidity = tLiquidity.mul(currentRate);\n        _rOwned[address(this)] = _rOwned[address(this)].add(rLiquidity);\n        if(_isExcluded[address(this)])\n            _tOwned[address(this)] = _tOwned[address(this)].add(tLiquidity);\n    }\n    \n    // function calculateTaxFee(uint256 _amount) private view returns (uint256) {\n    //     return _amount.mul(_taxFee).div(\n    //         10**2\n    //     );\n    // }\n\n    function calculateLiquidityFee(uint256 _amount) private view returns (uint256) {\n        return _amount.mul(_liquidityFee).div(\n            10**2\n        );\n    }\n    \n    function removeAllFee() private {\n        // RH: \n        if(_taxFee == 0 && _liquidityFee == 0 && _initialTaxFee == 0) return;\n        \n        _previousTaxFee = _taxFee;\n        _previousLiquidityFee = _liquidityFee;\n        \n        _taxFee = 0;\n        _liquidityFee = 0;\n\n        // RH: \n        _previousInitialTaxFee = _initialTaxFee; \n        _initialTaxFee = 0; \n        \n    }\n    \n    function restoreAllFee() private {\n        _taxFee = _previousTaxFee;\n        // RH: \n        _initialTaxFee = _previousInitialTaxFee; \n        _liquidityFee = _previousLiquidityFee;\n    }\n    \n    function isExcludedFromFee(address account) public view returns(bool) {\n        return _isExcludedFromFee[account];\n    }\n\n\n    // RH: parent has visibility internal (changed from private)\n    function _approve(address owner, address spender, uint256 amount) internal override {\n        require(owner != address(0), \"ERC20: approve from the zero address\");\n        require(spender != address(0), \"ERC20: approve to the zero address\");\n\n        _allowances[owner][spender] = amount;\n        emit Approval(owner, spender, amount);\n    }\n\n    // RH: parent has visibility internal (changed from private)\n    function _transfer(\n        address from,\n        address to,\n        uint256 amount\n    ) internal override {\n        require(from != address(0), \"ERC20: transfer from the zero address\");\n        require(to != address(0), \"ERC20: transfer to the zero address\");\n        require(amount > 0, \"Transfer amount must be greater than zero\");\n        if(from != owner() && to != owner())\n            require(amount <= _maxTxAmount, \"Transfer amount exceeds the maxTxAmount.\");\n\n        // is the token balance of this contract address over the min number of\n        // tokens that we need to initiate a swap + liquidity lock?\n        // also, don't get caught in a circular liquidity event.\n        // also, don't swap & liquify if sender is uniswap pair.\n        uint256 contractTokenBalance = balanceOf(address(this));\n        \n        if(contractTokenBalance >= _maxTxAmount)\n        {\n            contractTokenBalance = _maxTxAmount;\n        }\n        \n        bool overMinTokenBalance = contractTokenBalance >= numTokensSellToAddToLiquidity;\n        if (\n            overMinTokenBalance &&\n            !inSwapAndLiquify &&\n            from != uniswapV2Pair &&\n            swapAndLiquifyEnabled\n        ) {\n            contractTokenBalance = numTokensSellToAddToLiquidity;\n            //add liquidity\n            swapAndLiquify(contractTokenBalance);\n        }\n        \n        //indicates if fee should be deducted from transfer\n        bool takeFee = true;\n        \n        //if any account belongs to _isExcludedFromFee account then remove the fee\n        if(_isExcludedFromFee[from] || _isExcludedFromFee[to]){\n            takeFee = false;\n        }\n        \n        //transfer amount, it will take tax, burn, liquidity fee\n        _tokenTransfer(from,to,amount,takeFee);\n    }\n\n    function swapAndLiquify(uint256 contractTokenBalance) private lockTheSwap {\n        // split the contract balance into halves\n        uint256 half = contractTokenBalance.div(2);\n        uint256 otherHalf = contractTokenBalance.sub(half);\n\n        // capture the contract's current ETH balance.\n        // this is so that we can capture exactly the amount of ETH that the\n        // swap creates, and not make the liquidity event include any ETH that\n        // has been manually sent to the contract\n        uint256 initialBalance = address(this).balance;\n\n        // swap tokens for ETH\n        swapTokensForEth(half); // <- this breaks the ETH -> HATE swap when swap+liquify is triggered\n\n        // how much ETH did we just swap into?\n        uint256 newBalance = address(this).balance.sub(initialBalance);\n\n        // add liquidity to uniswap\n        addLiquidity(otherHalf, newBalance);\n        \n        emit SwapAndLiquify(half, newBalance, otherHalf);\n    }\n\n    function swapTokensForEth(uint256 tokenAmount) private {\n        // generate the uniswap pair path of token -> weth\n        address[] memory path = new address[](2);\n        path[0] = address(this);\n        path[1] = uniswapV2Router.WETH();\n\n        _approve(address(this), address(uniswapV2Router), tokenAmount);\n\n        // make the swap\n        uniswapV2Router.swapExactTokensForETHSupportingFeeOnTransferTokens(\n            tokenAmount,\n            0, // accept any amount of ETH\n            path,\n            address(this),\n            block.timestamp\n        );\n    }\n\n    function addLiquidity(uint256 tokenAmount, uint256 ethAmount) private {\n        // approve token transfer to cover all possible scenarios\n        _approve(address(this), address(uniswapV2Router), tokenAmount);\n\n        // add the liquidity\n        uniswapV2Router.addLiquidityETH{value: ethAmount}(\n            address(this),\n            tokenAmount,\n            0, // slippage is unavoidable\n            0, // slippage is unavoidable\n            owner(),\n            block.timestamp\n        );\n    }\n\n    //this method is responsible for taking all fee, if takeFee is true\n    function _tokenTransfer(address sender, address recipient, uint256 amount,bool takeFee) private {\n\n        // RH: QUESTION: Doesn't this remove fees for everyone though since it's an application state? \n        if(!takeFee)\n            removeAllFee();\n        \n        // RH: QUESTION: why is this so complicated? \n        if (_isExcluded[sender] && !_isExcluded[recipient]) {\n            _transferFromExcluded(sender, recipient, amount);\n        } else if (!_isExcluded[sender] && _isExcluded[recipient]) {\n            _transferToExcluded(sender, recipient, amount);\n        } else if (!_isExcluded[sender] && !_isExcluded[recipient]) {\n            _transferStandard(sender, recipient, amount);\n        } else if (_isExcluded[sender] && _isExcluded[recipient]) {\n            _transferBothExcluded(sender, recipient, amount);\n        } else {\n            _transferStandard(sender, recipient, amount);\n        }\n\n        // RH: Update the last time the recipient was transferred tokens \n        _lastTokenTransferTime[recipient] = block.timestamp; \n        \n        if(!takeFee)\n            restoreAllFee();\n    }\n\n    function _transferStandard(address sender, address recipient, uint256 tAmount) private {\n        (uint256 rAmount, uint256 rTransferAmount, uint256 rFee, uint256 tTransferAmount, uint256 tFee, uint256 tLiquidity) = _getValues(tAmount);\n        _rOwned[sender] = _rOwned[sender].sub(rAmount);\n        _rOwned[recipient] = _rOwned[recipient].add(rTransferAmount);\n        _takeLiquidity(tLiquidity);\n        _reflectFee(rFee, tFee);\n        emit Transfer(sender, recipient, tTransferAmount);\n    }\n\n    function _transferToExcluded(address sender, address recipient, uint256 tAmount) private {\n        (uint256 rAmount, uint256 rTransferAmount, uint256 rFee, uint256 tTransferAmount, uint256 tFee, uint256 tLiquidity) = _getValues(tAmount);\n        _rOwned[sender] = _rOwned[sender].sub(rAmount);\n        _tOwned[recipient] = _tOwned[recipient].add(tTransferAmount);\n        _rOwned[recipient] = _rOwned[recipient].add(rTransferAmount);           \n        _takeLiquidity(tLiquidity);\n        _reflectFee(rFee, tFee);\n        emit Transfer(sender, recipient, tTransferAmount);\n    }\n\n    function _transferFromExcluded(address sender, address recipient, uint256 tAmount) private {\n        (uint256 rAmount, uint256 rTransferAmount, uint256 rFee, uint256 tTransferAmount, uint256 tFee, uint256 tLiquidity) = _getValues(tAmount);\n        _tOwned[sender] = _tOwned[sender].sub(tAmount);\n        _rOwned[sender] = _rOwned[sender].sub(rAmount);\n        _rOwned[recipient] = _rOwned[recipient].add(rTransferAmount);   \n        _takeLiquidity(tLiquidity);\n        _reflectFee(rFee, tFee);\n        emit Transfer(sender, recipient, tTransferAmount);\n    }\n\n\n    // RH: \n    // These overrides seem completely useless, since Earth only implements the interface, \n    //      not the actual ERC20 contract. So the only parent implementing these functions \n    //      is ERC20VotesUpgradeable. \n    // I changed it so that Earth is ERC20Upgradeable \n    function mint(address to, uint256 amount) public onlyOwner {\n        _mint(to, amount);\n    }\n\n    // The following functions are overrides required by Solidity.\n    function _afterTokenTransfer(address from, address to, uint256 amount)\n        internal\n        override(ERC20Upgradeable, ERC20VotesUpgradeable)\n    {\n        super._afterTokenTransfer(from, to, amount);\n    }\n\n    function _mint(address to, uint256 amount)\n        internal\n        override(ERC20Upgradeable, ERC20VotesUpgradeable)\n    {\n        super._mint(to, amount);\n    }\n\n    function _burn(address account, uint256 amount)\n        internal\n        override(ERC20Upgradeable, ERC20VotesUpgradeable)\n    {\n        super._burn(account, amount);\n    }\n    \n\n}",
  "sourcePath": "/Users/rishubhanda/Desktop/climate_dao/ClimateDAO-app/contracts/earth/EARTH.sol",
  "compiler": {
    "name": "solc",
    "version": "0.8.4+commit.c7e474f2.Emscripten.clang"
  },
  "schemaVersion": "3.4.3",
  "updatedAt": "2022-01-20T14:36:48.758Z",
  "devdoc": {
    "kind": "dev",
    "methods": {
      "DOMAIN_SEPARATOR()": {
        "details": "See {IERC20Permit-DOMAIN_SEPARATOR}."
      },
      "allowance(address,address)": {
        "details": "See {IERC20-allowance}."
      },
      "approve(address,uint256)": {
        "details": "See {IERC20-approve}. Requirements: - `spender` cannot be the zero address."
      },
      "balanceOf(address)": {
        "details": "See {IERC20-balanceOf}."
      },
      "checkpoints(address,uint32)": {
        "details": "Get the `pos`-th checkpoint for `account`."
      },
      "decimals()": {
        "details": "Returns the number of decimals used to get its user representation. For example, if `decimals` equals `2`, a balance of `505` tokens should be displayed to a user as `5.05` (`505 / 10 ** 2`). Tokens usually opt for a value of 18, imitating the relationship between Ether and Wei. This is the value {ERC20} uses, unless this function is overridden; NOTE: This information is only used for _display_ purposes: it in no way affects any of the arithmetic of the contract, including {IERC20-balanceOf} and {IERC20-transfer}."
      },
      "decreaseAllowance(address,uint256)": {
        "details": "Atomically decreases the allowance granted to `spender` by the caller. This is an alternative to {approve} that can be used as a mitigation for problems described in {IERC20-approve}. Emits an {Approval} event indicating the updated allowance. Requirements: - `spender` cannot be the zero address. - `spender` must have allowance for the caller of at least `subtractedValue`."
      },
      "delegate(address)": {
        "details": "Delegate votes from the sender to `delegatee`."
      },
      "delegateBySig(address,uint256,uint256,uint8,bytes32,bytes32)": {
        "details": "Delegates votes from signer to `delegatee`"
      },
      "delegates(address)": {
        "details": "Get the address `account` is currently delegating to."
      },
      "getPastTotalSupply(uint256)": {
        "details": "Retrieve the `totalSupply` at the end of `blockNumber`. Note, this value is the sum of all balances. It is but NOT the sum of all the delegated votes! Requirements: - `blockNumber` must have been already mined"
      },
      "getPastVotes(address,uint256)": {
        "details": "Retrieve the number of votes for `account` at the end of `blockNumber`. Requirements: - `blockNumber` must have been already mined"
      },
      "getVotes(address)": {
        "details": "Gets the current votes balance for `account`"
      },
      "increaseAllowance(address,uint256)": {
        "details": "Atomically increases the allowance granted to `spender` by the caller. This is an alternative to {approve} that can be used as a mitigation for problems described in {IERC20-approve}. Emits an {Approval} event indicating the updated allowance. Requirements: - `spender` cannot be the zero address."
      },
      "name()": {
        "details": "Returns the name of the token."
      },
      "nonces(address)": {
        "details": "See {IERC20Permit-nonces}."
      },
      "numCheckpoints(address)": {
        "details": "Get number of checkpoints for `account`."
      },
      "owner()": {
        "details": "Returns the address of the current owner."
      },
      "permit(address,address,uint256,uint256,uint8,bytes32,bytes32)": {
        "details": "See {IERC20Permit-permit}."
      },
      "renounceOwnership()": {
        "details": "Leaves the contract without owner. It will not be possible to call `onlyOwner` functions anymore. Can only be called by the current owner. NOTE: Renouncing ownership will leave the contract without an owner, thereby removing any functionality that is only available to the owner."
      },
      "symbol()": {
        "details": "Returns the symbol of the token, usually a shorter version of the name."
      },
      "totalSupply()": {
        "details": "See {IERC20-totalSupply}."
      },
      "transfer(address,uint256)": {
        "details": "See {IERC20-transfer}. Requirements: - `recipient` cannot be the zero address. - the caller must have a balance of at least `amount`."
      },
      "transferFrom(address,address,uint256)": {
        "details": "See {IERC20-transferFrom}. Emits an {Approval} event indicating the updated allowance. This is not required by the EIP. See the note at the beginning of {ERC20}. Requirements: - `sender` and `recipient` cannot be the zero address. - `sender` must have a balance of at least `amount`. - the caller must have allowance for ``sender``'s tokens of at least `amount`."
      },
      "transferOwnership(address)": {
        "details": "Transfers ownership of the contract to a new account (`newOwner`). Can only be called by the current owner."
      }
    },
    "version": 1
  },
  "userdoc": {
    "kind": "user",
    "methods": {},
    "version": 1
  }
}