{
  "contractName": "ClimateDAO",
  "abi": [
    {
      "inputs": [],
      "stateMutability": "nonpayable",
      "type": "constructor"
    },
    {
      "anonymous": false,
      "inputs": [
        {
          "indexed": false,
          "internalType": "uint256",
          "name": "proposalId",
          "type": "uint256"
        }
      ],
      "name": "ProposalCanceled",
      "type": "event"
    },
    {
      "anonymous": false,
      "inputs": [
        {
          "indexed": false,
          "internalType": "uint256",
          "name": "proposalId",
          "type": "uint256"
        },
        {
          "indexed": false,
          "internalType": "address",
          "name": "proposer",
          "type": "address"
        },
        {
          "indexed": false,
          "internalType": "address[]",
          "name": "targets",
          "type": "address[]"
        },
        {
          "indexed": false,
          "internalType": "uint256[]",
          "name": "values",
          "type": "uint256[]"
        },
        {
          "indexed": false,
          "internalType": "string[]",
          "name": "signatures",
          "type": "string[]"
        },
        {
          "indexed": false,
          "internalType": "bytes[]",
          "name": "calldatas",
          "type": "bytes[]"
        },
        {
          "indexed": false,
          "internalType": "uint256",
          "name": "startBlock",
          "type": "uint256"
        },
        {
          "indexed": false,
          "internalType": "uint256",
          "name": "endBlock",
          "type": "uint256"
        },
        {
          "indexed": false,
          "internalType": "string",
          "name": "description",
          "type": "string"
        }
      ],
      "name": "ProposalCreated",
      "type": "event"
    },
    {
      "anonymous": false,
      "inputs": [
        {
          "indexed": false,
          "internalType": "uint256",
          "name": "proposalId",
          "type": "uint256"
        }
      ],
      "name": "ProposalExecuted",
      "type": "event"
    },
    {
      "anonymous": false,
      "inputs": [
        {
          "indexed": false,
          "internalType": "uint256",
          "name": "proposalId",
          "type": "uint256"
        },
        {
          "indexed": false,
          "internalType": "uint256",
          "name": "eta",
          "type": "uint256"
        }
      ],
      "name": "ProposalQueued",
      "type": "event"
    },
    {
      "anonymous": false,
      "inputs": [
        {
          "indexed": false,
          "internalType": "uint256",
          "name": "oldProposalThreshold",
          "type": "uint256"
        },
        {
          "indexed": false,
          "internalType": "uint256",
          "name": "newProposalThreshold",
          "type": "uint256"
        }
      ],
      "name": "ProposalThresholdSet",
      "type": "event"
    },
    {
      "anonymous": false,
      "inputs": [
        {
          "indexed": false,
          "internalType": "address",
          "name": "oldTimelock",
          "type": "address"
        },
        {
          "indexed": false,
          "internalType": "address",
          "name": "newTimelock",
          "type": "address"
        }
      ],
      "name": "TimelockChange",
      "type": "event"
    },
    {
      "anonymous": false,
      "inputs": [
        {
          "indexed": true,
          "internalType": "address",
          "name": "voter",
          "type": "address"
        },
        {
          "indexed": false,
          "internalType": "uint256",
          "name": "proposalId",
          "type": "uint256"
        },
        {
          "indexed": false,
          "internalType": "uint8",
          "name": "support",
          "type": "uint8"
        },
        {
          "indexed": false,
          "internalType": "uint256",
          "name": "weight",
          "type": "uint256"
        },
        {
          "indexed": false,
          "internalType": "string",
          "name": "reason",
          "type": "string"
        }
      ],
      "name": "VoteCast",
      "type": "event"
    },
    {
      "anonymous": false,
      "inputs": [
        {
          "indexed": false,
          "internalType": "uint256",
          "name": "oldVotingDelay",
          "type": "uint256"
        },
        {
          "indexed": false,
          "internalType": "uint256",
          "name": "newVotingDelay",
          "type": "uint256"
        }
      ],
      "name": "VotingDelaySet",
      "type": "event"
    },
    {
      "anonymous": false,
      "inputs": [
        {
          "indexed": false,
          "internalType": "uint256",
          "name": "oldVotingPeriod",
          "type": "uint256"
        },
        {
          "indexed": false,
          "internalType": "uint256",
          "name": "newVotingPeriod",
          "type": "uint256"
        }
      ],
      "name": "VotingPeriodSet",
      "type": "event"
    },
    {
      "inputs": [],
      "name": "BALLOT_TYPEHASH",
      "outputs": [
        {
          "internalType": "bytes32",
          "name": "",
          "type": "bytes32"
        }
      ],
      "stateMutability": "view",
      "type": "function"
    },
    {
      "inputs": [],
      "name": "COUNTING_MODE",
      "outputs": [
        {
          "internalType": "string",
          "name": "",
          "type": "string"
        }
      ],
      "stateMutability": "pure",
      "type": "function"
    },
    {
      "inputs": [
        {
          "internalType": "address[]",
          "name": "targets",
          "type": "address[]"
        },
        {
          "internalType": "uint256[]",
          "name": "values",
          "type": "uint256[]"
        },
        {
          "internalType": "bytes[]",
          "name": "calldatas",
          "type": "bytes[]"
        },
        {
          "internalType": "bytes32",
          "name": "descriptionHash",
          "type": "bytes32"
        }
      ],
      "name": "execute",
      "outputs": [
        {
          "internalType": "uint256",
          "name": "",
          "type": "uint256"
        }
      ],
      "stateMutability": "payable",
      "type": "function"
    },
    {
      "inputs": [
        {
          "internalType": "uint256",
          "name": "proposalId",
          "type": "uint256"
        },
        {
          "internalType": "address",
          "name": "account",
          "type": "address"
        }
      ],
      "name": "hasVoted",
      "outputs": [
        {
          "internalType": "bool",
          "name": "",
          "type": "bool"
        }
      ],
      "stateMutability": "view",
      "type": "function"
    },
    {
      "inputs": [
        {
          "internalType": "address[]",
          "name": "targets",
          "type": "address[]"
        },
        {
          "internalType": "uint256[]",
          "name": "values",
          "type": "uint256[]"
        },
        {
          "internalType": "bytes[]",
          "name": "calldatas",
          "type": "bytes[]"
        },
        {
          "internalType": "bytes32",
          "name": "descriptionHash",
          "type": "bytes32"
        }
      ],
      "name": "hashProposal",
      "outputs": [
        {
          "internalType": "uint256",
          "name": "",
          "type": "uint256"
        }
      ],
      "stateMutability": "pure",
      "type": "function"
    },
    {
      "inputs": [],
      "name": "name",
      "outputs": [
        {
          "internalType": "string",
          "name": "",
          "type": "string"
        }
      ],
      "stateMutability": "view",
      "type": "function"
    },
    {
      "inputs": [
        {
          "internalType": "uint256",
          "name": "proposalId",
          "type": "uint256"
        }
      ],
      "name": "proposalDeadline",
      "outputs": [
        {
          "internalType": "uint256",
          "name": "",
          "type": "uint256"
        }
      ],
      "stateMutability": "view",
      "type": "function"
    },
    {
      "inputs": [
        {
          "internalType": "uint256",
          "name": "proposalId",
          "type": "uint256"
        }
      ],
      "name": "proposalEta",
      "outputs": [
        {
          "internalType": "uint256",
          "name": "",
          "type": "uint256"
        }
      ],
      "stateMutability": "view",
      "type": "function"
    },
    {
      "inputs": [
        {
          "internalType": "uint256",
          "name": "proposalId",
          "type": "uint256"
        }
      ],
      "name": "proposalSnapshot",
      "outputs": [
        {
          "internalType": "uint256",
          "name": "",
          "type": "uint256"
        }
      ],
      "stateMutability": "view",
      "type": "function"
    },
    {
      "inputs": [
        {
          "internalType": "uint256",
          "name": "proposalId",
          "type": "uint256"
        }
      ],
      "name": "proposalVotes",
      "outputs": [
        {
          "internalType": "uint256",
          "name": "againstVotes",
          "type": "uint256"
        },
        {
          "internalType": "uint256",
          "name": "forVotes",
          "type": "uint256"
        },
        {
          "internalType": "uint256",
          "name": "abstainVotes",
          "type": "uint256"
        }
      ],
      "stateMutability": "view",
      "type": "function"
    },
    {
      "inputs": [
        {
          "internalType": "address[]",
          "name": "targets",
          "type": "address[]"
        },
        {
          "internalType": "uint256[]",
          "name": "values",
          "type": "uint256[]"
        },
        {
          "internalType": "bytes[]",
          "name": "calldatas",
          "type": "bytes[]"
        },
        {
          "internalType": "bytes32",
          "name": "descriptionHash",
          "type": "bytes32"
        }
      ],
      "name": "queue",
      "outputs": [
        {
          "internalType": "uint256",
          "name": "",
          "type": "uint256"
        }
      ],
      "stateMutability": "nonpayable",
      "type": "function"
    },
    {
      "inputs": [
        {
          "internalType": "uint256",
          "name": "newProposalThreshold",
          "type": "uint256"
        }
      ],
      "name": "setProposalThreshold",
      "outputs": [],
      "stateMutability": "nonpayable",
      "type": "function"
    },
    {
      "inputs": [
        {
          "internalType": "uint256",
          "name": "newVotingDelay",
          "type": "uint256"
        }
      ],
      "name": "setVotingDelay",
      "outputs": [],
      "stateMutability": "nonpayable",
      "type": "function"
    },
    {
      "inputs": [
        {
          "internalType": "uint256",
          "name": "newVotingPeriod",
          "type": "uint256"
        }
      ],
      "name": "setVotingPeriod",
      "outputs": [],
      "stateMutability": "nonpayable",
      "type": "function"
    },
    {
      "inputs": [],
      "name": "timelock",
      "outputs": [
        {
          "internalType": "address",
          "name": "",
          "type": "address"
        }
      ],
      "stateMutability": "view",
      "type": "function"
    },
    {
      "inputs": [],
      "name": "token",
      "outputs": [
        {
          "internalType": "contract ERC20VotesUpgradeable",
          "name": "",
          "type": "address"
        }
      ],
      "stateMutability": "view",
      "type": "function"
    },
    {
      "inputs": [
        {
          "internalType": "contract TimelockControllerUpgradeable",
          "name": "newTimelock",
          "type": "address"
        }
      ],
      "name": "updateTimelock",
      "outputs": [],
      "stateMutability": "nonpayable",
      "type": "function"
    },
    {
      "inputs": [],
      "name": "version",
      "outputs": [
        {
          "internalType": "string",
          "name": "",
          "type": "string"
        }
      ],
      "stateMutability": "view",
      "type": "function"
    },
    {
      "inputs": [
        {
          "internalType": "address",
          "name": "",
          "type": "address"
        }
      ],
      "name": "walletDenylist",
      "outputs": [
        {
          "internalType": "bool",
          "name": "",
          "type": "bool"
        }
      ],
      "stateMutability": "view",
      "type": "function"
    },
    {
      "stateMutability": "payable",
      "type": "receive"
    },
    {
      "inputs": [
        {
          "internalType": "contract ERC20VotesUpgradeable",
          "name": "_token",
          "type": "address"
        },
        {
          "internalType": "contract TimelockControllerUpgradeable",
          "name": "_timelock",
          "type": "address"
        }
      ],
      "name": "initialize",
      "outputs": [],
      "stateMutability": "nonpayable",
      "type": "function"
    },
    {
      "inputs": [],
      "name": "owner",
      "outputs": [
        {
          "internalType": "address",
          "name": "",
          "type": "address"
        }
      ],
      "stateMutability": "view",
      "type": "function"
    },
    {
      "inputs": [
        {
          "internalType": "address",
          "name": "_user",
          "type": "address"
        }
      ],
      "name": "denyList",
      "outputs": [],
      "stateMutability": "nonpayable",
      "type": "function"
    },
    {
      "inputs": [
        {
          "internalType": "address",
          "name": "_user",
          "type": "address"
        }
      ],
      "name": "removeDenyList",
      "outputs": [],
      "stateMutability": "nonpayable",
      "type": "function"
    },
    {
      "inputs": [
        {
          "internalType": "address",
          "name": "_user",
          "type": "address"
        }
      ],
      "name": "isDenylisted",
      "outputs": [
        {
          "internalType": "bool",
          "name": "",
          "type": "bool"
        }
      ],
      "stateMutability": "view",
      "type": "function"
    },
    {
      "inputs": [
        {
          "internalType": "uint256",
          "name": "blockNumber",
          "type": "uint256"
        }
      ],
      "name": "quorum",
      "outputs": [
        {
          "internalType": "uint256",
          "name": "",
          "type": "uint256"
        }
      ],
      "stateMutability": "pure",
      "type": "function"
    },
    {
      "inputs": [],
      "name": "votingDelay",
      "outputs": [
        {
          "internalType": "uint256",
          "name": "",
          "type": "uint256"
        }
      ],
      "stateMutability": "view",
      "type": "function"
    },
    {
      "inputs": [],
      "name": "votingPeriod",
      "outputs": [
        {
          "internalType": "uint256",
          "name": "",
          "type": "uint256"
        }
      ],
      "stateMutability": "view",
      "type": "function"
    },
    {
      "inputs": [
        {
          "internalType": "address",
          "name": "account",
          "type": "address"
        },
        {
          "internalType": "uint256",
          "name": "blockNumber",
          "type": "uint256"
        }
      ],
      "name": "getVotes",
      "outputs": [
        {
          "internalType": "uint256",
          "name": "",
          "type": "uint256"
        }
      ],
      "stateMutability": "view",
      "type": "function"
    },
    {
      "inputs": [
        {
          "internalType": "uint256",
          "name": "proposalId",
          "type": "uint256"
        }
      ],
      "name": "state",
      "outputs": [
        {
          "internalType": "enum IGovernorUpgradeable.ProposalState",
          "name": "",
          "type": "uint8"
        }
      ],
      "stateMutability": "view",
      "type": "function"
    },
    {
      "inputs": [
        {
          "internalType": "address[]",
          "name": "targets",
          "type": "address[]"
        },
        {
          "internalType": "uint256[]",
          "name": "values",
          "type": "uint256[]"
        },
        {
          "internalType": "bytes[]",
          "name": "calldatas",
          "type": "bytes[]"
        },
        {
          "internalType": "string",
          "name": "description",
          "type": "string"
        }
      ],
      "name": "propose",
      "outputs": [
        {
          "internalType": "uint256",
          "name": "",
          "type": "uint256"
        }
      ],
      "stateMutability": "nonpayable",
      "type": "function"
    },
    {
      "inputs": [
        {
          "internalType": "uint256",
          "name": "proposalId",
          "type": "uint256"
        },
        {
          "internalType": "uint8",
          "name": "support",
          "type": "uint8"
        },
        {
          "internalType": "string",
          "name": "reason",
          "type": "string"
        }
      ],
      "name": "castVoteWithReason",
      "outputs": [
        {
          "internalType": "uint256",
          "name": "",
          "type": "uint256"
        }
      ],
      "stateMutability": "nonpayable",
      "type": "function"
    },
    {
      "inputs": [
        {
          "internalType": "uint256",
          "name": "proposalId",
          "type": "uint256"
        },
        {
          "internalType": "uint8",
          "name": "support",
          "type": "uint8"
        }
      ],
      "name": "castVote",
      "outputs": [
        {
          "internalType": "uint256",
          "name": "",
          "type": "uint256"
        }
      ],
      "stateMutability": "nonpayable",
      "type": "function"
    },
    {
      "inputs": [
        {
          "internalType": "uint256",
          "name": "proposalId",
          "type": "uint256"
        },
        {
          "internalType": "uint8",
          "name": "support",
          "type": "uint8"
        },
        {
          "internalType": "uint8",
          "name": "v",
          "type": "uint8"
        },
        {
          "internalType": "bytes32",
          "name": "r",
          "type": "bytes32"
        },
        {
          "internalType": "bytes32",
          "name": "s",
          "type": "bytes32"
        }
      ],
      "name": "castVoteBySig",
      "outputs": [
        {
          "internalType": "uint256",
          "name": "",
          "type": "uint256"
        }
      ],
      "stateMutability": "nonpayable",
      "type": "function"
    },
    {
      "inputs": [],
      "name": "proposalThreshold",
      "outputs": [
        {
          "internalType": "uint256",
          "name": "",
          "type": "uint256"
        }
      ],
      "stateMutability": "view",
      "type": "function"
    },
    {
      "inputs": [
        {
          "internalType": "bytes4",
          "name": "interfaceId",
          "type": "bytes4"
        }
      ],
      "name": "supportsInterface",
      "outputs": [
        {
          "internalType": "bool",
          "name": "",
          "type": "bool"
        }
      ],
      "stateMutability": "view",
      "type": "function"
    }
  ],
  "bytecode": "0x60806040523480156200001157600080fd5b50600054610100900460ff16806200002c575060005460ff16155b620000945760405162461bcd60e51b815260206004820152602e60248201527f496e697469616c697a61626c653a20636f6e747261637420697320616c72656160448201526d191e481a5b9a5d1a585b1a5e995960921b606482015260840160405180910390fd5b600054610100900460ff16158015620000b7576000805461ffff19166101011790555b8015620000ca576000805461ff00191690555b5061336680620000db6000396000f3fe6080604052600436106102085760003560e01c806370b0f66011610118578063d33219b4116100a0578063ea0217cf1161006f578063ea0217cf146106d6578063eb9019d4146106f6578063ece40cc114610716578063f8ce560a14610736578063fc0c546a1461075f57600080fd5b8063d33219b414610603578063dd4e2ba514610622578063deaaa7cc14610668578063e877a5261461069c57600080fd5b8063a890c910116100e7578063a890c9101461056e578063ab58fb8e1461058e578063b58131b0146105ae578063c01f9e37146105c3578063c59057e4146105e357600080fd5b806370b0f660146104db5780637b3c71d3146104fb5780637d5e81e21461051b5780638da5cb5b1461053b57600080fd5b80633bccf4fd1161019b578063485cc9551161016a578063485cc955146103ea578063544ffc9c1461040a57806354fd4d5014610460578063567813881461048a578063677c61f8146104aa57600080fd5b80633bccf4fd146103325780633e4f49e614610352578063406821521461037f578063438596321461039f57600080fd5b80632656227d116101d75780632656227d146102ca5780632d63f693146102dd5780633932abb1146102fd5780633bb6d2661461031257600080fd5b806301ffc9a71461023057806302a251a31461026557806306fdde0314610288578063160cbed7146102aa57600080fd5b3661022b5730610216610780565b6001600160a01b03161461022957600080fd5b005b600080fd5b34801561023c57600080fd5b5061025061024b366004612bf2565b61079a565b60405190151581526020015b60405180910390f35b34801561027157600080fd5b5061027a6107ab565b60405190815260200161025c565b34801561029457600080fd5b5061029d6107b7565b60405161025c9190612fb1565b3480156102b657600080fd5b5061027a6102c5366004612a75565b610849565b61027a6102d8366004612a75565b610a82565b3480156102e957600080fd5b5061027a6102f8366004612c52565b610b76565b34801561030957600080fd5b5061027a610bad565b34801561031e57600080fd5b5061022961032d366004612a2e565b610bb9565b34801561033e57600080fd5b5061027a61034d366004612d3a565b610c9f565b34801561035e57600080fd5b5061037261036d366004612c52565b610ce7565b60405161025c9190612f89565b34801561038b57600080fd5b5061022961039a366004612a2e565b610cf2565b3480156103ab57600080fd5b506102506103ba366004612c6a565b6000828152610161602090815260408083206001600160a01b038516845260030190915290205460ff1692915050565b3480156103f657600080fd5b50610229610405366004612c1a565b610ddc565b34801561041657600080fd5b50610445610425366004612c52565b600090815261016160205260409020805460018201546002909201549092565b6040805193845260208401929092529082015260600161025c565b34801561046c57600080fd5b506040805180820190915260018152603160f81b602082015261029d565b34801561049657600080fd5b5061027a6104a5366004612c8e565b610ebd565b3480156104b657600080fd5b506102506104c5366004612a2e565b6101f86020526000908152604090205460ff1681565b3480156104e757600080fd5b506102296104f6366004612c52565b610eff565b34801561050757600080fd5b5061027a610516366004612cb9565b610f43565b34801561052757600080fd5b5061027a610536366004612b00565b610f89565b34801561054757600080fd5b506101f9546001600160a01b03165b6040516001600160a01b03909116815260200161025c565b34801561057a57600080fd5b50610229610589366004612a2e565b610fc6565b34801561059a57600080fd5b5061027a6105a9366004612c52565b611007565b3480156105ba57600080fd5b5061027a6110b2565b3480156105cf57600080fd5b5061027a6105de366004612c52565b6110be565b3480156105ef57600080fd5b5061027a6105fe366004612a75565b6110ed565b34801561060f57600080fd5b506101c6546001600160a01b0316610556565b34801561062e57600080fd5b506040805180820190915260208082527f737570706f72743d627261766f2671756f72756d3d666f722c6162737461696e9082015261029d565b34801561067457600080fd5b5061027a7f150214d74d59b7d1e90c73fc22ef3d991dd0a76b046543d4d80ab92d2a50328f81565b3480156106a857600080fd5b506102506106b7366004612a2e565b6001600160a01b031660009081526101f8602052604090205460ff1690565b3480156106e257600080fd5b506102296106f1366004612c52565b611127565b34801561070257600080fd5b5061027a610711366004612a4a565b611168565b34801561072257600080fd5b50610229610731366004612c52565b611174565b34801561074257600080fd5b5061027a610751366004612c52565b5068056bc75e2d6310000090565b34801561076b57600080fd5b5061019354610556906001600160a01b031681565b60006107956101c6546001600160a01b031690565b905090565b60006107a5826111b5565b92915050565b60006107956101305490565b606060fd80546107c6906132ba565b80601f01602080910402602001604051908101604052809291908181526020018280546107f2906132ba565b801561083f5780601f106108145761010080835404028352916020019161083f565b820191906000526020600020905b81548152906001019060200180831161082257829003601f168201915b5050505050905090565b600080610858868686866110ed565b9050600461086582610ce7565b600781111561088457634e487b7160e01b600052602160045260246000fd5b146108aa5760405162461bcd60e51b81526004016108a19061308a565b60405180910390fd5b6101c6546040805163793d064960e11b815290516000926001600160a01b03169163f27a0c92916004808301926020929190829003018186803b1580156108f057600080fd5b505afa158015610904573d6000803e3d6000fd5b505050506040513d601f19601f820116820180604052508101906109289190612bda565b6101c65460405163b1c5f42760e01b81529192506001600160a01b03169063b1c5f42790610963908a908a908a906000908b90600401612ee3565b60206040518083038186803b15801561097b57600080fd5b505afa15801561098f573d6000803e3d6000fd5b505050506040513d601f19601f820116820180604052508101906109b39190612bda565b60008381526101c76020526040808220929092556101c65491516308f2a0bb60e41b81526001600160a01b0390921691638f2a0bb091610a00918b918b918b91908b908990600401612f31565b600060405180830381600087803b158015610a1a57600080fd5b505af1158015610a2e573d6000803e3d6000fd5b505050507f9a2e42fd6722813d69113e7d0079d3d940171428df7373df9c7f7617cfda2892828242610a609190613260565b6040805192835260208301919091520160405180910390a15095945050505050565b600080610a91868686866110ed565b90506000610a9e82610ce7565b90506004816007811115610ac257634e487b7160e01b600052602160045260246000fd5b1480610aed57506005816007811115610aeb57634e487b7160e01b600052602160045260246000fd5b145b610b095760405162461bcd60e51b81526004016108a19061308a565b600082815260fe602052604090819020600201805460ff19166001179055517f712ae1383f79ac853f8d882153778e0260ef8f03b504e2866e0593e04d2b291f90610b579084815260200190565b60405180910390a1610b6c82888888886111da565b5095945050505050565b600081815260fe602090815260408083208151928301909152546001600160401b0316908190525b6001600160401b031692915050565b600061079561012f5490565b6101f9546001600160a01b03163314610c145760405162461bcd60e51b815260206004820181905260248201527f4f776e61626c653a2063616c6c6572206973206e6f7420746865206f776e657260448201526064016108a1565b6001600160a01b03811660009081526101f8602052604090205460ff16610c7d5760405162461bcd60e51b815260206004820152601860248201527f7573657220616c726561647920616c6c6f776c6973746564000000000000000060448201526064016108a1565b6001600160a01b031660009081526101f860205260409020805460ff19169055565b3360009081526101f8602052604081205460ff1615610cd05760405162461bcd60e51b81526004016108a1906130cb565b610cdd86868686866111ee565b9695505050505050565b60006107a582611282565b6101f9546001600160a01b03163314610d4d5760405162461bcd60e51b815260206004820181905260248201527f4f776e61626c653a2063616c6c6572206973206e6f7420746865206f776e657260448201526064016108a1565b6001600160a01b03811660009081526101f8602052604090205460ff1615610db75760405162461bcd60e51b815260206004820152601760248201527f7573657220616c72656164792064656e796c697374656400000000000000000060448201526064016108a1565b6001600160a01b031660009081526101f860205260409020805460ff19166001179055565b600054610100900460ff1680610df5575060005460ff16155b610e115760405162461bcd60e51b81526004016108a19061303c565b600054610100900460ff16158015610e33576000805461ffff19166101011790555b6101f980546001600160a01b0319163390811790915560408051808201909152600a815269436c696d61746544414f60b01b6020820152610e739061136f565b610e8b61177061b2fa680d8d726b7177a80000611424565b610e936114b6565b610e9c84611541565b610ea5836115b9565b508015610eb8576000805461ff00191690555b505050565b3360009081526101f8602052604081205460ff1615610eee5760405162461bcd60e51b81526004016108a1906130cb565b610ef88383611639565b9392505050565b610f07610780565b6001600160a01b0316336001600160a01b031614610f375760405162461bcd60e51b81526004016108a190612fc4565b610f4081611662565b50565b3360009081526101f8602052604081205460ff1615610f745760405162461bcd60e51b81526004016108a1906130cb565b610f80858585856116a5565b95945050505050565b3360009081526101f8602052604081205460ff1615610fba5760405162461bcd60e51b81526004016108a1906130cb565b610f80858585856116ed565b610fce610780565b6001600160a01b0316336001600160a01b031614610ffe5760405162461bcd60e51b81526004016108a190612fc4565b610f40816119d6565b6101c65460008281526101c7602052604080822054905163d45c443560e01b81526004810191909152909182916001600160a01b039091169063d45c44359060240160206040518083038186803b15801561106157600080fd5b505afa158015611075573d6000803e3d6000fd5b505050506040513d601f19601f820116820180604052508101906110999190612bda565b9050806001146110a95780610ef8565b60009392505050565b60006107956101315490565b600081815260fe602090815260408083208151928301909152600101546001600160401b031690819052610b9e565b6000848484846040516020016111069493929190612e98565b60408051601f19818403018152919052805160209091012095945050505050565b61112f610780565b6001600160a01b0316336001600160a01b03161461115f5760405162461bcd60e51b81526004016108a190612fc4565b610f4081611a41565b6000610ef88383611ae4565b61117c610780565b6001600160a01b0316336001600160a01b0316146111ac5760405162461bcd60e51b81526004016108a190612fc4565b610f4081611b6a565b60006001600160e01b03198216636e665ced60e01b14806107a557506107a582611bad565b6111e78585858585611be2565b5050505050565b604080517f150214d74d59b7d1e90c73fc22ef3d991dd0a76b046543d4d80ab92d2a50328f602082015290810186905260ff85166060820152600090819061125a906112529060800160405160208183030381529060405280519060200120611c57565b868686611ca5565b905061127787828860405180602001604052806000815250611cc3565b979650505050505050565b60008061128e83611ddb565b905060048160078111156112b257634e487b7160e01b600052602160045260246000fd5b146112bd5792915050565b60008381526101c76020526040902054806112d9575092915050565b6101c654604051632ab0f52960e01b8152600481018390526001600160a01b0390911690632ab0f5299060240160206040518083038186803b15801561131e57600080fd5b505afa158015611332573d6000803e3d6000fd5b505050506040513d601f19601f820116820180604052508101906113569190612bba565b15611365575060079392505050565b5060059392505050565b600054610100900460ff1680611388575060005460ff16155b6113a45760405162461bcd60e51b81526004016108a19061303c565b600054610100900460ff161580156113c6576000805461ffff19166101011790555b6113ce611f40565b6113d6611f40565b6113fd826113f86040805180820190915260018152603160f81b602082015290565b611faa565b611405611f40565b61140e82612034565b8015611420576000805461ff00191690555b5050565b600054610100900460ff168061143d575060005460ff16155b6114595760405162461bcd60e51b81526004016108a19061303c565b600054610100900460ff1615801561147b576000805461ffff19166101011790555b611483611f40565b61148b611f40565b611493611f40565b61149e8484846120b4565b80156114b0576000805461ff00191690555b50505050565b600054610100900460ff16806114cf575060005460ff16155b6114eb5760405162461bcd60e51b81526004016108a19061303c565b600054610100900460ff1615801561150d576000805461ffff19166101011790555b611515611f40565b61151d611f40565b611525611f40565b61152d611f40565b8015610f40576000805461ff001916905550565b600054610100900460ff168061155a575060005460ff16155b6115765760405162461bcd60e51b81526004016108a19061303c565b600054610100900460ff16158015611598576000805461ffff19166101011790555b6115a0611f40565b6115a8611f40565b6115b0611f40565b61140e82612126565b600054610100900460ff16806115d2575060005460ff16155b6115ee5760405162461bcd60e51b81526004016108a19061303c565b600054610100900460ff16158015611610576000805461ffff19166101011790555b611618611f40565b611620611f40565b611628611f40565b611630611f40565b61140e826121ae565b60008033905061165a84828560405180602001604052806000815250611cc3565b949350505050565b61012f5460408051918252602082018390527fc565b045403dc03c2eea82b81a0465edad9e2e7fc4d97e11421c209da93d7a93910160405180910390a161012f55565b600080339050610cdd86828787878080601f016020809104026020016040519081016040528093929190818152602001838380828437600092019190915250611cc392505050565b60006116f76110b2565b611706336107116001436132a3565b10156117865760405162461bcd60e51b815260206004820152604360248201527f476f7665726e6f72436f6d7061746962696c697479427261766f3a2070726f7060448201527f6f73657220766f7465732062656c6f772070726f706f73616c207468726573686064820152621bdb1960ea1b608482015260a4016108a1565b600061179b86868686805190602001206110ed565b905084518651146117be5760405162461bcd60e51b81526004016108a190612ffb565b83518651146117df5760405162461bcd60e51b81526004016108a190612ffb565b60008651116118305760405162461bcd60e51b815260206004820152601860248201527f476f7665726e6f723a20656d7074792070726f706f73616c000000000000000060448201526064016108a1565b600081815260fe6020908152604091829020825191820190925281546001600160401b031690819052156118b05760405162461bcd60e51b815260206004820152602160248201527f476f7665726e6f723a2070726f706f73616c20616c72656164792065786973746044820152607360f81b60648201526084016108a1565b60006118c26118bd610bad565b61220e565b6118cb4361220e565b6118d59190613278565b905060006118e46118bd6107ab565b6118ee9083613278565b835467ffffffffffffffff19166001600160401b038416178455905060018301805467ffffffffffffffff19166001600160401b0383161790557f7d84a6263ae0d98d3329bd7b46bb4e8d6f98cd35a7adb45c274c8b7fd5ebd5e084338b8b8d516001600160401b0381111561197457634e487b7160e01b600052604160045260246000fd5b6040519080825280602002602001820160405280156119a757816020015b60608152602001906001900390816119925790505b508c88888e6040516119c1999897969594939291906130f7565b60405180910390a15091979650505050505050565b6101c654604080516001600160a01b03928316815291831660208301527f08f74ea46ef7894f65eabfb5e6e695de773a000b47c529ab559178069b226401910160405180910390a16101c680546001600160a01b0319166001600160a01b0392909216919091179055565b60008111611aa15760405162461bcd60e51b815260206004820152602760248201527f476f7665726e6f7253657474696e67733a20766f74696e6720706572696f6420604482015266746f6f206c6f7760c81b60648201526084016108a1565b6101305460408051918252602082018390527f7e3f7f0708a84de9203036abaa450dccc85ad5ff52f78c170f3edb55cf5e8828910160405180910390a161013055565b61019354604051630748d63560e31b81526001600160a01b038481166004830152602482018490526000921690633a46b1a89060440160206040518083038186803b158015611b3257600080fd5b505afa158015611b46573d6000803e3d6000fd5b505050506040513d601f19601f82011682018060405250810190610ef89190612bda565b6101315460408051918252602082018390527fccb45da8d5717e6c4544694297c4ba5cf151d455c9bb0ed4fc7a38411bc05461910160405180910390a161013155565b60006001600160e01b0319821663bf26d89760e01b14806107a557506301ffc9a760e01b6001600160e01b03198316146107a5565b6101c65460405163e38335e560e01b81526001600160a01b039091169063e38335e5903490611c1e908890889088906000908990600401612ee3565b6000604051808303818588803b158015611c3757600080fd5b505af1158015611c4b573d6000803e3d6000fd5b50505050505050505050565b60006107a5611c6461227a565b8360405161190160f01b6020820152602281018390526042810182905260009060620160405160208183030381529060405280519060200120905092915050565b6000806000611cb6878787876122f5565b91509150610b6c816123e2565b600084815260fe602052604081206001611cdc87610ce7565b6007811115611cfb57634e487b7160e01b600052602160045260246000fd5b14611d545760405162461bcd60e51b815260206004820152602360248201527f476f7665726e6f723a20766f7465206e6f742063757272656e746c792061637460448201526269766560e81b60648201526084016108a1565b604080516020810190915281546001600160401b031690819052600090611d7c908790611168565b9050611d8a878787846125e3565b856001600160a01b03167fb8e138887d0aa13bab447e82de9d5c1777041ecd21ca36ba824ff1e6c07ddda488878488604051611dc994939291906131e5565b60405180910390a29695505050505050565b600081815260fe60209081526040808320815160a08101835281546001600160401b039081166080830190815282528351808601855260018401549091168152938101939093526002015460ff808216158015938501939093526101009091041615156060830152611e505750600792915050565b806060015115611e635750600292915050565b80515143906001600160401b031610611e7f5750600092915050565b43611e8c82602001515190565b6001600160401b031610611ea35750600192915050565b611eb08160200151612763565b15611ef257611ebe83612792565b8015611ede57506000838152610161602052604090208054600190910154115b611ee9576003610ef8565b60049392505050565b60405162461bcd60e51b815260206004820152601d60248201527f476f7665726e6f723a20756e6b6e6f776e2070726f706f73616c20696400000060448201526064016108a1565b50919050565b600054610100900460ff1680611f59575060005460ff16155b611f755760405162461bcd60e51b81526004016108a19061303c565b600054610100900460ff1615801561152d576000805461ffff19166101011790558015610f40576000805461ff001916905550565b600054610100900460ff1680611fc3575060005460ff16155b611fdf5760405162461bcd60e51b81526004016108a19061303c565b600054610100900460ff16158015612001576000805461ffff19166101011790555b82516020808501919091208351918401919091206065919091556066558015610eb8576000805461ff0019169055505050565b600054610100900460ff168061204d575060005460ff16155b6120695760405162461bcd60e51b81526004016108a19061303c565b600054610100900460ff1615801561208b576000805461ffff19166101011790555b815161209e9060fd9060208501906127ca565b508015611420576000805461ff00191690555050565b600054610100900460ff16806120cd575060005460ff16155b6120e95760405162461bcd60e51b81526004016108a19061303c565b600054610100900460ff1615801561210b576000805461ffff19166101011790555b61211484611662565b61211d83611a41565b61149e82611b6a565b600054610100900460ff168061213f575060005460ff16155b61215b5760405162461bcd60e51b81526004016108a19061303c565b600054610100900460ff1615801561217d576000805461ffff19166101011790555b61019380546001600160a01b0319166001600160a01b0384161790558015611420576000805461ff00191690555050565b600054610100900460ff16806121c7575060005460ff16155b6121e35760405162461bcd60e51b81526004016108a19061303c565b600054610100900460ff16158015612205576000805461ffff19166101011790555b61140e826119d6565b60006001600160401b038211156122765760405162461bcd60e51b815260206004820152602660248201527f53616665436173743a2076616c756520646f65736e27742066697420696e203660448201526534206269747360d01b60648201526084016108a1565b5090565b60006107957f8b73c3c69bb8fe3d512ecc4cf759cc79239f7b179b0ffacaa9a75d522b39400f6122a960655490565b6066546040805160208101859052908101839052606081018290524660808201523060a082015260009060c0016040516020818303038152906040528051906020012090509392505050565b6000807f7fffffffffffffffffffffffffffffff5d576e7357a4501ddfe92f46681b20a083111561232c57506000905060036123d9565b8460ff16601b1415801561234457508460ff16601c14155b1561235557506000905060046123d9565b6040805160008082526020820180845289905260ff881692820192909252606081018690526080810185905260019060a0016020604051602081039080840390855afa1580156123a9573d6000803e3d6000fd5b5050604051601f1901519150506001600160a01b0381166123d2576000600192509250506123d9565b9150600090505b94509492505050565b600081600481111561240457634e487b7160e01b600052602160045260246000fd5b141561240d5750565b600181600481111561242f57634e487b7160e01b600052602160045260246000fd5b141561247d5760405162461bcd60e51b815260206004820152601860248201527f45434453413a20696e76616c6964207369676e6174757265000000000000000060448201526064016108a1565b600281600481111561249f57634e487b7160e01b600052602160045260246000fd5b14156124ed5760405162461bcd60e51b815260206004820152601f60248201527f45434453413a20696e76616c6964207369676e6174757265206c656e6774680060448201526064016108a1565b600381600481111561250f57634e487b7160e01b600052602160045260246000fd5b14156125685760405162461bcd60e51b815260206004820152602260248201527f45434453413a20696e76616c6964207369676e6174757265202773272076616c604482015261756560f01b60648201526084016108a1565b600481600481111561258a57634e487b7160e01b600052602160045260246000fd5b1415610f405760405162461bcd60e51b815260206004820152602260248201527f45434453413a20696e76616c6964207369676e6174757265202776272076616c604482015261756560f01b60648201526084016108a1565b6000848152610161602090815260408083206001600160a01b0387168452600381019092529091205460ff161561266c5760405162461bcd60e51b815260206004820152602760248201527f476f7665726e6f72566f74696e6753696d706c653a20766f746520616c726561604482015266191e4818d85cdd60ca1b60648201526084016108a1565b6001600160a01b03841660009081526003820160205260408120805460ff1916600117905560ff168360ff1614156126bd57818160000160008282546126b29190613260565b909155506111e79050565b60ff8316600114156126dd57818160010160008282546126b29190613260565b60ff8316600214156126fd57818160020160008282546126b29190613260565b60405162461bcd60e51b815260206004820152603560248201527f476f7665726e6f72566f74696e6753696d706c653a20696e76616c69642076616044820152746c756520666f7220656e756d20566f74655479706560581b60648201526084016108a1565b600061277882516001600160401b0316151590565b80156107a557505051436001600160401b03909116111590565b600081815261016160205260408120600281015460018201546127b59190613260565b6127c161075185610b76565b11159392505050565b8280546127d6906132ba565b90600052602060002090601f0160209004810192826127f8576000855561283e565b82601f1061281157805160ff191683800117855561283e565b8280016001018555821561283e579182015b8281111561283e578251825591602001919060010190612823565b506122769291505b808211156122765760008155600101612846565b60006001600160401b0383111561287357612873613305565b612886601f8401601f191660200161320d565b905082815283838301111561289a57600080fd5b828260208301376000602084830101529392505050565b600082601f8301126128c1578081fd5b813560206128d66128d18361323d565b61320d565b80838252828201915082860187848660051b89010111156128f5578586fd5b855b8581101561291c57813561290a8161331b565b845292840192908401906001016128f7565b5090979650505050505050565b600082601f830112612939578081fd5b813560206129496128d18361323d565b80838252828201915082860187848660051b8901011115612968578586fd5b855b8581101561291c5781356001600160401b03811115612987578788fd5b8801603f81018a13612997578788fd5b6129a88a878301356040840161285a565b855250928401929084019060010161296a565b600082601f8301126129cb578081fd5b813560206129db6128d18361323d565b80838252828201915082860187848660051b89010111156129fa578586fd5b855b8581101561291c578135845292840192908401906001016129fc565b803560ff81168114612a2957600080fd5b919050565b600060208284031215612a3f578081fd5b8135610ef88161331b565b60008060408385031215612a5c578081fd5b8235612a678161331b565b946020939093013593505050565b60008060008060808587031215612a8a578182fd5b84356001600160401b0380821115612aa0578384fd5b612aac888389016128b1565b95506020870135915080821115612ac1578384fd5b612acd888389016129bb565b94506040870135915080821115612ae2578384fd5b50612aef87828801612929565b949793965093946060013593505050565b60008060008060808587031215612b15578384fd5b84356001600160401b0380821115612b2b578586fd5b612b37888389016128b1565b95506020870135915080821115612b4c578485fd5b612b58888389016129bb565b94506040870135915080821115612b6d578384fd5b612b7988838901612929565b93506060870135915080821115612b8e578283fd5b508501601f81018713612b9f578182fd5b612bae8782356020840161285a565b91505092959194509250565b600060208284031215612bcb578081fd5b81518015158114610ef8578182fd5b600060208284031215612beb578081fd5b5051919050565b600060208284031215612c03578081fd5b81356001600160e01b031981168114610ef8578182fd5b60008060408385031215612c2c578182fd5b8235612c378161331b565b91506020830135612c478161331b565b809150509250929050565b600060208284031215612c63578081fd5b5035919050565b60008060408385031215612c7c578182fd5b823591506020830135612c478161331b565b60008060408385031215612ca0578182fd5b82359150612cb060208401612a18565b90509250929050565b60008060008060608587031215612cce578182fd5b84359350612cde60208601612a18565b925060408501356001600160401b0380821115612cf9578384fd5b818701915087601f830112612d0c578384fd5b813581811115612d1a578485fd5b886020828501011115612d2b578485fd5b95989497505060200194505050565b600080600080600060a08688031215612d51578283fd5b85359450612d6160208701612a18565b9350612d6f60408701612a18565b94979396509394606081013594506080013592915050565b6000815180845260208085019450808401835b83811015612dbf5781516001600160a01b031687529582019590820190600101612d9a565b509495945050505050565b600081518084526020808501808196508360051b81019150828601855b85811015612e11578284038952612dff848351612e4d565b98850198935090840190600101612de7565b5091979650505050505050565b6000815180845260208085019450808401835b83811015612dbf57815187529582019590820190600101612e31565b60008151808452815b81811015612e7257602081850181015186830182015201612e56565b81811115612e835782602083870101525b50601f01601f19169290920160200192915050565b608081526000612eab6080830187612d87565b8281036020840152612ebd8187612e1e565b90508281036040840152612ed18186612dca565b91505082606083015295945050505050565b60a081526000612ef660a0830188612d87565b8281036020840152612f088188612e1e565b90508281036040840152612f1c8187612dca565b60608401959095525050608001529392505050565b60c081526000612f4460c0830189612d87565b8281036020840152612f568189612e1e565b90508281036040840152612f6a8188612dca565b60608401969096525050608081019290925260a0909101529392505050565b6020810160088310612fab57634e487b7160e01b600052602160045260246000fd5b91905290565b602081526000610ef86020830184612e4d565b60208082526018908201527f476f7665726e6f723a206f6e6c79476f7665726e616e63650000000000000000604082015260600190565b60208082526021908201527f476f7665726e6f723a20696e76616c69642070726f706f73616c206c656e67746040820152600d60fb1b606082015260800190565b6020808252602e908201527f496e697469616c697a61626c653a20636f6e747261637420697320616c72656160408201526d191e481a5b9a5d1a585b1a5e995960921b606082015260800190565b60208082526021908201527f476f7665726e6f723a2070726f706f73616c206e6f74207375636365737366756040820152601b60fa1b606082015260800190565b602080825260129082015271155cd95c881a5cc819195b9e5b1a5cdd195960721b604082015260600190565b60006101208b8352602060018060a01b038c16818501528160408501526131208285018c612d87565b91508382036060850152613134828b612e1e565b915083820360808501528189518084528284019150828160051b850101838c01865b8381101561318457601f19878403018552613172838351612e4d565b94860194925090850190600101613156565b505086810360a0880152613198818c612dca565b9450505050506131b360c08401876001600160401b03169052565b6001600160401b03851660e08401528281036101008401526131d58185612e4d565b9c9b505050505050505050505050565b84815260ff84166020820152826040820152608060608201526000610cdd6080830184612e4d565b604051601f8201601f191681016001600160401b038111828210171561323557613235613305565b604052919050565b60006001600160401b0382111561325657613256613305565b5060051b60200190565b60008219821115613273576132736132ef565b500190565b60006001600160401b0380831681851680830382111561329a5761329a6132ef565b01949350505050565b6000828210156132b5576132b56132ef565b500390565b600181811c908216806132ce57607f821691505b60208210811415611f3a57634e487b7160e01b600052602260045260246000fd5b634e487b7160e01b600052601160045260246000fd5b634e487b7160e01b600052604160045260246000fd5b6001600160a01b0381168114610f4057600080fdfea2646970667358221220a74e66bc513d38450ff31c3b95db7cad21d0db3d2c104b39d6c6bb6e659a206564736f6c63430008040033",
  "immutableReferences": {},
  "source": "// SPDX-License-Identifier: MIT\npragma solidity ^0.8.2;\n\nimport \"./@openzeppelin/contracts-upgradeable/governance/GovernorUpgradeable.sol\";\nimport \"./@openzeppelin/contracts-upgradeable/governance/extensions/GovernorSettingsUpgradeable.sol\";\nimport \"./@openzeppelin/contracts-upgradeable/governance/extensions/GovernorCountingSimpleUpgradeable.sol\";\nimport \"./@openzeppelin/contracts-upgradeable/governance/extensions/GovernorVotesUpgradeable.sol\";\nimport \"./@openzeppelin/contracts-upgradeable/governance/extensions/GovernorTimelockControlUpgradeable.sol\";\nimport \"./@openzeppelin/contracts-upgradeable/proxy/utils/Initializable.sol\";\n\ncontract ClimateDAO is Initializable, GovernorUpgradeable, GovernorSettingsUpgradeable, GovernorCountingSimpleUpgradeable, GovernorVotesUpgradeable, GovernorTimelockControlUpgradeable {\n    \n    mapping(address => bool) public walletDenylist; // Adding mapping for denylist\n    address private _owner;\n\n    /// @custom:oz-upgrades-unsafe-allow constructor\n    constructor() initializer {}\n\n    function initialize(ERC20VotesUpgradeable _token, TimelockControllerUpgradeable _timelock)\n        initializer public\n    {\n        address msgSender = msg.sender;\n        _owner = msgSender;\n        __Governor_init(\"ClimateDAO\");\n        __GovernorSettings_init(6000 /* 6000 block */, 45818 /* 1 week */, 250e18);\n        __GovernorCountingSimple_init();\n        __GovernorVotes_init(_token);\n        __GovernorTimelockControl_init(_timelock);\n    }\n\n    /**\n     * @dev Returns the address of the current owner.\n     */\n    function owner() public view returns (address) {\n        return _owner;\n    }\n\n    /**\n     * @dev Throws if called by any account other than the owner.\n     */\n    modifier onlyOwner() {\n        require(_owner == msg.sender, \"Ownable: caller is not the owner\");\n        _;\n    }\n\n    function denyList(address _user) public onlyOwner {\n        require(!walletDenylist[_user], \"user already denylisted\");\n        walletDenylist[_user] = true;\n    }\n\n    function removeDenyList(address _user) public onlyOwner {\n        require(walletDenylist[_user], \"user already allowlisted\");\n        walletDenylist[_user] = false;\n    }\n\n    function isDenylisted(address _user) public view returns (bool) {\n        return walletDenylist[_user];\n    }\n\n    function quorum(uint256 blockNumber) public pure override returns (uint256) {\n        return 100e18;\n    }\n\n    // The following functions are overrides required by Solidity.\n\n    function votingDelay()\n        public\n        view\n        override(IGovernorUpgradeable, GovernorSettingsUpgradeable)\n        returns (uint256)\n    {\n        return super.votingDelay();\n    }\n\n    function votingPeriod()\n        public\n        view\n        override(IGovernorUpgradeable, GovernorSettingsUpgradeable)\n        returns (uint256)\n    {\n        return super.votingPeriod();\n    }\n\n    function getVotes(address account, uint256 blockNumber)\n        public\n        view\n        override(IGovernorUpgradeable, GovernorVotesUpgradeable)\n        returns (uint256)\n    {\n        return super.getVotes(account, blockNumber);\n    }\n\n    function state(uint256 proposalId)\n        public\n        view\n        override(GovernorUpgradeable, GovernorTimelockControlUpgradeable)\n        returns (ProposalState)\n    {\n        return super.state(proposalId);\n    }\n\n    function propose(address[] memory targets, uint256[] memory values, bytes[] memory calldatas, string memory description)\n        public\n        override(GovernorUpgradeable, IGovernorUpgradeable)\n        returns (uint256)\n    {\n        require(!walletDenylist[msg.sender], \"User is denylisted\");\n        return super.propose(targets, values, calldatas, description);\n    }\n\n    function castVoteWithReason(uint256 proposalId, uint8 support, string calldata reason)\n        public\n        override(GovernorUpgradeable, IGovernorUpgradeable)\n        returns (uint256)\n    {\n        require(!walletDenylist[msg.sender], \"User is denylisted\");\n        return super.castVoteWithReason(proposalId, support, reason);\n    }\n\n    function castVote(uint256 proposalId, uint8 support)\n        public\n        override(GovernorUpgradeable, IGovernorUpgradeable)\n        returns (uint256)\n    {\n        require(!walletDenylist[msg.sender], \"User is denylisted\");\n        return super.castVote(proposalId, support);\n    }\n\n    function castVoteBySig(uint256 proposalId, uint8 support, uint8 v, bytes32 r, bytes32 s)\n        public\n        override(GovernorUpgradeable, IGovernorUpgradeable)\n        returns (uint256)\n    {\n        require(!walletDenylist[msg.sender], \"User is denylisted\");\n        return super.castVoteBySig(proposalId, support, v, r, s);\n    }\n\n    function proposalThreshold()\n        public\n        view\n        override(GovernorUpgradeable, GovernorSettingsUpgradeable)\n        returns (uint256)\n    {\n        return super.proposalThreshold();\n    }\n\n    function _execute(uint256 proposalId, address[] memory targets, uint256[] memory values, bytes[] memory calldatas, bytes32 descriptionHash)\n        internal\n        override(GovernorUpgradeable, GovernorTimelockControlUpgradeable)\n    {\n        super._execute(proposalId, targets, values, calldatas, descriptionHash);\n    }\n\n    function _cancel(address[] memory targets, uint256[] memory values, bytes[] memory calldatas, bytes32 descriptionHash)\n        internal\n        override(GovernorUpgradeable, GovernorTimelockControlUpgradeable)\n        returns (uint256)\n    {\n        return super._cancel(targets, values, calldatas, descriptionHash);\n    }\n\n    function _executor()\n        internal\n        view\n        override(GovernorUpgradeable, GovernorTimelockControlUpgradeable)\n        returns (address)\n    {\n        return super._executor();\n    }\n\n    function supportsInterface(bytes4 interfaceId)\n        public\n        view\n        override(GovernorUpgradeable, GovernorTimelockControlUpgradeable)\n        returns (bool)\n    {\n        return super.supportsInterface(interfaceId);\n    }\n}\n",
  "sourcePath": "/Users/rishubhanda/Desktop/climate_dao/ClimateDAO-app/contracts/climatedao/ClimateDAO.sol",
  "compiler": {
    "name": "solc",
    "version": "0.8.4+commit.c7e474f2.Emscripten.clang"
  },
  "schemaVersion": "3.4.3",
  "updatedAt": "2022-01-06T02:05:49.189Z",
  "devdoc": {
    "kind": "dev",
    "methods": {
      "COUNTING_MODE()": {
        "details": "See {IGovernor-COUNTING_MODE}."
      },
      "constructor": {
        "custom:oz-upgrades-unsafe-allow": "constructor"
      },
      "execute(address[],uint256[],bytes[],bytes32)": {
        "details": "See {IGovernor-execute}."
      },
      "hasVoted(uint256,address)": {
        "details": "See {IGovernor-hasVoted}."
      },
      "hashProposal(address[],uint256[],bytes[],bytes32)": {
        "details": "See {IGovernor-hashProposal}. The proposal id is produced by hashing the RLC encoded `targets` array, the `values` array, the `calldatas` array and the descriptionHash (bytes32 which itself is the keccak256 hash of the description string). This proposal id can be produced from the proposal data which is part of the {ProposalCreated} event. It can even be computed in advance, before the proposal is submitted. Note that the chainId and the governor address are not part of the proposal id computation. Consequently, the same proposal (with same operation and same description) will have the same id if submitted on multiple governors accross multiple networks. This also means that in order to execute the same operation twice (on the same governor) the proposer will have to change the description in order to avoid proposal id conflicts."
      },
      "name()": {
        "details": "See {IGovernor-name}."
      },
      "owner()": {
        "details": "Returns the address of the current owner."
      },
      "proposalDeadline(uint256)": {
        "details": "See {IGovernor-proposalDeadline}."
      },
      "proposalEta(uint256)": {
        "details": "Public accessor to check the eta of a queued proposal"
      },
      "proposalSnapshot(uint256)": {
        "details": "See {IGovernor-proposalSnapshot}."
      },
      "proposalVotes(uint256)": {
        "details": "Accessor to the internal vote counts."
      },
      "queue(address[],uint256[],bytes[],bytes32)": {
        "details": "Function to queue a proposal to the timelock."
      },
      "quorum(uint256)": {
        "details": "Minimum number of cast voted required for a proposal to be successful. Note: The `blockNumber` parameter corresponds to the snaphot used for counting vote. This allows to scale the quroum depending on values such as the totalSupply of a token at this block (see {ERC20Votes})."
      },
      "setProposalThreshold(uint256)": {
        "details": "Update the proposal threshold. This operation can only be performed through a governance proposal. Emits a {ProposalThresholdSet} event."
      },
      "setVotingDelay(uint256)": {
        "details": "Update the voting delay. This operation can only be performed through a governance proposal. Emits a {VotingDelaySet} event."
      },
      "setVotingPeriod(uint256)": {
        "details": "Update the voting period. This operation can only be performed through a governance proposal. Emits a {VotingPeriodSet} event."
      },
      "timelock()": {
        "details": "Public accessor to check the address of the timelock"
      },
      "updateTimelock(address)": {
        "details": "Public endpoint to update the underlying timelock instance. Restricted to the timelock itself, so updates must be proposed, scheduled and executed using the {Governor} workflow."
      },
      "version()": {
        "details": "See {IGovernor-version}."
      }
    },
    "version": 1
  },
  "userdoc": {
    "kind": "user",
    "methods": {
      "quorum(uint256)": {
        "notice": "module:user-config"
      }
    },
    "version": 1
  }
}